{"abi":[{"type":"constructor","inputs":[],"stateMutability":"nonpayable"},{"type":"function","name":"approve","inputs":[{"name":"to","type":"address","internalType":"address"},{"name":"tokenId","type":"uint256","internalType":"uint256"}],"outputs":[],"stateMutability":"nonpayable"},{"type":"function","name":"balanceOf","inputs":[{"name":"owner","type":"address","internalType":"address"}],"outputs":[{"name":"","type":"uint256","internalType":"uint256"}],"stateMutability":"view"},{"type":"function","name":"endTrade","inputs":[{"name":"_shareholder","type":"address","internalType":"address"},{"name":"_indexValue","type":"uint256","internalType":"uint256"},{"name":"_refunded","type":"uint256","internalType":"uint256"}],"outputs":[],"stateMutability":"nonpayable"},{"type":"function","name":"getApproved","inputs":[{"name":"tokenId","type":"uint256","internalType":"uint256"}],"outputs":[{"name":"","type":"address","internalType":"address"}],"stateMutability":"view"},{"type":"function","name":"getLatestTrade","inputs":[{"name":"_trader","type":"address","internalType":"address"}],"outputs":[{"name":"trade","type":"tuple","internalType":"struct SuperDCATrade.Trade","components":[{"name":"tradeId","type":"uint256","internalType":"uint256"},{"name":"startTime","type":"uint256","internalType":"uint256"},{"name":"endTime","type":"uint256","internalType":"uint256"},{"name":"flowRate","type":"int96","internalType":"int96"},{"name":"startIdaIndex","type":"uint256","internalType":"uint256"},{"name":"endIdaIndex","type":"uint256","internalType":"uint256"},{"name":"units","type":"uint256","internalType":"uint256"},{"name":"refunded","type":"uint256","internalType":"uint256"}]}],"stateMutability":"view"},{"type":"function","name":"getTradeInfo","inputs":[{"name":"_trader","type":"address","internalType":"address"},{"name":"_index","type":"uint256","internalType":"uint256"}],"outputs":[{"name":"trade","type":"tuple","internalType":"struct SuperDCATrade.Trade","components":[{"name":"tradeId","type":"uint256","internalType":"uint256"},{"name":"startTime","type":"uint256","internalType":"uint256"},{"name":"endTime","type":"uint256","internalType":"uint256"},{"name":"flowRate","type":"int96","internalType":"int96"},{"name":"startIdaIndex","type":"uint256","internalType":"uint256"},{"name":"endIdaIndex","type":"uint256","internalType":"uint256"},{"name":"units","type":"uint256","internalType":"uint256"},{"name":"refunded","type":"uint256","internalType":"uint256"}]}],"stateMutability":"view"},{"type":"function","name":"isApprovedForAll","inputs":[{"name":"owner","type":"address","internalType":"address"},{"name":"operator","type":"address","internalType":"address"}],"outputs":[{"name":"","type":"bool","internalType":"bool"}],"stateMutability":"view"},{"type":"function","name":"name","inputs":[],"outputs":[{"name":"","type":"string","internalType":"string"}],"stateMutability":"view"},{"type":"function","name":"owner","inputs":[],"outputs":[{"name":"","type":"address","internalType":"address"}],"stateMutability":"view"},{"type":"function","name":"ownerOf","inputs":[{"name":"tokenId","type":"uint256","internalType":"uint256"}],"outputs":[{"name":"","type":"address","internalType":"address"}],"stateMutability":"view"},{"type":"function","name":"renounceOwnership","inputs":[],"outputs":[],"stateMutability":"nonpayable"},{"type":"function","name":"safeTransferFrom","inputs":[{"name":"from","type":"address","internalType":"address"},{"name":"to","type":"address","internalType":"address"},{"name":"tokenId","type":"uint256","internalType":"uint256"}],"outputs":[],"stateMutability":"nonpayable"},{"type":"function","name":"safeTransferFrom","inputs":[{"name":"from","type":"address","internalType":"address"},{"name":"to","type":"address","internalType":"address"},{"name":"tokenId","type":"uint256","internalType":"uint256"},{"name":"data","type":"bytes","internalType":"bytes"}],"outputs":[],"stateMutability":"nonpayable"},{"type":"function","name":"setApprovalForAll","inputs":[{"name":"operator","type":"address","internalType":"address"},{"name":"approved","type":"bool","internalType":"bool"}],"outputs":[],"stateMutability":"nonpayable"},{"type":"function","name":"startTrade","inputs":[{"name":"_shareholder","type":"address","internalType":"address"},{"name":"_flowRate","type":"int96","internalType":"int96"},{"name":"_indexValue","type":"uint256","internalType":"uint256"},{"name":"_units","type":"uint256","internalType":"uint256"}],"outputs":[],"stateMutability":"nonpayable"},{"type":"function","name":"supportsInterface","inputs":[{"name":"interfaceId","type":"bytes4","internalType":"bytes4"}],"outputs":[{"name":"","type":"bool","internalType":"bool"}],"stateMutability":"view"},{"type":"function","name":"symbol","inputs":[],"outputs":[{"name":"","type":"string","internalType":"string"}],"stateMutability":"view"},{"type":"function","name":"tokenURI","inputs":[{"name":"tokenId","type":"uint256","internalType":"uint256"}],"outputs":[{"name":"","type":"string","internalType":"string"}],"stateMutability":"view"},{"type":"function","name":"tradeCountsByUser","inputs":[{"name":"","type":"address","internalType":"address"}],"outputs":[{"name":"","type":"uint256","internalType":"uint256"}],"stateMutability":"view"},{"type":"function","name":"trades","inputs":[{"name":"","type":"uint256","internalType":"uint256"}],"outputs":[{"name":"tradeId","type":"uint256","internalType":"uint256"},{"name":"startTime","type":"uint256","internalType":"uint256"},{"name":"endTime","type":"uint256","internalType":"uint256"},{"name":"flowRate","type":"int96","internalType":"int96"},{"name":"startIdaIndex","type":"uint256","internalType":"uint256"},{"name":"endIdaIndex","type":"uint256","internalType":"uint256"},{"name":"units","type":"uint256","internalType":"uint256"},{"name":"refunded","type":"uint256","internalType":"uint256"}],"stateMutability":"view"},{"type":"function","name":"tradesByUser","inputs":[{"name":"","type":"address","internalType":"address"},{"name":"","type":"uint256","internalType":"uint256"}],"outputs":[{"name":"","type":"uint256","internalType":"uint256"}],"stateMutability":"view"},{"type":"function","name":"transferFrom","inputs":[{"name":"from","type":"address","internalType":"address"},{"name":"to","type":"address","internalType":"address"},{"name":"tokenId","type":"uint256","internalType":"uint256"}],"outputs":[],"stateMutability":"nonpayable"},{"type":"function","name":"transferOwnership","inputs":[{"name":"newOwner","type":"address","internalType":"address"}],"outputs":[],"stateMutability":"nonpayable"},{"type":"event","name":"Approval","inputs":[{"name":"owner","type":"address","indexed":true,"internalType":"address"},{"name":"approved","type":"address","indexed":true,"internalType":"address"},{"name":"tokenId","type":"uint256","indexed":true,"internalType":"uint256"}],"anonymous":false},{"type":"event","name":"ApprovalForAll","inputs":[{"name":"owner","type":"address","indexed":true,"internalType":"address"},{"name":"operator","type":"address","indexed":true,"internalType":"address"},{"name":"approved","type":"bool","indexed":false,"internalType":"bool"}],"anonymous":false},{"type":"event","name":"OwnershipTransferred","inputs":[{"name":"previousOwner","type":"address","indexed":true,"internalType":"address"},{"name":"newOwner","type":"address","indexed":true,"internalType":"address"}],"anonymous":false},{"type":"event","name":"TradeEnded","inputs":[{"name":"trader","type":"address","indexed":true,"internalType":"address"},{"name":"tradeId","type":"uint256","indexed":true,"internalType":"uint256"}],"anonymous":false},{"type":"event","name":"TradeStarted","inputs":[{"name":"trader","type":"address","indexed":true,"internalType":"address"},{"name":"tradeId","type":"uint256","indexed":true,"internalType":"uint256"}],"anonymous":false},{"type":"event","name":"Transfer","inputs":[{"name":"from","type":"address","indexed":true,"internalType":"address"},{"name":"to","type":"address","indexed":true,"internalType":"address"},{"name":"tokenId","type":"uint256","indexed":true,"internalType":"uint256"}],"anonymous":false},{"type":"error","name":"ERC721IncorrectOwner","inputs":[{"name":"sender","type":"address","internalType":"address"},{"name":"tokenId","type":"uint256","internalType":"uint256"},{"name":"owner","type":"address","internalType":"address"}]},{"type":"error","name":"ERC721InsufficientApproval","inputs":[{"name":"operator","type":"address","internalType":"address"},{"name":"tokenId","type":"uint256","internalType":"uint256"}]},{"type":"error","name":"ERC721InvalidApprover","inputs":[{"name":"approver","type":"address","internalType":"address"}]},{"type":"error","name":"ERC721InvalidOperator","inputs":[{"name":"operator","type":"address","internalType":"address"}]},{"type":"error","name":"ERC721InvalidOwner","inputs":[{"name":"owner","type":"address","internalType":"address"}]},{"type":"error","name":"ERC721InvalidReceiver","inputs":[{"name":"receiver","type":"address","internalType":"address"}]},{"type":"error","name":"ERC721InvalidSender","inputs":[{"name":"sender","type":"address","internalType":"address"}]},{"type":"error","name":"ERC721NonexistentToken","inputs":[{"name":"tokenId","type":"uint256","internalType":"uint256"}]},{"type":"error","name":"OwnableInvalidOwner","inputs":[{"name":"owner","type":"address","internalType":"address"}]},{"type":"error","name":"OwnableUnauthorizedAccount","inputs":[{"name":"account","type":"address","internalType":"address"}]}],"bytecode":{"object":"0x608060405234801561000f575f5ffd5b50604080518082018252600e81526d537570657244434120547261646560901b602080830191909152825180840190935260048352635344434160e01b9083015290338061007657604051631e4fbdf760e01b81525f600482015260240160405180910390fd5b61007f816100a1565b50600161008c8382610188565b5060026100998282610188565b505050610242565b5f80546001600160a01b038381166001600160a01b0319831681178455604051919092169283917f8be0079c531659141344cd1fd0a4f28419497f9722a3daafe3b4186f6b6457e09190a35050565b634e487b7160e01b5f52604160045260245ffd5b600181811c9082168061011857607f821691505b60208210810361013657634e487b7160e01b5f52602260045260245ffd5b50919050565b601f82111561018357805f5260205f20601f840160051c810160208510156101615750805b601f840160051c820191505b81811015610180575f815560010161016d565b50505b505050565b81516001600160401b038111156101a1576101a16100f0565b6101b5816101af8454610104565b8461013c565b6020601f8211600181146101e7575f83156101d05750848201515b5f19600385901b1c1916600184901b178455610180565b5f84815260208120601f198516915b8281101561021657878501518255602094850194600190920191016101f6565b508482101561023357868401515f19600387901b60f8161c191681555b50505050600190811b01905550565b611f2b8061024f5f395ff3fe608060405234801561000f575f5ffd5b5060043610610184575f3560e01c806370a08231116100dd578063a22cb46511610088578063e6017d6911610063578063e6017d6914610433578063e985e9c514610446578063f2fde38b1461048e575f5ffd5b8063a22cb465146103fa578063b88d4fde1461040d578063c87b56dd14610420575f5ffd5b80638da5cb5b116100b85780638da5cb5b146103b657806395d89b41146103d3578063a22b3445146103db575f5ffd5b806370a082311461037a578063715018a61461039b5780637ab83255146103a3575f5ffd5b806323b872dd1161013d57806362be675b1161011857806362be675b146102de5780636352211e146103545780636700ed0014610367575f5ffd5b806323b872dd146102a557806342842e0e146102b85780634b4749d4146102cb575f5ffd5b8063081812fc1161016d578063081812fc146101c5578063095ea7b3146101fd5780631e6c598e14610212575f5ffd5b806301ffc9a71461018857806306fdde03146101b0575b5f5ffd5b61019b610196366004611a2a565b6104a1565b60405190151581526020015b60405180910390f35b6101b8610585565b6040516101a79190611a91565b6101d86101d3366004611aa3565b610615565b60405173ffffffffffffffffffffffffffffffffffffffff90911681526020016101a7565b61021061020b366004611ae2565b610649565b005b610267610220366004611aa3565b60086020525f908152604090208054600182015460028301546003840154600485015460058601546006870154600790970154959694959394600b9390930b939192909188565b60408051988952602089019790975295870194909452600b9290920b6060860152608085015260a084015260c083015260e0820152610100016101a7565b6102106102b3366004611b0a565b610658565b6102106102c6366004611b0a565b61074c565b6102106102d9366004611b44565b61076b565b6102f16102ec366004611b8a565b610904565b6040516101a791905f610100820190508251825260208301516020830152604083015160408301526060830151600b0b60608301526080830151608083015260a083015160a083015260c083015160c083015260e083015160e083015292915050565b6101d8610362366004611aa3565b610a95565b610210610375366004611ba3565b610a9f565b61038d610388366004611b8a565b610b69565b6040519081526020016101a7565b610210610be1565b6102f16103b1366004611ae2565b610bf4565b5f5473ffffffffffffffffffffffffffffffffffffffff166101d8565b6101b8610d7c565b61038d6103e9366004611b8a565b600a6020525f908152604090205481565b610210610408366004611bd3565b610d8b565b61021061041b366004611c39565b610d96565b6101b861042e366004611aa3565b610dae565b61038d610441366004611ae2565b610e1f565b61019b610454366004611d53565b73ffffffffffffffffffffffffffffffffffffffff9182165f90815260066020908152604080832093909416825291909152205460ff1690565b61021061049c366004611b8a565b610e4a565b5f7fffffffff0000000000000000000000000000000000000000000000000000000082167f80ac58cd00000000000000000000000000000000000000000000000000000000148061053357507fffffffff0000000000000000000000000000000000000000000000000000000082167f5b5e139f00000000000000000000000000000000000000000000000000000000145b8061057f57507f01ffc9a7000000000000000000000000000000000000000000000000000000007fffffffff000000000000000000000000000000000000000000000000000000008316145b92915050565b60606001805461059490611d84565b80601f01602080910402602001604051908101604052809291908181526020018280546105c090611d84565b801561060b5780601f106105e25761010080835404028352916020019161060b565b820191905f5260205f20905b8154815290600101906020018083116105ee57829003601f168201915b5050505050905090565b5f61061f82610ead565b505f8281526005602052604090205473ffffffffffffffffffffffffffffffffffffffff1661057f565b610654828233610f0b565b5050565b73ffffffffffffffffffffffffffffffffffffffff82166106ac576040517f64a0ae920000000000000000000000000000000000000000000000000000000081525f60048201526024015b60405180910390fd5b5f6106b8838333610f18565b90508373ffffffffffffffffffffffffffffffffffffffff168173ffffffffffffffffffffffffffffffffffffffff1614610746576040517f64283d7b00000000000000000000000000000000000000000000000000000000815273ffffffffffffffffffffffffffffffffffffffff808616600483015260248201849052821660448201526064016106a3565b50505050565b61076683838360405180602001604052805f815250610d96565b505050565b61077361108f565b5f60075460016107839190611e02565b9050600160075f8282546107979190611e02565b909155505060408051610100810182528281524260208083019182525f838501818152600b8a900b60608601908152608086018a815260a0870184815260c088018b815260e089018681528b8752600888528a872099518a5597516001808b0191909155945160028a015592516003890180547fffffffffffffffffffffffffffffffffffffffff000000000000000000000000166bffffffffffffffffffffffff90921691909117905590516004880155516005870155516006860155925160079094019390935573ffffffffffffffffffffffffffffffffffffffff89168084526009825284842080548085018255908552828520018690558352600a905291812080549091906108ab908490611e02565b909155506108bb905085826110e1565b604051819073ffffffffffffffffffffffffffffffffffffffff8716907f541ea85807e9c16cf41b8563d5bfb0365e7e86b89f96751d3236e93051c8efe4905f90a35050505050565b6109476040518061010001604052805f81526020015f81526020015f81526020015f600b0b81526020015f81526020015f81526020015f81526020015f81525090565b73ffffffffffffffffffffffffffffffffffffffff82165f908152600960205260409020546109d2576040517f08c379a000000000000000000000000000000000000000000000000000000000815260206004820152600960248201527f4e6f20747261646573000000000000000000000000000000000000000000000060448201526064016106a3565b73ffffffffffffffffffffffffffffffffffffffff82165f90815260096020526040812080546008929190610a0990600190611e15565b81548110610a1957610a19611e28565b5f91825260208083209091015483528281019390935260409182019020815161010081018352815481526001820154938101939093526002810154918301919091526003810154600b0b606083015260048101546080830152600581015460a0830152600681015460c08301526007015460e082015292915050565b5f61057f82610ead565b610aa761108f565b73ffffffffffffffffffffffffffffffffffffffff83165f90815260096020526040812080546008918391610ade90600190611e15565b81548110610aee57610aee611e28565b5f918252602080832090910154835282019290925260409081018220426002820155600581018690556007810185905580549151909350909173ffffffffffffffffffffffffffffffffffffffff8716917fbb84835527964b8bdc5a5888dcf6ef3986ea29be9884fb0d278e0a52551c33ef9190a350505050565b5f73ffffffffffffffffffffffffffffffffffffffff8216610bb9576040517f89c62b640000000000000000000000000000000000000000000000000000000081525f60048201526024016106a3565b5073ffffffffffffffffffffffffffffffffffffffff165f9081526004602052604090205490565b610be961108f565b610bf25f6110fa565b565b610c376040518061010001604052805f81526020015f81526020015f81526020015f600b0b81526020015f81526020015f81526020015f81526020015f81525090565b73ffffffffffffffffffffffffffffffffffffffff83165f908152600960205260409020548210610cc4576040517f08c379a000000000000000000000000000000000000000000000000000000000815260206004820152601360248201527f496e76616c696420747261646520696e6465780000000000000000000000000060448201526064016106a3565b73ffffffffffffffffffffffffffffffffffffffff83165f9081526009602052604081208054600892919085908110610cff57610cff611e28565b5f91825260208083209091015483528281019390935260409182019020815161010081018352815481526001820154938101939093526002810154918301919091526003810154600b0b606083015260048101546080830152600581015460a0830152600681015460c08301526007015460e08201529392505050565b60606002805461059490611d84565b61065433838361116e565b610da1848484610658565b610746338585858561126a565b6060610db982610ead565b505f610dcf60408051602081019091525f815290565b90505f815111610ded5760405180602001604052805f815250610e18565b80610df784611460565b604051602001610e08929190611e6c565b6040516020818303038152906040525b9392505050565b6009602052815f5260405f208181548110610e38575f80fd5b905f5260205f20015f91509150505481565b610e5261108f565b73ffffffffffffffffffffffffffffffffffffffff8116610ea1576040517f1e4fbdf70000000000000000000000000000000000000000000000000000000081525f60048201526024016106a3565b610eaa816110fa565b50565b5f8181526003602052604081205473ffffffffffffffffffffffffffffffffffffffff168061057f576040517f7e273289000000000000000000000000000000000000000000000000000000008152600481018490526024016106a3565b610766838383600161151c565b5f8281526003602052604081205473ffffffffffffffffffffffffffffffffffffffff90811690831615610f5157610f518184866116e4565b73ffffffffffffffffffffffffffffffffffffffff811615610fc457610f795f855f5f61151c565b73ffffffffffffffffffffffffffffffffffffffff81165f90815260046020526040902080547fffffffffffffffffffffffffffffffffffffffffffffffffffffffffffffffff0190555b73ffffffffffffffffffffffffffffffffffffffff85161561100c5773ffffffffffffffffffffffffffffffffffffffff85165f908152600460205260409020805460010190555b5f8481526003602052604080822080547fffffffffffffffffffffffff00000000000000000000000000000000000000001673ffffffffffffffffffffffffffffffffffffffff89811691821790925591518793918516917fddf252ad1be2c89b69c2b068fc378daa952ba7f163c4a11628f55a4df523b3ef91a4949350505050565b5f5473ffffffffffffffffffffffffffffffffffffffff163314610bf2576040517f118cdaa70000000000000000000000000000000000000000000000000000000081523360048201526024016106a3565b610654828260405180602001604052805f815250611794565b5f805473ffffffffffffffffffffffffffffffffffffffff8381167fffffffffffffffffffffffff0000000000000000000000000000000000000000831681178455604051919092169283917f8be0079c531659141344cd1fd0a4f28419497f9722a3daafe3b4186f6b6457e09190a35050565b73ffffffffffffffffffffffffffffffffffffffff82166111d3576040517f5b08ba1800000000000000000000000000000000000000000000000000000000815273ffffffffffffffffffffffffffffffffffffffff831660048201526024016106a3565b73ffffffffffffffffffffffffffffffffffffffff8381165f8181526006602090815260408083209487168084529482529182902080547fffffffffffffffffffffffffffffffffffffffffffffffffffffffffffffff001686151590811790915591519182527f17307eab39ab6107e8899845ad3d59bd9653f200f220920489ca2b5937696c31910160405180910390a3505050565b73ffffffffffffffffffffffffffffffffffffffff83163b15611459576040517f150b7a0200000000000000000000000000000000000000000000000000000000815273ffffffffffffffffffffffffffffffffffffffff84169063150b7a02906112df908890889087908790600401611e80565b6020604051808303815f875af1925050508015611337575060408051601f3d9081017fffffffffffffffffffffffffffffffffffffffffffffffffffffffffffffffe016820190925261133491810190611eda565b60015b6113c4573d808015611364576040519150601f19603f3d011682016040523d82523d5f602084013e611369565b606091505b5080515f036113bc576040517f64a0ae9200000000000000000000000000000000000000000000000000000000815273ffffffffffffffffffffffffffffffffffffffff851660048201526024016106a3565b805160208201fd5b7fffffffff0000000000000000000000000000000000000000000000000000000081167f150b7a020000000000000000000000000000000000000000000000000000000014611457576040517f64a0ae9200000000000000000000000000000000000000000000000000000000815273ffffffffffffffffffffffffffffffffffffffff851660048201526024016106a3565b505b5050505050565b60605f61146c836117ab565b60010190505f8167ffffffffffffffff81111561148b5761148b611c0c565b6040519080825280601f01601f1916602001820160405280156114b5576020820181803683370190505b5090508181016020015b7fffffffffffffffffffffffffffffffffffffffffffffffffffffffffffffffff017f3031323334353637383961626364656600000000000000000000000000000000600a86061a8153600a85049450846114bf57509392505050565b808061153d575073ffffffffffffffffffffffffffffffffffffffff821615155b15611690575f61154c84610ead565b905073ffffffffffffffffffffffffffffffffffffffff83161580159061159f57508273ffffffffffffffffffffffffffffffffffffffff168173ffffffffffffffffffffffffffffffffffffffff1614155b80156115dd575073ffffffffffffffffffffffffffffffffffffffff8082165f9081526006602090815260408083209387168352929052205460ff16155b1561162c576040517fa9fbf51f00000000000000000000000000000000000000000000000000000000815273ffffffffffffffffffffffffffffffffffffffff841660048201526024016106a3565b811561168e57838573ffffffffffffffffffffffffffffffffffffffff168273ffffffffffffffffffffffffffffffffffffffff167f8c5be1e5ebec7d5bd14f71427d1e84f3dd0314c0f7b2291e5b200ac8c7c3b92560405160405180910390a45b505b50505f90815260056020526040902080547fffffffffffffffffffffffff00000000000000000000000000000000000000001673ffffffffffffffffffffffffffffffffffffffff92909216919091179055565b6116ef83838361188c565b6107665773ffffffffffffffffffffffffffffffffffffffff8316611743576040517f7e273289000000000000000000000000000000000000000000000000000000008152600481018290526024016106a3565b6040517f177e802f00000000000000000000000000000000000000000000000000000000815273ffffffffffffffffffffffffffffffffffffffff83166004820152602481018290526044016106a3565b61179e8383611950565b610766335f85858561126a565b5f807a184f03e93ff9f4daa797ed6e38ed64bf6a1f01000000000000000083106117f3577a184f03e93ff9f4daa797ed6e38ed64bf6a1f010000000000000000830492506040015b6d04ee2d6d415b85acef8100000000831061181f576d04ee2d6d415b85acef8100000000830492506020015b662386f26fc10000831061183d57662386f26fc10000830492506010015b6305f5e1008310611855576305f5e100830492506008015b612710831061186957612710830492506004015b6064831061187b576064830492506002015b600a831061057f5760010192915050565b5f73ffffffffffffffffffffffffffffffffffffffff83161580159061194857508273ffffffffffffffffffffffffffffffffffffffff168473ffffffffffffffffffffffffffffffffffffffff161480611918575073ffffffffffffffffffffffffffffffffffffffff8085165f9081526006602090815260408083209387168352929052205460ff165b8061194857505f8281526005602052604090205473ffffffffffffffffffffffffffffffffffffffff8481169116145b949350505050565b73ffffffffffffffffffffffffffffffffffffffff821661199f576040517f64a0ae920000000000000000000000000000000000000000000000000000000081525f60048201526024016106a3565b5f6119ab83835f610f18565b905073ffffffffffffffffffffffffffffffffffffffff811615610766576040517f73c6ac6e0000000000000000000000000000000000000000000000000000000081525f60048201526024016106a3565b7fffffffff0000000000000000000000000000000000000000000000000000000081168114610eaa575f5ffd5b5f60208284031215611a3a575f5ffd5b8135610e18816119fd565b5f81518084528060208401602086015e5f6020828601015260207fffffffffffffffffffffffffffffffffffffffffffffffffffffffffffffffe0601f83011685010191505092915050565b602081525f610e186020830184611a45565b5f60208284031215611ab3575f5ffd5b5035919050565b803573ffffffffffffffffffffffffffffffffffffffff81168114611add575f5ffd5b919050565b5f5f60408385031215611af3575f5ffd5b611afc83611aba565b946020939093013593505050565b5f5f5f60608486031215611b1c575f5ffd5b611b2584611aba565b9250611b3360208501611aba565b929592945050506040919091013590565b5f5f5f5f60808587031215611b57575f5ffd5b611b6085611aba565b9350602085013580600b0b8114611b75575f5ffd5b93969395505050506040820135916060013590565b5f60208284031215611b9a575f5ffd5b610e1882611aba565b5f5f5f60608486031215611bb5575f5ffd5b611bbe84611aba565b95602085013595506040909401359392505050565b5f5f60408385031215611be4575f5ffd5b611bed83611aba565b915060208301358015158114611c01575f5ffd5b809150509250929050565b7f4e487b71000000000000000000000000000000000000000000000000000000005f52604160045260245ffd5b5f5f5f5f60808587031215611c4c575f5ffd5b611c5585611aba565b9350611c6360208601611aba565b925060408501359150606085013567ffffffffffffffff811115611c85575f5ffd5b8501601f81018713611c95575f5ffd5b803567ffffffffffffffff811115611caf57611caf611c0c565b6040517fffffffffffffffffffffffffffffffffffffffffffffffffffffffffffffffe0603f7fffffffffffffffffffffffffffffffffffffffffffffffffffffffffffffffe0601f8501160116810181811067ffffffffffffffff82111715611d1b57611d1b611c0c565b604052818152828201602001891015611d32575f5ffd5b816020840160208301375f6020838301015280935050505092959194509250565b5f5f60408385031215611d64575f5ffd5b611d6d83611aba565b9150611d7b60208401611aba565b90509250929050565b600181811c90821680611d9857607f821691505b602082108103611dcf577f4e487b71000000000000000000000000000000000000000000000000000000005f52602260045260245ffd5b50919050565b7f4e487b71000000000000000000000000000000000000000000000000000000005f52601160045260245ffd5b8082018082111561057f5761057f611dd5565b8181038181111561057f5761057f611dd5565b7f4e487b71000000000000000000000000000000000000000000000000000000005f52603260045260245ffd5b5f81518060208401855e5f93019283525090919050565b5f611948611e7a8386611e55565b84611e55565b73ffffffffffffffffffffffffffffffffffffffff8516815273ffffffffffffffffffffffffffffffffffffffff84166020820152826040820152608060608201525f611ed06080830184611a45565b9695505050505050565b5f60208284031215611eea575f5ffd5b8151610e18816119fd56fea2646970667358221220d04f6df182fc6d9342804fa5d3c74827ec757e6d45e68bc0ab452b3aaf7c397964736f6c634300081d0033","linkReferences":{}},"methodIdentifiers":{"approve(address,uint256)":"095ea7b3","balanceOf(address)":"70a08231","endTrade(address,uint256,uint256)":"6700ed00","getApproved(uint256)":"081812fc","getLatestTrade(address)":"62be675b","getTradeInfo(address,uint256)":"7ab83255","isApprovedForAll(address,address)":"e985e9c5","name()":"06fdde03","owner()":"8da5cb5b","ownerOf(uint256)":"6352211e","renounceOwnership()":"715018a6","safeTransferFrom(address,address,uint256)":"42842e0e","safeTransferFrom(address,address,uint256,bytes)":"b88d4fde","setApprovalForAll(address,bool)":"a22cb465","startTrade(address,int96,uint256,uint256)":"4b4749d4","supportsInterface(bytes4)":"01ffc9a7","symbol()":"95d89b41","tokenURI(uint256)":"c87b56dd","tradeCountsByUser(address)":"a22b3445","trades(uint256)":"1e6c598e","tradesByUser(address,uint256)":"e6017d69","transferFrom(address,address,uint256)":"23b872dd","transferOwnership(address)":"f2fde38b"},"id":53}