{"abi":[{"type":"constructor","inputs":[],"stateMutability":"nonpayable"},{"type":"function","name":"UPGRADE_INTERFACE_VERSION","inputs":[],"outputs":[{"name":"","type":"string","internalType":"string"}],"stateMutability":"view"},{"type":"function","name":"advanceEpoch","inputs":[{"name":"questionId","type":"bytes32","internalType":"bytes32"}],"outputs":[],"stateMutability":"nonpayable"},{"type":"function","name":"createMarket","inputs":[{"name":"questionId","type":"bytes32","internalType":"bytes32"},{"name":"_outcomeCount","type":"uint256","internalType":"uint256"},{"name":"_resolutionTime","type":"uint256","internalType":"uint256"},{"name":"_epochDuration","type":"uint256","internalType":"uint256"}],"outputs":[],"stateMutability":"nonpayable"},{"type":"function","name":"getConditionId","inputs":[{"name":"oracle","type":"address","internalType":"address"},{"name":"questionId","type":"bytes32","internalType":"bytes32"},{"name":"numberOfOutcomes","type":"uint256","internalType":"uint256"},{"name":"epoch","type":"uint256","internalType":"uint256"}],"outputs":[{"name":"","type":"bytes32","internalType":"bytes32"}],"stateMutability":"view"},{"type":"function","name":"getCreationTime","inputs":[{"name":"questionId","type":"bytes32","internalType":"bytes32"}],"outputs":[{"name":"","type":"uint256","internalType":"uint256"}],"stateMutability":"view"},{"type":"function","name":"getCurrentEpoch","inputs":[{"name":"questionId","type":"bytes32","internalType":"bytes32"}],"outputs":[{"name":"","type":"uint256","internalType":"uint256"}],"stateMutability":"view"},{"type":"function","name":"getEpochDuration","inputs":[{"name":"questionId","type":"bytes32","internalType":"bytes32"}],"outputs":[{"name":"","type":"uint256","internalType":"uint256"}],"stateMutability":"view"},{"type":"function","name":"getEpochEndTime","inputs":[{"name":"questionId","type":"bytes32","internalType":"bytes32"},{"name":"epoch","type":"uint256","internalType":"uint256"}],"outputs":[{"name":"","type":"uint256","internalType":"uint256"}],"stateMutability":"view"},{"type":"function","name":"getEpochStartTime","inputs":[{"name":"questionId","type":"bytes32","internalType":"bytes32"},{"name":"epoch","type":"uint256","internalType":"uint256"}],"outputs":[{"name":"","type":"uint256","internalType":"uint256"}],"stateMutability":"view"},{"type":"function","name":"getMarketExists","inputs":[{"name":"questionId","type":"bytes32","internalType":"bytes32"}],"outputs":[{"name":"","type":"bool","internalType":"bool"}],"stateMutability":"view"},{"type":"function","name":"getOutcomeCount","inputs":[{"name":"questionId","type":"bytes32","internalType":"bytes32"}],"outputs":[{"name":"","type":"uint256","internalType":"uint256"}],"stateMutability":"view"},{"type":"function","name":"getResolutionTime","inputs":[{"name":"questionId","type":"bytes32","internalType":"bytes32"}],"outputs":[{"name":"","type":"uint256","internalType":"uint256"}],"stateMutability":"view"},{"type":"function","name":"initialize","inputs":[{"name":"_initialOwner","type":"address","internalType":"address"}],"outputs":[],"stateMutability":"nonpayable"},{"type":"function","name":"isMarketOpen","inputs":[{"name":"questionId","type":"bytes32","internalType":"bytes32"}],"outputs":[{"name":"","type":"bool","internalType":"bool"}],"stateMutability":"view"},{"type":"function","name":"isMarketReadyForResolution","inputs":[{"name":"questionId","type":"bytes32","internalType":"bytes32"}],"outputs":[{"name":"","type":"bool","internalType":"bool"}],"stateMutability":"view"},{"type":"function","name":"marketController","inputs":[],"outputs":[{"name":"","type":"address","internalType":"address"}],"stateMutability":"view"},{"type":"function","name":"owner","inputs":[],"outputs":[{"name":"","type":"address","internalType":"address"}],"stateMutability":"view"},{"type":"function","name":"proxiableUUID","inputs":[],"outputs":[{"name":"","type":"bytes32","internalType":"bytes32"}],"stateMutability":"view"},{"type":"function","name":"renounceOwnership","inputs":[],"outputs":[],"stateMutability":"nonpayable"},{"type":"function","name":"setMarketController","inputs":[{"name":"_marketController","type":"address","internalType":"address"}],"outputs":[],"stateMutability":"nonpayable"},{"type":"function","name":"transferOwnership","inputs":[{"name":"newOwner","type":"address","internalType":"address"}],"outputs":[],"stateMutability":"nonpayable"},{"type":"function","name":"updateResolutionTime","inputs":[{"name":"questionId","type":"bytes32","internalType":"bytes32"},{"name":"_resolutionTime","type":"uint256","internalType":"uint256"}],"outputs":[],"stateMutability":"nonpayable"},{"type":"function","name":"upgradeToAndCall","inputs":[{"name":"newImplementation","type":"address","internalType":"address"},{"name":"data","type":"bytes","internalType":"bytes"}],"outputs":[],"stateMutability":"payable"},{"type":"event","name":"EpochAdvanced","inputs":[{"name":"questionId","type":"bytes32","indexed":true,"internalType":"bytes32"},{"name":"previousEpoch","type":"uint256","indexed":false,"internalType":"uint256"},{"name":"newEpoch","type":"uint256","indexed":false,"internalType":"uint256"}],"anonymous":false},{"type":"event","name":"Initialized","inputs":[{"name":"version","type":"uint64","indexed":false,"internalType":"uint64"}],"anonymous":false},{"type":"event","name":"MarketCreated","inputs":[{"name":"questionId","type":"bytes32","indexed":true,"internalType":"bytes32"},{"name":"outcomeCount","type":"uint256","indexed":false,"internalType":"uint256"},{"name":"initialEpoch","type":"uint256","indexed":false,"internalType":"uint256"},{"name":"resolutionTime","type":"uint256","indexed":false,"internalType":"uint256"}],"anonymous":false},{"type":"event","name":"OwnershipTransferred","inputs":[{"name":"previousOwner","type":"address","indexed":true,"internalType":"address"},{"name":"newOwner","type":"address","indexed":true,"internalType":"address"}],"anonymous":false},{"type":"event","name":"ResolutionTimeUpdated","inputs":[{"name":"questionId","type":"bytes32","indexed":true,"internalType":"bytes32"},{"name":"oldResolutionTime","type":"uint256","indexed":false,"internalType":"uint256"},{"name":"newResolutionTime","type":"uint256","indexed":false,"internalType":"uint256"}],"anonymous":false},{"type":"event","name":"Upgraded","inputs":[{"name":"implementation","type":"address","indexed":true,"internalType":"address"}],"anonymous":false},{"type":"error","name":"AddressEmptyCode","inputs":[{"name":"target","type":"address","internalType":"address"}]},{"type":"error","name":"ERC1967InvalidImplementation","inputs":[{"name":"implementation","type":"address","internalType":"address"}]},{"type":"error","name":"ERC1967NonPayable","inputs":[]},{"type":"error","name":"FailedInnerCall","inputs":[]},{"type":"error","name":"InvalidInitialization","inputs":[]},{"type":"error","name":"NotInitializing","inputs":[]},{"type":"error","name":"OwnableInvalidOwner","inputs":[{"name":"owner","type":"address","internalType":"address"}]},{"type":"error","name":"OwnableUnauthorizedAccount","inputs":[{"name":"account","type":"address","internalType":"address"}]},{"type":"error","name":"UUPSUnauthorizedCallContext","inputs":[]},{"type":"error","name":"UUPSUnsupportedProxiableUUID","inputs":[{"name":"slot","type":"bytes32","internalType":"bytes32"}]}],"bytecode":{"object":"0x60a080604052346100e857306080527ff0c57e16840df040f15088dc2f81fe391c3923bec73e23a9662efc9c229c6a005460ff8160401c166100d9576002600160401b03196001600160401b03821601610073575b60405161117b90816100ed823960805181818161062101526106f10152f35b6001600160401b0319166001600160401b039081177ff0c57e16840df040f15088dc2f81fe391c3923bec73e23a9662efc9c229c6a005581527fc7f505b2f371ae2175ee4913f4499e1f2633a7b5936321eed1cdaeb6115181d290602090a15f80610054565b63f92ee8a960e01b5f5260045ffd5b5f80fdfe60806040526004361015610011575f80fd5b5f3560e01c806304609bc814610bdd5780631a918e2214610bb35780633808f4df14610a9a578063415a9a15146108c457806348df3192146108a65780634f1ef2861461067557806352d1902d1461060f578063612935c8146105725780636f79301d1461054857806370fa3fbe14610519578063715018a6146104b257806388ffaade146104895780638da5cb5b146104555780639e990b441461043c578063ad3cb1cc146103de578063b5330b8b1461034e578063c4d66de8146101fe578063d45aa959146101d6578063d9a392dc146101ac578063e5619d1a14610193578063e9aa81b91461016b578063f2fde38b146101405763fee4656614610116575f80fd5b3461013c57602036600319011261013c576020610134600435610fcb565b604051908152f35b5f80fd5b3461013c57602036600319011261013c5761016961015c610c6c565b610164611029565b610f5a565b005b3461013c575f36600319011261013c576005546040516001600160a01b039091168152602090f35b3461013c5760206101346101a636610cd4565b90610f1d565b3461013c57602036600319011261013c576004355f526006602052602060405f2054604051908152f35b3461013c57602036600319011261013c5760206101f4600435610ee7565b6040519015158152f35b3461013c57602036600319011261013c57610217610c6c565b5f805160206111268339815191525460ff8160401c16159167ffffffffffffffff821680159081610346575b600114908161033c575b159081610333575b506103245767ffffffffffffffff1982166001175f805160206111268339815191525561029391836102f8575b5061028b61105c565b61016461105c565b61029b61105c565b6102a157005b68ff0000000000000000195f8051602061112683398151915254165f80516020611126833981519152557fc7f505b2f371ae2175ee4913f4499e1f2633a7b5936321eed1cdaeb6115181d2602060405160018152a1005b68ffffffffffffffffff191668010000000000000001175f805160206111268339815191525583610282565b63f92ee8a960e01b5f5260045ffd5b90501584610255565b303b15915061024d565b849150610243565b3461013c57602036600319011261013c57610367610c6c565b61036f611029565b6001600160a01b0316801561039a576bffffffffffffffffffffffff60a01b60055416176005555f80f35b606460405162461bcd60e51b815260206004820152602060248201527f496e76616c6964204d61726b6574436f6e74726f6c6c657220616464726573736044820152fd5b3461013c575f36600319011261013c5760408051906103fd8183610c82565b600582526020820191640352e302e360dc1b83528151928391602083525180918160208501528484015e5f828201840152601f01601f19168101030190f35b3461013c57602061013461044f36610cd4565b90610e8f565b3461013c575f36600319011261013c575f805160206110e6833981519152546040516001600160a01b039091168152602090f35b3461013c57602036600319011261013c576004355f525f602052602060405f2054604051908152f35b3461013c575f36600319011261013c576104ca611029565b5f805160206110e683398151915280546001600160a01b031981169091555f906001600160a01b03167f8be0079c531659141344cd1fd0a4f28419497f9722a3daafe3b4186f6b6457e08280a3005b3461013c57602036600319011261013c576004355f526002602052602060ff60405f2054166040519015158152f35b3461013c57602036600319011261013c576004355f526004602052602060405f2054604051908152f35b3461013c5760407f09a0972b85d6d1235af05d10ebd83844e440c9e6965b5d5c9727a09adf4640cf6105a336610cd4565b6105bb60018060a09694961b03600554163314610d36565b835f5260026020526105d260ff835f205416610d97565b806105ff575b835f526003602052815f205490845f52600360205280835f205582519182526020820152a2005b61060a428211610de8565b6105d8565b3461013c575f36600319011261013c577f00000000000000000000000000000000000000000000000000000000000000006001600160a01b031630036106665760206040515f805160206111068339815191528152f35b63703e46dd60e11b5f5260045ffd5b604036600319011261013c57610689610c6c565b6024359067ffffffffffffffff821161013c573660238301121561013c578160040135906106b682610cb8565b916106c46040519384610c82565b8083526020830193366024838301011161013c57815f926024602093018737840101526001600160a01b037f000000000000000000000000000000000000000000000000000000000000000016308114908115610884575b5061066657610729611029565b6040516352d1902d60e01b81526001600160a01b0382169390602081600481885afa5f9181610850575b5061076b5784634c9c8ce360e01b5f5260045260245ffd5b805f8051602061110683398151915286920361083e5750823b1561082c575f8051602061110683398151915280546001600160a01b031916821790557fbc7cd75a20ee27fd9adebab32041f755214dbc6bffa90cc0225b39da2e5c2d3b5f80a2825115610813575f8091610169945190845af43d1561080b573d916107ef83610cb8565b926107fd6040519485610c82565b83523d5f602085013e611087565b606091611087565b5050503461081d57005b63b398979f60e01b5f5260045ffd5b634c9c8ce360e01b5f5260045260245ffd5b632a87526960e21b5f5260045260245ffd5b9091506020813d60201161087c575b8161086c60209383610c82565b8101031261013c57519086610753565b3d915061085f565b5f80516020611106833981519152546001600160a01b0316141590508461071c565b3461013c57602036600319011261013c5760206101f4600435610e42565b3461013c57608036600319011261013c5760043560243560443590606435906108f860018060a01b03600554163314610d36565b8315610a5f576001811115610a1a57610915610100821115610cea565b835f52600260205260ff60405f2054166109dd57826060927f1501c13c931259f9e484dc1b60b9653733a4360d900e8db22604a98e5ee97fe3946109cd575b5f86815260208181526040808320869055600180835281842081905560028352818420805460ff191690911790556003825280832085905560048252808320429055600690915290208190556109ba575b604051918252600160208301526040820152a2005b845f5260076020524260405f20556109a5565b6109d8428311610de8565b610954565b60405162461bcd60e51b81526020600482015260156024820152744d61726b657420616c72656164792065786973747360581b6044820152606490fd5b60405162461bcd60e51b815260206004820152601d60248201527f4d7573742068617665206174206c656173742032206f7574636f6d65730000006044820152606490fd5b60405162461bcd60e51b8152602060048201526013602482015272125b9d985b1a59081c5d595cdd1a5bdb881251606a1b6044820152606490fd5b3461013c57602036600319011261013c57600435610ac360018060a01b03600554163314610d36565b805f526002602052610adb60ff60405f205416610d97565b805f52600660205260405f2054610b5c57805f52600160205260405f205460018101808211610b48575f8381526001602090815260409182902083905581519384528301919091527f6e5dd77404b43217ac445148f0522768fa8f19ab82b5db219c0bb39d323ecd3491a2005b634e487b7160e01b5f52601160045260245ffd5b60405162461bcd60e51b815260206004820152602960248201527f43616e6e6f74206d616e75616c6c7920616476616e63652074696d652d62617360448201526865642065706f63687360b81b6064820152608490fd5b3461013c57602036600319011261013c576004355f526003602052602060405f2054604051908152f35b3461013c57608036600319011261013c576020610bf8610c6c565b602435604435606435610c0f610100831115610cea565b80610c665750610c1e82610fcb565b905b60405192858401946bffffffffffffffffffffffff199060601b16855260348401526054830152607482015260748152610c5b609482610c82565b519020604051908152f35b90610c20565b600435906001600160a01b038216820361013c57565b90601f8019910116810190811067ffffffffffffffff821117610ca457604052565b634e487b7160e01b5f52604160045260245ffd5b67ffffffffffffffff8111610ca457601f01601f191660200190565b604090600319011261013c576004359060243590565b15610cf157565b60405162461bcd60e51b815260206004820152601e60248201527f4d6178696d756d20323536206f7574636f6d657320737570706f7274656400006044820152606490fd5b15610d3d57565b60405162461bcd60e51b815260206004820152602c60248201527f4f6e6c79204d61726b6574436f6e74726f6c6c65722063616e2063616c6c207460448201526b3434b990333ab731ba34b7b760a11b6064820152608490fd5b15610d9e57565b60405162461bcd60e51b815260206004820152601560248201527413585c9ad95d08191bd95cc81b9bdd08195e1a5cdd605a1b6044820152606490fd5b91908201809211610b4857565b15610def57565b60405162461bcd60e51b815260206004820152602560248201527f5265736f6c7574696f6e2074696d65206d75737420626520696e207468652066604482015264757475726560d81b6064820152608490fd5b805f52600260205260ff60405f20541615610e77575f52600360205260405f20548015908115610e70575090565b9050421090565b505f90565b81810292918115918404141715610b4857565b805f52600660205260405f20549081158015610edf575b610ed8575f52600760205260405f2054905f198301928311610b4857610ed592610ecf91610e7c565b90610ddb565b90565b5050505f90565b508215610ea6565b805f52600260205260ff60405f20541615610e77575f52600360205260405f20548015908115610f15575090565b905042101590565b805f52600660205260405f20549081158015610f52575b610ed857610ed592610ecf915f52600760205260405f205492610e7c565b508215610f34565b6001600160a01b03168015610fb8575f805160206110e683398151915280546001600160a01b0319811683179091556001600160a01b03167f8be0079c531659141344cd1fd0a4f28419497f9722a3daafe3b4186f6b6457e05f80a3565b631e4fbdf760e01b5f525f60045260245ffd5b805f52600260205260ff60405f20541615610e7757805f52600660205260405f2054908115611018575f52600760205260405f20544203428111610b48570460010180600111610b485790565b90505f52600160205260405f205490565b5f805160206110e6833981519152546001600160a01b0316330361104957565b63118cdaa760e01b5f523360045260245ffd5b60ff5f805160206111268339815191525460401c161561107857565b631afcd79f60e31b5f5260045ffd5b906110ab575080511561109c57805190602001fd5b630a12f52160e11b5f5260045ffd5b815115806110dc575b6110bc575090565b639996b31560e01b5f9081526001600160a01b0391909116600452602490fd5b50803b156110b456fe9016d09d72d40fdae2fd8ceac6b6234c7706214fd39c1cd1e609a0528c199300360894a13ba1a3210667c828492db98dca3e2076cc3735a920a3ca505d382bbcf0c57e16840df040f15088dc2f81fe391c3923bec73e23a9662efc9c229c6a00a2646970667358221220adce89e004648632dfa761ffef769081f4d42130bd869f05e47d40b4778ec96664736f6c634300081a0033","linkReferences":{}},"methodIdentifiers":{"UPGRADE_INTERFACE_VERSION()":"ad3cb1cc","advanceEpoch(bytes32)":"3808f4df","createMarket(bytes32,uint256,uint256,uint256)":"415a9a15","getConditionId(address,bytes32,uint256,uint256)":"04609bc8","getCreationTime(bytes32)":"6f79301d","getCurrentEpoch(bytes32)":"fee46566","getEpochDuration(bytes32)":"d9a392dc","getEpochEndTime(bytes32,uint256)":"e5619d1a","getEpochStartTime(bytes32,uint256)":"9e990b44","getMarketExists(bytes32)":"70fa3fbe","getOutcomeCount(bytes32)":"88ffaade","getResolutionTime(bytes32)":"1a918e22","initialize(address)":"c4d66de8","isMarketOpen(bytes32)":"48df3192","isMarketReadyForResolution(bytes32)":"d45aa959","marketController()":"e9aa81b9","owner()":"8da5cb5b","proxiableUUID()":"52d1902d","renounceOwnership()":"715018a6","setMarketController(address)":"b5330b8b","transferOwnership(address)":"f2fde38b","updateResolutionTime(bytes32,uint256)":"612935c8","upgradeToAndCall(address,bytes)":"4f1ef286"},"id":67}