{"abi":[{"type":"constructor","inputs":[{"name":"_usdc","type":"address","internalType":"address"},{"name":"_superDCATrade","type":"address","internalType":"address"},{"name":"_admin","type":"address","internalType":"address"},{"name":"_cashbackClaim","type":"tuple","internalType":"struct SuperDCACashback.CashbackClaim","components":[{"name":"cashbackBips","type":"uint256","internalType":"uint256"},{"name":"duration","type":"uint256","internalType":"uint256"},{"name":"minRate","type":"int96","internalType":"int96"},{"name":"maxRate","type":"uint256","internalType":"uint256"},{"name":"startTime","type":"uint256","internalType":"uint256"},{"name":"timestamp","type":"uint256","internalType":"uint256"}]}],"stateMutability":"nonpayable"},{"type":"function","name":"ADMIN_ROLE","inputs":[],"outputs":[{"name":"","type":"bytes32","internalType":"bytes32"}],"stateMutability":"view"},{"type":"function","name":"DEFAULT_ADMIN_ROLE","inputs":[],"outputs":[{"name":"","type":"bytes32","internalType":"bytes32"}],"stateMutability":"view"},{"type":"function","name":"SUPER_DCA_TRADE","inputs":[],"outputs":[{"name":"","type":"address","internalType":"contract ISuperDCATrade"}],"stateMutability":"view"},{"type":"function","name":"USDC","inputs":[],"outputs":[{"name":"","type":"address","internalType":"contract IERC20"}],"stateMutability":"view"},{"type":"function","name":"cashbackClaim","inputs":[],"outputs":[{"name":"cashbackBips","type":"uint256","internalType":"uint256"},{"name":"duration","type":"uint256","internalType":"uint256"},{"name":"minRate","type":"int96","internalType":"int96"},{"name":"maxRate","type":"uint256","internalType":"uint256"},{"name":"startTime","type":"uint256","internalType":"uint256"},{"name":"timestamp","type":"uint256","internalType":"uint256"}],"stateMutability":"view"},{"type":"function","name":"claimAllCashback","inputs":[{"name":"tradeId","type":"uint256","internalType":"uint256"}],"outputs":[{"name":"totalCashback","type":"uint256","internalType":"uint256"}],"stateMutability":"nonpayable"},{"type":"function","name":"claimedAmounts","inputs":[{"name":"tradeId","type":"uint256","internalType":"uint256"}],"outputs":[{"name":"claimedAmount","type":"uint256","internalType":"uint256"}],"stateMutability":"view"},{"type":"function","name":"getCashbackClaim","inputs":[],"outputs":[{"name":"claim","type":"tuple","internalType":"struct SuperDCACashback.CashbackClaim","components":[{"name":"cashbackBips","type":"uint256","internalType":"uint256"},{"name":"duration","type":"uint256","internalType":"uint256"},{"name":"minRate","type":"int96","internalType":"int96"},{"name":"maxRate","type":"uint256","internalType":"uint256"},{"name":"startTime","type":"uint256","internalType":"uint256"},{"name":"timestamp","type":"uint256","internalType":"uint256"}]}],"stateMutability":"view"},{"type":"function","name":"getRoleAdmin","inputs":[{"name":"role","type":"bytes32","internalType":"bytes32"}],"outputs":[{"name":"","type":"bytes32","internalType":"bytes32"}],"stateMutability":"view"},{"type":"function","name":"getTradeStatus","inputs":[{"name":"tradeId","type":"uint256","internalType":"uint256"}],"outputs":[{"name":"claimable","type":"uint256","internalType":"uint256"},{"name":"pending","type":"uint256","internalType":"uint256"},{"name":"claimed","type":"uint256","internalType":"uint256"}],"stateMutability":"view"},{"type":"function","name":"grantRole","inputs":[{"name":"role","type":"bytes32","internalType":"bytes32"},{"name":"account","type":"address","internalType":"address"}],"outputs":[],"stateMutability":"nonpayable"},{"type":"function","name":"hasRole","inputs":[{"name":"role","type":"bytes32","internalType":"bytes32"},{"name":"account","type":"address","internalType":"address"}],"outputs":[{"name":"","type":"bool","internalType":"bool"}],"stateMutability":"view"},{"type":"function","name":"renounceRole","inputs":[{"name":"role","type":"bytes32","internalType":"bytes32"},{"name":"callerConfirmation","type":"address","internalType":"address"}],"outputs":[],"stateMutability":"nonpayable"},{"type":"function","name":"revokeRole","inputs":[{"name":"role","type":"bytes32","internalType":"bytes32"},{"name":"account","type":"address","internalType":"address"}],"outputs":[],"stateMutability":"nonpayable"},{"type":"function","name":"supportsInterface","inputs":[{"name":"interfaceId","type":"bytes4","internalType":"bytes4"}],"outputs":[{"name":"","type":"bool","internalType":"bool"}],"stateMutability":"view"},{"type":"function","name":"withdrawTokens","inputs":[{"name":"token","type":"address","internalType":"address"},{"name":"to","type":"address","internalType":"address"},{"name":"amount","type":"uint256","internalType":"uint256"}],"outputs":[],"stateMutability":"nonpayable"},{"type":"event","name":"CashbackClaimed","inputs":[{"name":"user","type":"address","indexed":true,"internalType":"address"},{"name":"tradeId","type":"uint256","indexed":true,"internalType":"uint256"},{"name":"amount","type":"uint256","indexed":false,"internalType":"uint256"}],"anonymous":false},{"type":"event","name":"RoleAdminChanged","inputs":[{"name":"role","type":"bytes32","indexed":true,"internalType":"bytes32"},{"name":"previousAdminRole","type":"bytes32","indexed":true,"internalType":"bytes32"},{"name":"newAdminRole","type":"bytes32","indexed":true,"internalType":"bytes32"}],"anonymous":false},{"type":"event","name":"RoleGranted","inputs":[{"name":"role","type":"bytes32","indexed":true,"internalType":"bytes32"},{"name":"account","type":"address","indexed":true,"internalType":"address"},{"name":"sender","type":"address","indexed":true,"internalType":"address"}],"anonymous":false},{"type":"event","name":"RoleRevoked","inputs":[{"name":"role","type":"bytes32","indexed":true,"internalType":"bytes32"},{"name":"account","type":"address","indexed":true,"internalType":"address"},{"name":"sender","type":"address","indexed":true,"internalType":"address"}],"anonymous":false},{"type":"event","name":"TokensWithdrawn","inputs":[{"name":"token","type":"address","indexed":true,"internalType":"address"},{"name":"to","type":"address","indexed":true,"internalType":"address"},{"name":"amount","type":"uint256","indexed":false,"internalType":"uint256"}],"anonymous":false},{"type":"error","name":"AccessControlBadConfirmation","inputs":[]},{"type":"error","name":"AccessControlUnauthorizedAccount","inputs":[{"name":"account","type":"address","internalType":"address"},{"name":"neededRole","type":"bytes32","internalType":"bytes32"}]},{"type":"error","name":"InvalidParams","inputs":[{"name":"paramIndex","type":"uint256","internalType":"uint256"}]},{"type":"error","name":"NotAuthorized","inputs":[]},{"type":"error","name":"NotClaimable","inputs":[]},{"type":"error","name":"SafeERC20FailedOperation","inputs":[{"name":"token","type":"address","internalType":"address"}]}],"bytecode":{"object":"0x60c060405234801561000f575f5ffd5b506040516116cc3803806116cc83398101604081905261002e9161024d565b80516127101015610059576040516325e7c6d960e01b81525f60048201526024015b60405180910390fd5b606081015160016001605f1b031015610088576040516325e7c6d960e01b815260026004820152602401610050565b8060600151600b0b8160400151600b0b126100b9576040516325e7c6d960e01b815260026004820152602401610050565b80602001515f036100e0576040516325e7c6d960e01b815260016004820152602401610050565b6001600160a01b03848116608090815290841660a052815160015560208201516002556040820151600380546001600160601b0319166001600160601b039092169190911790556060820151600455810151600555426006556101435f83610178565b5061016e7fa49807205ce4d355092ef5a8a18f56e8913cf4a201fbe287825b095693c2177583610178565b5050505050610319565b5f828152602081815260408083206001600160a01b038516845290915281205460ff16610218575f838152602081815260408083206001600160a01b03861684529091529020805460ff191660011790556101d03390565b6001600160a01b0316826001600160a01b0316847f2f8788117e7eff1d82e926ec794901d17c78024a50270940304540a733656f0d60405160405180910390a450600161021b565b505f5b92915050565b80516001600160a01b0381168114610237575f5ffd5b919050565b8051600b81900b8114610237575f5ffd5b5f5f5f5f848603610120811215610262575f5ffd5b61026b86610221565b945061027960208701610221565b935061028760408701610221565b925060c0605f198201121561029a575f5ffd5b5060405160c081016001600160401b03811182821017156102c957634e487b7160e01b5f52604160045260245ffd5b60405260608601518152608086015160208201526102e960a0870161023c565b604082015260c0860151606082015260e086015160808201526101009095015160a0860152509194909350909190565b60805160a0516113766103565f395f818161010301528181610475015281816108400152610a4d01525f8181610273015261060301526113765ff3fe608060405234801561000f575f5ffd5b50600436106100fa575f3560e01c80637d41293811610093578063a217fddf11610063578063a217fddf146102f7578063b36e88ba146102fe578063bd0e50cd1461032c578063d547741f14610382575f5ffd5b80637d4129381461021757806389a302711461026e57806391d14854146102955780639f666d84146102d8575f5ffd5b80632f2ff15d116100ce5780632f2ff15d146101b557806336568abe146101ca5780635e35359e146101dd57806375b238fc146101f0575f5ffd5b806220a051146100fe57806301ffc9a71461014f57806311083aed14610172578063248a9ca314610193575b5f5ffd5b6101257f000000000000000000000000000000000000000000000000000000000000000081565b60405173ffffffffffffffffffffffffffffffffffffffff90911681526020015b60405180910390f35b61016261015d3660046110bb565b610395565b6040519015158152602001610146565b6101856101803660046110fa565b61042d565b604051908152602001610146565b6101856101a13660046110fa565b5f9081526020819052604090206001015490565b6101c86101c3366004611132565b610669565b005b6101c86101d8366004611132565b610693565b6101c86101eb366004611160565b6106f1565b6101857fa49807205ce4d355092ef5a8a18f56e8913cf4a201fbe287825b095693c2177581565b600154600254600354600454600554600654610238959493600b0b92919086565b604080519687526020870195909552600b9390930b938501939093526060840152608083019190915260a082015260c001610146565b6101257f000000000000000000000000000000000000000000000000000000000000000081565b6101626102a3366004611132565b5f9182526020828152604080842073ffffffffffffffffffffffffffffffffffffffff93909316845291905290205460ff1690565b6101856102e63660046110fa565b60076020525f908152604090205481565b6101855f81565b61031161030c3660046110fa565b61083a565b60408051938452602084019290925290820152606001610146565b610334610982565b60405161014691905f60c08201905082518252602083015160208301526040830151600b0b6040830152606083015160608301526080830151608083015260a083015160a083015292915050565b6101c8610390366004611132565b6109f8565b5f7fffffffff0000000000000000000000000000000000000000000000000000000082167f7965db0b00000000000000000000000000000000000000000000000000000000148061042757507f01ffc9a7000000000000000000000000000000000000000000000000000000007fffffffff000000000000000000000000000000000000000000000000000000008316145b92915050565b6040517f1e6c598e000000000000000000000000000000000000000000000000000000008152600481018290525f90819073ffffffffffffffffffffffffffffffffffffffff7f00000000000000000000000000000000000000000000000000000000000000001690631e6c598e9060240161010060405180830381865afa1580156104bb573d5f5f3e3d5ffd5b505050506040513d601f19601f820116820180604052508101906104df91906111af565b905080602001515f0361051e576040517f6247a84e00000000000000000000000000000000000000000000000000000000815260040160405180910390fd5b5f61052884610a1c565b905073ffffffffffffffffffffffffffffffffffffffff81163314610579576040517fea8e4eb500000000000000000000000000000000000000000000000000000000815260040160405180910390fd5b5f6105848584610b1e565b50509050805f036105c1576040517f6247a84e00000000000000000000000000000000000000000000000000000000815260040160405180910390fd5b5f858152600760205260408120805492955085928392906105e3908490611295565b9091555061062a905073ffffffffffffffffffffffffffffffffffffffff7f0000000000000000000000000000000000000000000000000000000000000000163386610bc4565b604051848152859033907feece0a451ab4d83403a36799a81bd22d548e7d908e1c8ab24b2e0b0d9e30fec79060200160405180910390a3505050919050565b5f8281526020819052604090206001015461068381610c51565b61068d8383610c5e565b50505050565b73ffffffffffffffffffffffffffffffffffffffff811633146106e2576040517f6697b23200000000000000000000000000000000000000000000000000000000815260040160405180910390fd5b6106ec8282610d57565b505050565b7fa49807205ce4d355092ef5a8a18f56e8913cf4a201fbe287825b095693c2177561071b81610c51565b73ffffffffffffffffffffffffffffffffffffffff8316610770576040517f25e7c6d9000000000000000000000000000000000000000000000000000000008152600160048201526024015b60405180910390fd5b815f036107ac576040517f25e7c6d900000000000000000000000000000000000000000000000000000000815260026004820152602401610767565b6107cd73ffffffffffffffffffffffffffffffffffffffff85168484610bc4565b8273ffffffffffffffffffffffffffffffffffffffff168473ffffffffffffffffffffffffffffffffffffffff167f6337ed398c0e8467698c581374fdce4db14922df487b5a39483079f5f59b60a48460405161082c91815260200190565b60405180910390a350505050565b5f5f5f5f7f000000000000000000000000000000000000000000000000000000000000000073ffffffffffffffffffffffffffffffffffffffff16631e6c598e866040518263ffffffff1660e01b815260040161089991815260200190565b61010060405180830381865afa1580156108b5573d5f5f3e3d5ffd5b505050506040513d601f19601f820116820180604052508101906108d991906111af565b90506108e481610e10565b6108f7575f5f5f9350935093505061097b565b5f8581526007602052604081205492508061091183610e36565b91509150815f148015610922575080155b15610935575f5f9550955050505061097b565b5f6109438460600151610e8c565b90505f610951858386610ea4565b9050858111156109685761096586826112a8565b97505b610973858385610f52565b965050505050505b9193909250565b6109b86040518060c001604052805f81526020015f81526020015f600b0b81526020015f81526020015f81526020015f81525090565b506040805160c08101825260015481526002546020820152600354600b0b918101919091526004546060820152600554608082015260065460a082015290565b5f82815260208190526040902060010154610a1281610c51565b61068d8383610d57565b6040517f6352211e000000000000000000000000000000000000000000000000000000008152600481018290525f907f000000000000000000000000000000000000000000000000000000000000000073ffffffffffffffffffffffffffffffffffffffff1690636352211e90602401602060405180830381865afa925050508015610ae3575060408051601f3d9081017fffffffffffffffffffffffffffffffffffffffffffffffffffffffffffffffe0168201909252610ae0918101906112bb565b60015b610427576040517fea8e4eb500000000000000000000000000000000000000000000000000000000815260040160405180910390fd5b919050565b5f5f5f610b2a84610e10565b610b3b57505f915081905080610bbd565b505f848152600760205260408120549080610b5586610e36565b91509150815f148015610b66575080155b15610b78575f5f945094505050610bbd565b5f610b868760600151610e8c565b90505f610b94888386610ea4565b905084811115610bab57610ba885826112a8565b96505b610bb6888385610f52565b9550505050505b9250925092565b6040805173ffffffffffffffffffffffffffffffffffffffff8416602482015260448082018490528251808303909101815260649091019091526020810180517bffffffffffffffffffffffffffffffffffffffffffffffffffffffff167fa9059cbb000000000000000000000000000000000000000000000000000000001790526106ec908490610f83565b610c5b8133611022565b50565b5f8281526020818152604080832073ffffffffffffffffffffffffffffffffffffffff8516845290915281205460ff16610d50575f8381526020818152604080832073ffffffffffffffffffffffffffffffffffffffff86168452909152902080547fffffffffffffffffffffffffffffffffffffffffffffffffffffffffffffff00166001179055610cee3390565b73ffffffffffffffffffffffffffffffffffffffff168273ffffffffffffffffffffffffffffffffffffffff16847f2f8788117e7eff1d82e926ec794901d17c78024a50270940304540a733656f0d60405160405180910390a4506001610427565b505f610427565b5f8281526020818152604080832073ffffffffffffffffffffffffffffffffffffffff8516845290915281205460ff1615610d50575f8381526020818152604080832073ffffffffffffffffffffffffffffffffffffffff8616808552925280832080547fffffffffffffffffffffffffffffffffffffffffffffffffffffffffffffff0016905551339286917ff6391f5c32d9c69d2a47ea670b442974b53935d1edc7fd64eb21e047a839171b9190a4506001610427565b5f5f826020015111801561042757506003546060830151600b91820b910b121592915050565b5f5f5f42905083602001518111610e5257505f93849350915050565b5f846020015182610e6391906112a8565b600254909150610e739082611303565b600254909450610e839082611316565b92505050915091565b600454600b82900b90811115610b1957505060045490565b5f815f03610eb357505f610f4b565b604084015115610ef5575f84602001518560400151610ed291906112a8565b6002549091505f90610ee49083611303565b905083811015610ef2578093505b50505b815f03610f0357505f610f4b565b6002545f908390610f149086611329565b610f1e9190611329565b60015490915061271090610f329083611329565b610f3c9190611303565b9150610f47826110ab565b9150505b9392505050565b5f83604001515f1480610f685750428460400151115b8015610f7357505f82115b15610f4b575f610f1e8385611329565b5f5f60205f8451602086015f885af180610fa2576040513d5f823e3d81fd5b50505f513d91508115610fb9578060011415610fd3565b73ffffffffffffffffffffffffffffffffffffffff84163b155b1561068d576040517f5274afe700000000000000000000000000000000000000000000000000000000815273ffffffffffffffffffffffffffffffffffffffff85166004820152602401610767565b5f8281526020818152604080832073ffffffffffffffffffffffffffffffffffffffff8516845290915290205460ff166110a7576040517fe2517d3f00000000000000000000000000000000000000000000000000000000815273ffffffffffffffffffffffffffffffffffffffff8216600482015260248101839052604401610767565b5050565b5f61042764e8d4a5100083611303565b5f602082840312156110cb575f5ffd5b81357fffffffff0000000000000000000000000000000000000000000000000000000081168114610f4b575f5ffd5b5f6020828403121561110a575f5ffd5b5035919050565b73ffffffffffffffffffffffffffffffffffffffff81168114610c5b575f5ffd5b5f5f60408385031215611143575f5ffd5b82359150602083013561115581611111565b809150509250929050565b5f5f5f60608486031215611172575f5ffd5b833561117d81611111565b9250602084013561118d81611111565b929592945050506040919091013590565b8051600b81900b8114610b19575f5ffd5b5f6101008284031280156111c1575f5ffd5b50604051610100810167ffffffffffffffff8111828210171561120b577f4e487b71000000000000000000000000000000000000000000000000000000005f52604160045260245ffd5b6040908152835182526020808501519083015283810151908201526112326060840161119e565b60608201526080838101519082015260a0808401519082015260c0808401519082015260e0928301519281019290925250919050565b7f4e487b71000000000000000000000000000000000000000000000000000000005f52601160045260245ffd5b8082018082111561042757610427611268565b8181038181111561042757610427611268565b5f602082840312156112cb575f5ffd5b8151610f4b81611111565b7f4e487b71000000000000000000000000000000000000000000000000000000005f52601260045260245ffd5b5f82611311576113116112d6565b500490565b5f82611324576113246112d6565b500690565b80820281158282048414176104275761042761126856fea26469706673582212207998fb10ae34386d5c5f3b4646c5ad6a5233ce857159b1784ccd99af331278e464736f6c634300081d0033","linkReferences":{}},"methodIdentifiers":{"ADMIN_ROLE()":"75b238fc","DEFAULT_ADMIN_ROLE()":"a217fddf","SUPER_DCA_TRADE()":"0020a051","USDC()":"89a30271","cashbackClaim()":"7d412938","claimAllCashback(uint256)":"11083aed","claimedAmounts(uint256)":"9f666d84","getCashbackClaim()":"bd0e50cd","getRoleAdmin(bytes32)":"248a9ca3","getTradeStatus(uint256)":"b36e88ba","grantRole(bytes32,address)":"2f2ff15d","hasRole(bytes32,address)":"91d14854","renounceRole(bytes32,address)":"36568abe","revokeRole(bytes32,address)":"d547741f","supportsInterface(bytes4)":"01ffc9a7","withdrawTokens(address,address,uint256)":"5e35359e"},"id":48}