{"abi":[{"type":"constructor","inputs":[{"name":"_superDCAToken","type":"address","internalType":"address"},{"name":"_poolManager","type":"address","internalType":"contract IPoolManager"},{"name":"_positionManagerV4","type":"address","internalType":"contract IPositionManager"},{"name":"_admin","type":"address","internalType":"address"},{"name":"_expectedHooks","type":"address","internalType":"contract IHooks"}],"stateMutability":"nonpayable"},{"type":"function","name":"POOL_MANAGER","inputs":[],"outputs":[{"name":"","type":"address","internalType":"contract IPoolManager"}],"stateMutability":"view"},{"type":"function","name":"POSITION_MANAGER_V4","inputs":[],"outputs":[{"name":"","type":"address","internalType":"contract IPositionManager"}],"stateMutability":"view"},{"type":"function","name":"SUPER_DCA_TOKEN","inputs":[],"outputs":[{"name":"","type":"address","internalType":"address"}],"stateMutability":"view"},{"type":"function","name":"acceptOwnership","inputs":[],"outputs":[],"stateMutability":"nonpayable"},{"type":"function","name":"collectFees","inputs":[{"name":"nfpId","type":"uint256","internalType":"uint256"},{"name":"recipient","type":"address","internalType":"address"}],"outputs":[],"stateMutability":"nonpayable"},{"type":"function","name":"expectedHooks","inputs":[],"outputs":[{"name":"","type":"address","internalType":"contract IHooks"}],"stateMutability":"view"},{"type":"function","name":"isTokenListed","inputs":[{"name":"token","type":"address","internalType":"address"}],"outputs":[{"name":"listed","type":"bool","internalType":"bool"}],"stateMutability":"view"},{"type":"function","name":"list","inputs":[{"name":"nftId","type":"uint256","internalType":"uint256"},{"name":"providedKey","type":"tuple","internalType":"struct PoolKey","components":[{"name":"currency0","type":"address","internalType":"Currency"},{"name":"currency1","type":"address","internalType":"Currency"},{"name":"fee","type":"uint24","internalType":"uint24"},{"name":"tickSpacing","type":"int24","internalType":"int24"},{"name":"hooks","type":"address","internalType":"contract IHooks"}]}],"outputs":[],"stateMutability":"nonpayable"},{"type":"function","name":"minLiquidity","inputs":[],"outputs":[{"name":"","type":"uint256","internalType":"uint256"}],"stateMutability":"view"},{"type":"function","name":"owner","inputs":[],"outputs":[{"name":"","type":"address","internalType":"address"}],"stateMutability":"view"},{"type":"function","name":"pendingOwner","inputs":[],"outputs":[{"name":"","type":"address","internalType":"address"}],"stateMutability":"view"},{"type":"function","name":"renounceOwnership","inputs":[],"outputs":[],"stateMutability":"nonpayable"},{"type":"function","name":"setHookAddress","inputs":[{"name":"_newHook","type":"address","internalType":"contract IHooks"}],"outputs":[],"stateMutability":"nonpayable"},{"type":"function","name":"setMinimumLiquidity","inputs":[{"name":"_minLiquidity","type":"uint256","internalType":"uint256"}],"outputs":[],"stateMutability":"nonpayable"},{"type":"function","name":"tokenOfNfp","inputs":[{"name":"nfpId","type":"uint256","internalType":"uint256"}],"outputs":[{"name":"token","type":"address","internalType":"address"}],"stateMutability":"view"},{"type":"function","name":"transferOwnership","inputs":[{"name":"newOwner","type":"address","internalType":"address"}],"outputs":[],"stateMutability":"nonpayable"},{"type":"event","name":"FeesCollected","inputs":[{"name":"recipient","type":"address","indexed":true,"internalType":"address"},{"name":"token0","type":"address","indexed":true,"internalType":"address"},{"name":"token1","type":"address","indexed":true,"internalType":"address"},{"name":"amount0","type":"uint256","indexed":false,"internalType":"uint256"},{"name":"amount1","type":"uint256","indexed":false,"internalType":"uint256"}],"anonymous":false},{"type":"event","name":"HookAddressSet","inputs":[{"name":"oldHook","type":"address","indexed":true,"internalType":"address"},{"name":"newHook","type":"address","indexed":true,"internalType":"address"}],"anonymous":false},{"type":"event","name":"MinimumLiquidityUpdated","inputs":[{"name":"oldMin","type":"uint256","indexed":false,"internalType":"uint256"},{"name":"newMin","type":"uint256","indexed":false,"internalType":"uint256"}],"anonymous":false},{"type":"event","name":"OwnershipTransferStarted","inputs":[{"name":"previousOwner","type":"address","indexed":true,"internalType":"address"},{"name":"newOwner","type":"address","indexed":true,"internalType":"address"}],"anonymous":false},{"type":"event","name":"OwnershipTransferred","inputs":[{"name":"previousOwner","type":"address","indexed":true,"internalType":"address"},{"name":"newOwner","type":"address","indexed":true,"internalType":"address"}],"anonymous":false},{"type":"event","name":"TokenListed","inputs":[{"name":"token","type":"address","indexed":true,"internalType":"address"},{"name":"nftId","type":"uint256","indexed":true,"internalType":"uint256"},{"name":"key","type":"tuple","indexed":false,"internalType":"struct PoolKey","components":[{"name":"currency0","type":"address","internalType":"Currency"},{"name":"currency1","type":"address","internalType":"Currency"},{"name":"fee","type":"uint24","internalType":"uint24"},{"name":"tickSpacing","type":"int24","internalType":"int24"},{"name":"hooks","type":"address","internalType":"contract IHooks"}]}],"anonymous":false},{"type":"error","name":"OwnableInvalidOwner","inputs":[{"name":"owner","type":"address","internalType":"address"}]},{"type":"error","name":"OwnableUnauthorizedAccount","inputs":[{"name":"account","type":"address","internalType":"address"}]},{"type":"error","name":"SuperDCAListing__IncorrectHookAddress","inputs":[]},{"type":"error","name":"SuperDCAListing__InvalidAddress","inputs":[]},{"type":"error","name":"SuperDCAListing__LowLiquidity","inputs":[]},{"type":"error","name":"SuperDCAListing__MismatchedPoolKey","inputs":[]},{"type":"error","name":"SuperDCAListing__NotFullRangePosition","inputs":[]},{"type":"error","name":"SuperDCAListing__TokenAlreadyListed","inputs":[]},{"type":"error","name":"SuperDCAListing__UniswapTokenNotSet","inputs":[]},{"type":"error","name":"SuperDCAListing__ZeroAddress","inputs":[]}],"bytecode":{"object":"0x60e0604052683635c9adc5dea0000060035534801561001c575f80fd5b50604051613046380380613046833981810160405281019061003e9190610410565b815f73ffffffffffffffffffffffffffffffffffffffff168173ffffffffffffffffffffffffffffffffffffffff16036100af575f6040517f1e4fbdf70000000000000000000000000000000000000000000000000000000081526004016100a69190610496565b60405180910390fd5b6100be8161020a60201b60201c565b505f73ffffffffffffffffffffffffffffffffffffffff168573ffffffffffffffffffffffffffffffffffffffff1603610124576040517fba0c1ac200000000000000000000000000000000000000000000000000000000815260040160405180910390fd5b8473ffffffffffffffffffffffffffffffffffffffff1660c08173ffffffffffffffffffffffffffffffffffffffff16815250508373ffffffffffffffffffffffffffffffffffffffff1660808173ffffffffffffffffffffffffffffffffffffffff16815250508273ffffffffffffffffffffffffffffffffffffffff1660a08173ffffffffffffffffffffffffffffffffffffffff16815250508060025f6101000a81548173ffffffffffffffffffffffffffffffffffffffff021916908373ffffffffffffffffffffffffffffffffffffffff16021790555050505050506104af565b60015f6101000a81549073ffffffffffffffffffffffffffffffffffffffff021916905561023d8161024060201b60201c565b50565b5f805f9054906101000a900473ffffffffffffffffffffffffffffffffffffffff169050815f806101000a81548173ffffffffffffffffffffffffffffffffffffffff021916908373ffffffffffffffffffffffffffffffffffffffff1602179055508173ffffffffffffffffffffffffffffffffffffffff168173ffffffffffffffffffffffffffffffffffffffff167f8be0079c531659141344cd1fd0a4f28419497f9722a3daafe3b4186f6b6457e060405160405180910390a35050565b5f80fd5b5f73ffffffffffffffffffffffffffffffffffffffff82169050919050565b5f61032e82610305565b9050919050565b61033e81610324565b8114610348575f80fd5b50565b5f8151905061035981610335565b92915050565b5f61036982610324565b9050919050565b6103798161035f565b8114610383575f80fd5b50565b5f8151905061039481610370565b92915050565b5f6103a482610324565b9050919050565b6103b48161039a565b81146103be575f80fd5b50565b5f815190506103cf816103ab565b92915050565b5f6103df82610324565b9050919050565b6103ef816103d5565b81146103f9575f80fd5b50565b5f8151905061040a816103e6565b92915050565b5f805f805f60a0868803121561042957610428610301565b5b5f6104368882890161034b565b955050602061044788828901610386565b9450506040610458888289016103c1565b93505060606104698882890161034b565b925050608061047a888289016103fc565b9150509295509295909350565b61049081610324565b82525050565b5f6020820190506104a95f830184610487565b92915050565b60805160a05160c051612b356105115f395f81816102d60152610f9a01525f81816104e4015281816107a4015281816109ef01528181610b4201528181610dcf01528181610eec015261117201525f8181610a1301526114e80152612b355ff3fe608060405234801561000f575f80fd5b50600436106100fe575f3560e01c80636905028c116100955780638da5cb5b116100645780638da5cb5b1461024c578063e30c39781461026a578063e69ec65314610288578063f2fde38b146102b8576100fe565b80636905028c146101ec578063715018a61461021c57806379ba50971461022657806383f1a99114610230576100fe565b806345863322116100d1578063458633221461017857806351f3b4bd146101945780635246a591146101b057806362308e85146101ce576100fe565b8063126a8024146101025780631aeffea914610120578063252cf2d21461013e578063282567b41461015c575b5f80fd5b61010a6102d4565b6040516101179190611de8565b60405180910390f35b6101286102f8565b6040516101359190611e5c565b60405180910390f35b61014661031d565b6040516101539190611e8d565b60405180910390f35b61017660048036038101906101719190611edd565b610323565b005b610192600480360381019061018d9190611f43565b610375565b005b6101ae60048036038101906101a99190611f98565b61043b565b005b6101b86109ed565b6040516101c59190611ff6565b60405180910390f35b6101d6610a11565b6040516101e3919061202f565b60405180910390f35b61020660048036038101906102019190611edd565b610a35565b6040516102139190611de8565b60405180910390f35b610224610a65565b005b61022e610a78565b005b61024a6004803603810190610245919061206a565b610b06565b005b61025461127e565b6040516102619190611de8565b60405180910390f35b6102726112a5565b60405161027f9190611de8565b60405180910390f35b6102a2600480360381019061029d91906120a8565b6112cd565b6040516102af91906120ed565b60405180910390f35b6102d260048036038101906102cd91906120a8565b6112ea565b005b7f000000000000000000000000000000000000000000000000000000000000000081565b60025f9054906101000a900473ffffffffffffffffffffffffffffffffffffffff1681565b60035481565b61032b611396565b5f6003549050816003819055507fd18c85fe8a5776467c327fa33312c6113129233ddb47deabaa91b8396b8158798183604051610369929190612106565b60405180910390a15050565b61037d611396565b8073ffffffffffffffffffffffffffffffffffffffff1660025f9054906101000a900473ffffffffffffffffffffffffffffffffffffffff1673ffffffffffffffffffffffffffffffffffffffff167f7606bd4a057092573eb59005c3ee8b72a9939ed0f677304d644b87d3bcb1c33e60405160405180910390a38060025f6101000a81548173ffffffffffffffffffffffffffffffffffffffff021916908373ffffffffffffffffffffffffffffffffffffffff16021790555050565b610443611396565b5f820361047c576040517f325e582700000000000000000000000000000000000000000000000000000000815260040160405180910390fd5b5f73ffffffffffffffffffffffffffffffffffffffff168173ffffffffffffffffffffffffffffffffffffffff16036104e1576040517f7efc4d2000000000000000000000000000000000000000000000000000000000815260040160405180910390fd5b5f7f000000000000000000000000000000000000000000000000000000000000000073ffffffffffffffffffffffffffffffffffffffff16637ba03aad846040518263ffffffff1660e01b815260040161053b9190611e8d565b60c060405180830381865afa158015610556573d5f803e3d5ffd5b505050506040513d601f19601f8201168201806040525081019061057a9190612318565b5090505f815f015190505f826020015190505f8273ffffffffffffffffffffffffffffffffffffffff166370a08231866040518263ffffffff1660e01b81526004016105c69190611de8565b602060405180830381865afa1580156105e1573d5f803e3d5ffd5b505050506040513d601f19601f82011682018060405250810190610605919061236a565b90505f8273ffffffffffffffffffffffffffffffffffffffff166370a08231876040518263ffffffff1660e01b81526004016106419190611de8565b602060405180830381865afa15801561065c573d5f803e3d5ffd5b505050506040513d601f19601f82011682018060405250810190610680919061236a565b90505f600160116040516020016106989291906123d5565b60405160208183030381529060405290505f600267ffffffffffffffff8111156106c5576106c4612141565b5b6040519080825280602002602001820160405280156106f857816020015b60608152602001906001900390816106e35790505b509050885f805f60405180602001604052805f81525060405160200161072295949392919061248a565b604051602081830303815290604052815f81518110610744576107436124e2565b5b60200260200101819052508585896040516020016107649392919061252f565b60405160208183030381529060405281600181518110610787576107866124e2565b5b60200260200101819052505f603c426107a09190612591565b90507f000000000000000000000000000000000000000000000000000000000000000073ffffffffffffffffffffffffffffffffffffffff1663dd46508f84846040516020016107f19291906126c7565b604051602081830303815290604052836040518363ffffffff1660e01b815260040161081e9291906126fc565b5f604051808303815f87803b158015610835575f80fd5b505af1158015610847573d5f803e3d5ffd5b505050505f8773ffffffffffffffffffffffffffffffffffffffff166370a082318b6040518263ffffffff1660e01b81526004016108859190611de8565b602060405180830381865afa1580156108a0573d5f803e3d5ffd5b505050506040513d601f19601f820116820180604052508101906108c4919061236a565b90505f8773ffffffffffffffffffffffffffffffffffffffff166370a082318c6040518263ffffffff1660e01b81526004016109009190611de8565b602060405180830381865afa15801561091b573d5f803e3d5ffd5b505050506040513d601f19601f8201168201806040525081019061093f919061236a565b90505f878361094e919061272a565b90505f878361095d919061272a565b90508973ffffffffffffffffffffffffffffffffffffffff168b73ffffffffffffffffffffffffffffffffffffffff168e73ffffffffffffffffffffffffffffffffffffffff167f572f183ae7932bec57f7cba7466e8531bc5f455f1df21554b0b1a1c2d0ff48f385856040516109d5929190612106565b60405180910390a45050505050505050505050505050565b7f000000000000000000000000000000000000000000000000000000000000000081565b7f000000000000000000000000000000000000000000000000000000000000000081565b6005602052805f5260405f205f915054906101000a900473ffffffffffffffffffffffffffffffffffffffff1681565b610a6d611396565b610a765f61141d565b565b5f610a8161144d565b90508073ffffffffffffffffffffffffffffffffffffffff16610aa26112a5565b73ffffffffffffffffffffffffffffffffffffffff1614610afa57806040517f118cdaa7000000000000000000000000000000000000000000000000000000008152600401610af19190611de8565b60405180910390fd5b610b038161141d565b50565b5f8203610b3f576040517f325e582700000000000000000000000000000000000000000000000000000000815260040160405180910390fd5b5f7f000000000000000000000000000000000000000000000000000000000000000073ffffffffffffffffffffffffffffffffffffffff16637ba03aad846040518263ffffffff1660e01b8152600401610b999190611e8d565b60c060405180830381865afa158015610bb4573d5f803e3d5ffd5b505050506040513d601f19601f82011682018060405250810190610bd89190612318565b509050815f016020810190610bed9190612771565b73ffffffffffffffffffffffffffffffffffffffff16815f015173ffffffffffffffffffffffffffffffffffffffff16141580610c6c5750816020016020810190610c389190612771565b73ffffffffffffffffffffffffffffffffffffffff16816020015173ffffffffffffffffffffffffffffffffffffffff1614155b80610c975750816040016020810190610c8591906127b0565b62ffffff16816040015162ffffff1614155b80610cbe5750816060016020810190610cb091906127ef565b60020b816060015160020b14155b80610d0b5750816080016020810190610cd79190611f43565b73ffffffffffffffffffffffffffffffffffffffff16816080015173ffffffffffffffffffffffffffffffffffffffff1614155b15610d42576040517fd9d12f8700000000000000000000000000000000000000000000000000000000815260040160405180910390fd5b60025f9054906101000a900473ffffffffffffffffffffffffffffffffffffffff1673ffffffffffffffffffffffffffffffffffffffff16816080015173ffffffffffffffffffffffffffffffffffffffff1614610dcc576040517fb99fee9300000000000000000000000000000000000000000000000000000000815260040160405180910390fd5b5f7f000000000000000000000000000000000000000000000000000000000000000073ffffffffffffffffffffffffffffffffffffffff166389097a6a856040518263ffffffff1660e01b8152600401610e269190611e8d565b602060405180830381865afa158015610e41573d5f803e3d5ffd5b505050506040513d601f19601f82011682018060405250810190610e65919061281a565b90505f610e7182611454565b90505f610e7d83611463565b9050610e8c8460600151611472565b60020b8260020b141580610eb25750610ea884606001516114b3565b60020b8160020b14155b15610ee9576040517f82bf81ee00000000000000000000000000000000000000000000000000000000815260040160405180910390fd5b5f7f000000000000000000000000000000000000000000000000000000000000000073ffffffffffffffffffffffffffffffffffffffff16631efeed33886040518263ffffffff1660e01b8152600401610f439190611e8d565b602060405180830381865afa158015610f5e573d5f803e3d5ffd5b505050506040513d601f19601f82011682018060405250810190610f82919061286f565b90505f80610f92878686866114d7565b915091505f807f000000000000000000000000000000000000000000000000000000000000000073ffffffffffffffffffffffffffffffffffffffff16895f015173ffffffffffffffffffffffffffffffffffffffff1603610ffd5788602001519150839050611007565b885f015191508290505b60045f8373ffffffffffffffffffffffffffffffffffffffff1673ffffffffffffffffffffffffffffffffffffffff1681526020019081526020015f205f9054906101000a900460ff1615611088576040517fe9184aec00000000000000000000000000000000000000000000000000000000815260040160405180910390fd5b6003548110156110c4576040517fe3790cbd00000000000000000000000000000000000000000000000000000000815260040160405180910390fd5b600160045f8473ffffffffffffffffffffffffffffffffffffffff1673ffffffffffffffffffffffffffffffffffffffff1681526020019081526020015f205f6101000a81548160ff0219169083151502179055508160055f8d81526020019081526020015f205f6101000a81548173ffffffffffffffffffffffffffffffffffffffff021916908373ffffffffffffffffffffffffffffffffffffffff16021790555050505050505050507f000000000000000000000000000000000000000000000000000000000000000073ffffffffffffffffffffffffffffffffffffffff166323b872dd3330866040518463ffffffff1660e01b81526004016111cd9392919061289a565b5f604051808303815f87803b1580156111e4575f80fd5b505af11580156111f6573d5f803e3d5ffd5b505050508260055f8581526020019081526020015f205f9054906101000a900473ffffffffffffffffffffffffffffffffffffffff1673ffffffffffffffffffffffffffffffffffffffff167f42e9c725c052ee6448302c3f7f2f1b4c0549a31e6555c62a9f489f32ebc4e776836040516112719190612971565b60405180910390a3505050565b5f805f9054906101000a900473ffffffffffffffffffffffffffffffffffffffff16905090565b5f60015f9054906101000a900473ffffffffffffffffffffffffffffffffffffffff16905090565b6004602052805f5260405f205f915054906101000a900460ff1681565b6112f2611396565b8060015f6101000a81548173ffffffffffffffffffffffffffffffffffffffff021916908373ffffffffffffffffffffffffffffffffffffffff1602179055508073ffffffffffffffffffffffffffffffffffffffff1661135161127e565b73ffffffffffffffffffffffffffffffffffffffff167f38d16b8cac22d99fc7c124b9cd0de2d3fa1faef420bfe791d8c362d765e2270060405160405180910390a350565b61139e61144d565b73ffffffffffffffffffffffffffffffffffffffff166113bc61127e565b73ffffffffffffffffffffffffffffffffffffffff161461141b576113df61144d565b6040517f118cdaa70000000000000000000000000000000000000000000000000000000081526004016114129190611de8565b60405180910390fd5b565b60015f6101000a81549073ffffffffffffffffffffffffffffffffffffffff021916905561144a81611564565b50565b5f33905090565b5f8160081c60020b9050919050565b5f8160201c60020b9050919050565b5f818260020b7ffffffffffffffffffffffffffffffffffffffffffffffffffffffffffff2761860020b816114aa576114a961298a565b5b05029050919050565b5f818260020b620d89e860020b816114ce576114cd61298a565b5b05029050919050565b5f805f61152b6114e688611625565b7f000000000000000000000000000000000000000000000000000000000000000073ffffffffffffffffffffffffffffffffffffffff1661163190919063ffffffff16565b50505090505f61153a876116ff565b90505f611546876116ff565b905061155483838389611a59565b9450945050505094509492505050565b5f805f9054906101000a900473ffffffffffffffffffffffffffffffffffffffff169050815f806101000a81548173ffffffffffffffffffffffffffffffffffffffff021916908373ffffffffffffffffffffffffffffffffffffffff1602179055508173ffffffffffffffffffffffffffffffffffffffff168173ffffffffffffffffffffffffffffffffffffffff167f8be0079c531659141344cd1fd0a4f28419497f9722a3daafe3b4186f6b6457e060405160405180910390a35050565b5f60a082209050919050565b5f805f805f61163f86611b4a565b90505f8773ffffffffffffffffffffffffffffffffffffffff16631e2eaeaf836040518263ffffffff1660e01b815260040161167b91906129cf565b602060405180830381865afa158015611696573d5f803e3d5ffd5b505050506040513d601f19601f820116820180604052508101906116ba9190612a12565b905073ffffffffffffffffffffffffffffffffffffffff811695508060a01c60020b945062ffffff8160b81c16935062ffffff8160d01c169250505092959194509250565b5f808260020b92508260ff1d8381018118915050620d89e860020b81111561175b5761175a83638b86327a60e01b7bffffffffffffffffffffffffffffffffffffffffffffffffffffffff1916611b7e90919063ffffffff16565b5b5f600182166ffffcb933bd6fad37aa2d162d1a594001600160801b1802600160801b1890505f60028316146117a45760806ffff97272373d413259a46990580e213a8202901c90505b5f60048316146117c85760806ffff2e50f5f656932ef12357cf3c7fdcc8202901c90505b5f60088316146117ec5760806fffe5caca7e10e4e61c3624eaa0941cd08202901c90505b5f60108316146118105760806fffcb9843d60f6159c9db58835c9266448202901c90505b5f60208316146118345760806fff973b41fa98c081472e6896dfb254c08202901c90505b5f60408316146118585760806fff2ea16466c96a3843ec78b326b528618202901c90505b5f608083161461187c5760806ffe5dee046a99a2a811c461f1969c30538202901c90505b5f6101008316146118a15760806ffcbe86c7900a88aedcffc83b479aa3a48202901c90505b5f6102008316146118c65760806ff987a7253ac413176f2b074cf7815e548202901c90505b5f6104008316146118eb5760806ff3392b0822b70005940c7a398e4b70f38202901c90505b5f6108008316146119105760806fe7159475a2c29b7443b29c7fa6e889d98202901c90505b5f6110008316146119355760806fd097f3bdfd2022b8845ad8f792aa58258202901c90505b5f61200083161461195a5760806fa9f746462d870fdf8a65dc1f90e061e58202901c90505b5f61400083161461197f5760806f70d869a156d2a1b890bb3df62baf32f78202901c90505b5f6180008316146119a45760806f31be135f97d08fd981231505542fcfa68202901c90505b5f620100008316146119ca5760806f09aa508b5b7a84e1c677de54f3e99bc98202901c90505b5f620200008316146119ef5760806e5d6af8dedb81196699c329225ee6048202901c90505b5f62040000831614611a135760806d2216e584f5fa1ea926041bedfe988202901c90505b5f62080000831614611a355760806b048a170391f7dc42444e8fa28202901c90505b5f841315611a4457805f190490505b60018060201b03810160201c92505050919050565b5f808373ffffffffffffffffffffffffffffffffffffffff168573ffffffffffffffffffffffffffffffffffffffff161115611a9a57838580955081965050505b8473ffffffffffffffffffffffffffffffffffffffff168673ffffffffffffffffffffffffffffffffffffffff1611611adf57611ad8858585611b8d565b9150611b41565b8373ffffffffffffffffffffffffffffffffffffffff168673ffffffffffffffffffffffffffffffffffffffff161015611b3257611b1e868585611b8d565b9150611b2b858785611c52565b9050611b40565b611b3d858585611c52565b90505b5b94509492505050565b5f8160065f1b604051602001611b61929190612a5d565b604051602081830303815290604052805190602001209050919050565b815f528060020b60045260245ffd5b5f8273ffffffffffffffffffffffffffffffffffffffff168473ffffffffffffffffffffffffffffffffffffffff161115611bcd57828480945081955050505b8373ffffffffffffffffffffffffffffffffffffffff16611c3f606060ff16846fffffffffffffffffffffffffffffffff16901b8686611c0d9190612a88565b73ffffffffffffffffffffffffffffffffffffffff168673ffffffffffffffffffffffffffffffffffffffff16611ce6565b611c499190612acf565b90509392505050565b5f8273ffffffffffffffffffffffffffffffffffffffff168473ffffffffffffffffffffffffffffffffffffffff161115611c9257828480945081955050505b611cdd826fffffffffffffffffffffffffffffffff168585611cb49190612a88565b73ffffffffffffffffffffffffffffffffffffffff166c01000000000000000000000000611ce6565b90509392505050565b5f8083850290505f801985870982811083820303915050808411611d08575f80fd5b5f8103611d1b5783820492505050611da2565b5f8486880990508281118203915080830392505f85865f0316905080860495508084049350600181825f0304019050808302841793505f600287600302189050808702600203810290508087026002038102905080870260020381029050808702600203810290508087026002038102905080870260020381029050808502955050505050505b9392505050565b5f73ffffffffffffffffffffffffffffffffffffffff82169050919050565b5f611dd282611da9565b9050919050565b611de281611dc8565b82525050565b5f602082019050611dfb5f830184611dd9565b92915050565b5f819050919050565b5f611e24611e1f611e1a84611da9565b611e01565b611da9565b9050919050565b5f611e3582611e0a565b9050919050565b5f611e4682611e2b565b9050919050565b611e5681611e3c565b82525050565b5f602082019050611e6f5f830184611e4d565b92915050565b5f819050919050565b611e8781611e75565b82525050565b5f602082019050611ea05f830184611e7e565b92915050565b5f604051905090565b5f80fd5b611ebc81611e75565b8114611ec6575f80fd5b50565b5f81359050611ed781611eb3565b92915050565b5f60208284031215611ef257611ef1611eaf565b5b5f611eff84828501611ec9565b91505092915050565b5f611f1282611dc8565b9050919050565b611f2281611f08565b8114611f2c575f80fd5b50565b5f81359050611f3d81611f19565b92915050565b5f60208284031215611f5857611f57611eaf565b5b5f611f6584828501611f2f565b91505092915050565b611f7781611dc8565b8114611f81575f80fd5b50565b5f81359050611f9281611f6e565b92915050565b5f8060408385031215611fae57611fad611eaf565b5b5f611fbb85828601611ec9565b9250506020611fcc85828601611f84565b9150509250929050565b5f611fe082611e2b565b9050919050565b611ff081611fd6565b82525050565b5f6020820190506120095f830184611fe7565b92915050565b5f61201982611e2b565b9050919050565b6120298161200f565b82525050565b5f6020820190506120425f830184612020565b92915050565b5f80fd5b5f60a0828403121561206157612060612048565b5b81905092915050565b5f8060c083850312156120805761207f611eaf565b5b5f61208d85828601611ec9565b925050602061209e8582860161204c565b9150509250929050565b5f602082840312156120bd576120bc611eaf565b5b5f6120ca84828501611f84565b91505092915050565b5f8115159050919050565b6120e7816120d3565b82525050565b5f6020820190506121005f8301846120de565b92915050565b5f6040820190506121195f830185611e7e565b6121266020830184611e7e565b9392505050565b5f80fd5b5f601f19601f8301169050919050565b7f4e487b71000000000000000000000000000000000000000000000000000000005f52604160045260245ffd5b61217782612131565b810181811067ffffffffffffffff8211171561219657612195612141565b5b80604052505050565b5f6121a8611ea6565b90506121b4828261216e565b919050565b6121c281611dc8565b81146121cc575f80fd5b50565b5f815190506121dd816121b9565b92915050565b5f62ffffff82169050919050565b6121fa816121e3565b8114612204575f80fd5b50565b5f81519050612215816121f1565b92915050565b5f8160020b9050919050565b6122308161221b565b811461223a575f80fd5b50565b5f8151905061224b81612227565b92915050565b5f8151905061225f81611f19565b92915050565b5f60a0828403121561227a5761227961212d565b5b61228460a061219f565b90505f612293848285016121cf565b5f8301525060206122a6848285016121cf565b60208301525060406122ba84828501612207565b60408301525060606122ce8482850161223d565b60608301525060806122e284828501612251565b60808301525092915050565b6122f781611e75565b8114612301575f80fd5b50565b5f81519050612312816122ee565b92915050565b5f8060c0838503121561232e5761232d611eaf565b5b5f61233b85828601612265565b92505060a061234c85828601612304565b9150509250929050565b5f8151905061236481611eb3565b92915050565b5f6020828403121561237f5761237e611eaf565b5b5f61238c84828501612356565b91505092915050565b5f60ff82169050919050565b5f8160f81b9050919050565b5f6123b7826123a1565b9050919050565b6123cf6123ca82612395565b6123ad565b82525050565b5f6123e082856123be565b6001820191506123f082846123be565b6001820191508190509392505050565b5f6fffffffffffffffffffffffffffffffff82169050919050565b61242481612400565b82525050565b5f81519050919050565b5f82825260208201905092915050565b8281835e5f83830152505050565b5f61245c8261242a565b6124668185612434565b9350612476818560208601612444565b61247f81612131565b840191505092915050565b5f60a08201905061249d5f830188611e7e565b6124aa6020830187611e7e565b6124b7604083018661241b565b6124c4606083018561241b565b81810360808301526124d68184612452565b90509695505050505050565b7f4e487b71000000000000000000000000000000000000000000000000000000005f52603260045260245ffd5b5f61251982611e2b565b9050919050565b6125298161250f565b82525050565b5f6060820190506125425f830186612520565b61254f6020830185612520565b61255c6040830184611dd9565b949350505050565b7f4e487b71000000000000000000000000000000000000000000000000000000005f52601160045260245ffd5b5f61259b82611e75565b91506125a683611e75565b92508282019050808211156125be576125bd612564565b5b92915050565b5f81519050919050565b5f82825260208201905092915050565b5f819050602082019050919050565b5f82825260208201905092915050565b5f6126078261242a565b61261181856125ed565b9350612621818560208601612444565b61262a81612131565b840191505092915050565b5f61264083836125fd565b905092915050565b5f602082019050919050565b5f61265e826125c4565b61266881856125ce565b93508360208202850161267a856125de565b805f5b858110156126b557848403895281516126968582612635565b94506126a183612648565b925060208a0199505060018101905061267d565b50829750879550505050505092915050565b5f6040820190508181035f8301526126df8185612452565b905081810360208301526126f38184612654565b90509392505050565b5f6040820190508181035f8301526127148185612452565b90506127236020830184611e7e565b9392505050565b5f61273482611e75565b915061273f83611e75565b925082820390508181111561275757612756612564565b5b92915050565b5f8135905061276b816121b9565b92915050565b5f6020828403121561278657612785611eaf565b5b5f6127938482850161275d565b91505092915050565b5f813590506127aa816121f1565b92915050565b5f602082840312156127c5576127c4611eaf565b5b5f6127d28482850161279c565b91505092915050565b5f813590506127e981612227565b92915050565b5f6020828403121561280457612803611eaf565b5b5f612811848285016127db565b91505092915050565b5f6020828403121561282f5761282e611eaf565b5b5f61283c84828501612304565b91505092915050565b61284e81612400565b8114612858575f80fd5b50565b5f8151905061286981612845565b92915050565b5f6020828403121561288457612883611eaf565b5b5f6128918482850161285b565b91505092915050565b5f6060820190506128ad5f830186611dd9565b6128ba6020830185611dd9565b6128c76040830184611e7e565b949350505050565b6128d88161250f565b82525050565b6128e7816121e3565b82525050565b6128f68161221b565b82525050565b61290581611e3c565b82525050565b60a082015f82015161291f5f8501826128cf565b50602082015161293260208501826128cf565b50604082015161294560408501826128de565b50606082015161295860608501826128ed565b50608082015161296b60808501826128fc565b50505050565b5f60a0820190506129845f83018461290b565b92915050565b7f4e487b71000000000000000000000000000000000000000000000000000000005f52601260045260245ffd5b5f819050919050565b6129c9816129b7565b82525050565b5f6020820190506129e25f8301846129c0565b92915050565b6129f1816129b7565b81146129fb575f80fd5b50565b5f81519050612a0c816129e8565b92915050565b5f60208284031215612a2757612a26611eaf565b5b5f612a34848285016129fe565b91505092915050565b5f819050919050565b612a57612a52826129b7565b612a3d565b82525050565b5f612a688285612a46565b602082019150612a788284612a46565b6020820191508190509392505050565b5f612a9282611da9565b9150612a9d83611da9565b9250828203905073ffffffffffffffffffffffffffffffffffffffff811115612ac957612ac8612564565b5b92915050565b5f612ad982611e75565b9150612ae483611e75565b925082612af457612af361298a565b5b82820490509291505056fea264697066735822122026a8a362917d5849af742bdd4070890c98b53f17ecd950683917fa3e9699607b64736f6c634300081a0033","linkReferences":{}},"methodIdentifiers":{"POOL_MANAGER()":"62308e85","POSITION_MANAGER_V4()":"5246a591","SUPER_DCA_TOKEN()":"126a8024","acceptOwnership()":"79ba5097","collectFees(uint256,address)":"51f3b4bd","expectedHooks()":"1aeffea9","isTokenListed(address)":"e69ec653","list(uint256,(address,address,uint24,int24,address))":"83f1a991","minLiquidity()":"252cf2d2","owner()":"8da5cb5b","pendingOwner()":"e30c3978","renounceOwnership()":"715018a6","setHookAddress(address)":"45863322","setMinimumLiquidity(uint256)":"282567b4","tokenOfNfp(uint256)":"6905028c","transferOwnership(address)":"f2fde38b"},"storageLayout":{"storage":[{"astId":39434,"contract":"src/SuperDCAListing.sol:SuperDCAListing","label":"_owner","offset":0,"slot":"0","type":"t_address"},{"astId":39582,"contract":"src/SuperDCAListing.sol:SuperDCAListing","label":"_pendingOwner","offset":0,"slot":"1","type":"t_address"},{"astId":72135,"contract":"src/SuperDCAListing.sol:SuperDCAListing","label":"expectedHooks","offset":0,"slot":"2","type":"t_contract(IHooks)52119"},{"astId":72143,"contract":"src/SuperDCAListing.sol:SuperDCAListing","label":"minLiquidity","offset":0,"slot":"3","type":"t_uint256"},{"astId":72149,"contract":"src/SuperDCAListing.sol:SuperDCAListing","label":"isTokenListed","offset":0,"slot":"4","type":"t_mapping(t_address,t_bool)"},{"astId":72155,"contract":"src/SuperDCAListing.sol:SuperDCAListing","label":"tokenOfNfp","offset":0,"slot":"5","type":"t_mapping(t_uint256,t_address)"}],"types":{"t_address":{"encoding":"inplace","label":"address","numberOfBytes":"20"},"t_bool":{"encoding":"inplace","label":"bool","numberOfBytes":"1"},"t_contract(IHooks)52119":{"encoding":"inplace","label":"contract IHooks","numberOfBytes":"20"},"t_mapping(t_address,t_bool)":{"encoding":"mapping","key":"t_address","label":"mapping(address => bool)","numberOfBytes":"32","value":"t_bool"},"t_mapping(t_uint256,t_address)":{"encoding":"mapping","key":"t_uint256","label":"mapping(uint256 => address)","numberOfBytes":"32","value":"t_address"},"t_uint256":{"encoding":"inplace","label":"uint256","numberOfBytes":"32"}}},"id":157}