{"abi":[{"type":"constructor","inputs":[{"name":"_poolManager","type":"address","internalType":"contract IPoolManager"},{"name":"_superDCAToken","type":"address","internalType":"address"},{"name":"_developerAddress","type":"address","internalType":"address"},{"name":"_positionManagerV4","type":"address","internalType":"contract IPositionManager"}],"stateMutability":"nonpayable"},{"type":"function","name":"DEFAULT_ADMIN_ROLE","inputs":[],"outputs":[{"name":"","type":"bytes32","internalType":"bytes32"}],"stateMutability":"view"},{"type":"function","name":"EXTERNAL_POOL_FEE","inputs":[],"outputs":[{"name":"","type":"uint24","internalType":"uint24"}],"stateMutability":"view"},{"type":"function","name":"INTERNAL_POOL_FEE","inputs":[],"outputs":[{"name":"","type":"uint24","internalType":"uint24"}],"stateMutability":"view"},{"type":"function","name":"KEEPER_POOL_FEE","inputs":[],"outputs":[{"name":"","type":"uint24","internalType":"uint24"}],"stateMutability":"view"},{"type":"function","name":"MANAGER_ROLE","inputs":[],"outputs":[{"name":"","type":"bytes32","internalType":"bytes32"}],"stateMutability":"view"},{"type":"function","name":"afterAddLiquidity","inputs":[{"name":"sender","type":"address","internalType":"address"},{"name":"key","type":"tuple","internalType":"struct PoolKey","components":[{"name":"currency0","type":"address","internalType":"Currency"},{"name":"currency1","type":"address","internalType":"Currency"},{"name":"fee","type":"uint24","internalType":"uint24"},{"name":"tickSpacing","type":"int24","internalType":"int24"},{"name":"hooks","type":"address","internalType":"contract IHooks"}]},{"name":"params","type":"tuple","internalType":"struct IPoolManager.ModifyLiquidityParams","components":[{"name":"tickLower","type":"int24","internalType":"int24"},{"name":"tickUpper","type":"int24","internalType":"int24"},{"name":"liquidityDelta","type":"int256","internalType":"int256"},{"name":"salt","type":"bytes32","internalType":"bytes32"}]},{"name":"delta","type":"int256","internalType":"BalanceDelta"},{"name":"feesAccrued","type":"int256","internalType":"BalanceDelta"},{"name":"hookData","type":"bytes","internalType":"bytes"}],"outputs":[{"name":"","type":"bytes4","internalType":"bytes4"},{"name":"","type":"int256","internalType":"BalanceDelta"}],"stateMutability":"nonpayable"},{"type":"function","name":"afterDonate","inputs":[{"name":"sender","type":"address","internalType":"address"},{"name":"key","type":"tuple","internalType":"struct PoolKey","components":[{"name":"currency0","type":"address","internalType":"Currency"},{"name":"currency1","type":"address","internalType":"Currency"},{"name":"fee","type":"uint24","internalType":"uint24"},{"name":"tickSpacing","type":"int24","internalType":"int24"},{"name":"hooks","type":"address","internalType":"contract IHooks"}]},{"name":"amount0","type":"uint256","internalType":"uint256"},{"name":"amount1","type":"uint256","internalType":"uint256"},{"name":"hookData","type":"bytes","internalType":"bytes"}],"outputs":[{"name":"","type":"bytes4","internalType":"bytes4"}],"stateMutability":"nonpayable"},{"type":"function","name":"afterInitialize","inputs":[{"name":"sender","type":"address","internalType":"address"},{"name":"key","type":"tuple","internalType":"struct PoolKey","components":[{"name":"currency0","type":"address","internalType":"Currency"},{"name":"currency1","type":"address","internalType":"Currency"},{"name":"fee","type":"uint24","internalType":"uint24"},{"name":"tickSpacing","type":"int24","internalType":"int24"},{"name":"hooks","type":"address","internalType":"contract IHooks"}]},{"name":"sqrtPriceX96","type":"uint160","internalType":"uint160"},{"name":"tick","type":"int24","internalType":"int24"}],"outputs":[{"name":"","type":"bytes4","internalType":"bytes4"}],"stateMutability":"nonpayable"},{"type":"function","name":"afterRemoveLiquidity","inputs":[{"name":"sender","type":"address","internalType":"address"},{"name":"key","type":"tuple","internalType":"struct PoolKey","components":[{"name":"currency0","type":"address","internalType":"Currency"},{"name":"currency1","type":"address","internalType":"Currency"},{"name":"fee","type":"uint24","internalType":"uint24"},{"name":"tickSpacing","type":"int24","internalType":"int24"},{"name":"hooks","type":"address","internalType":"contract IHooks"}]},{"name":"params","type":"tuple","internalType":"struct IPoolManager.ModifyLiquidityParams","components":[{"name":"tickLower","type":"int24","internalType":"int24"},{"name":"tickUpper","type":"int24","internalType":"int24"},{"name":"liquidityDelta","type":"int256","internalType":"int256"},{"name":"salt","type":"bytes32","internalType":"bytes32"}]},{"name":"delta","type":"int256","internalType":"BalanceDelta"},{"name":"feesAccrued","type":"int256","internalType":"BalanceDelta"},{"name":"hookData","type":"bytes","internalType":"bytes"}],"outputs":[{"name":"","type":"bytes4","internalType":"bytes4"},{"name":"","type":"int256","internalType":"BalanceDelta"}],"stateMutability":"nonpayable"},{"type":"function","name":"afterSwap","inputs":[{"name":"sender","type":"address","internalType":"address"},{"name":"key","type":"tuple","internalType":"struct PoolKey","components":[{"name":"currency0","type":"address","internalType":"Currency"},{"name":"currency1","type":"address","internalType":"Currency"},{"name":"fee","type":"uint24","internalType":"uint24"},{"name":"tickSpacing","type":"int24","internalType":"int24"},{"name":"hooks","type":"address","internalType":"contract IHooks"}]},{"name":"params","type":"tuple","internalType":"struct IPoolManager.SwapParams","components":[{"name":"zeroForOne","type":"bool","internalType":"bool"},{"name":"amountSpecified","type":"int256","internalType":"int256"},{"name":"sqrtPriceLimitX96","type":"uint160","internalType":"uint160"}]},{"name":"delta","type":"int256","internalType":"BalanceDelta"},{"name":"hookData","type":"bytes","internalType":"bytes"}],"outputs":[{"name":"","type":"bytes4","internalType":"bytes4"},{"name":"","type":"int128","internalType":"int128"}],"stateMutability":"nonpayable"},{"type":"function","name":"becomeKeeper","inputs":[{"name":"amount","type":"uint256","internalType":"uint256"}],"outputs":[],"stateMutability":"nonpayable"},{"type":"function","name":"beforeAddLiquidity","inputs":[{"name":"sender","type":"address","internalType":"address"},{"name":"key","type":"tuple","internalType":"struct PoolKey","components":[{"name":"currency0","type":"address","internalType":"Currency"},{"name":"currency1","type":"address","internalType":"Currency"},{"name":"fee","type":"uint24","internalType":"uint24"},{"name":"tickSpacing","type":"int24","internalType":"int24"},{"name":"hooks","type":"address","internalType":"contract IHooks"}]},{"name":"params","type":"tuple","internalType":"struct IPoolManager.ModifyLiquidityParams","components":[{"name":"tickLower","type":"int24","internalType":"int24"},{"name":"tickUpper","type":"int24","internalType":"int24"},{"name":"liquidityDelta","type":"int256","internalType":"int256"},{"name":"salt","type":"bytes32","internalType":"bytes32"}]},{"name":"hookData","type":"bytes","internalType":"bytes"}],"outputs":[{"name":"","type":"bytes4","internalType":"bytes4"}],"stateMutability":"nonpayable"},{"type":"function","name":"beforeDonate","inputs":[{"name":"sender","type":"address","internalType":"address"},{"name":"key","type":"tuple","internalType":"struct PoolKey","components":[{"name":"currency0","type":"address","internalType":"Currency"},{"name":"currency1","type":"address","internalType":"Currency"},{"name":"fee","type":"uint24","internalType":"uint24"},{"name":"tickSpacing","type":"int24","internalType":"int24"},{"name":"hooks","type":"address","internalType":"contract IHooks"}]},{"name":"amount0","type":"uint256","internalType":"uint256"},{"name":"amount1","type":"uint256","internalType":"uint256"},{"name":"hookData","type":"bytes","internalType":"bytes"}],"outputs":[{"name":"","type":"bytes4","internalType":"bytes4"}],"stateMutability":"nonpayable"},{"type":"function","name":"beforeInitialize","inputs":[{"name":"sender","type":"address","internalType":"address"},{"name":"key","type":"tuple","internalType":"struct PoolKey","components":[{"name":"currency0","type":"address","internalType":"Currency"},{"name":"currency1","type":"address","internalType":"Currency"},{"name":"fee","type":"uint24","internalType":"uint24"},{"name":"tickSpacing","type":"int24","internalType":"int24"},{"name":"hooks","type":"address","internalType":"contract IHooks"}]},{"name":"sqrtPriceX96","type":"uint160","internalType":"uint160"}],"outputs":[{"name":"","type":"bytes4","internalType":"bytes4"}],"stateMutability":"nonpayable"},{"type":"function","name":"beforeRemoveLiquidity","inputs":[{"name":"sender","type":"address","internalType":"address"},{"name":"key","type":"tuple","internalType":"struct PoolKey","components":[{"name":"currency0","type":"address","internalType":"Currency"},{"name":"currency1","type":"address","internalType":"Currency"},{"name":"fee","type":"uint24","internalType":"uint24"},{"name":"tickSpacing","type":"int24","internalType":"int24"},{"name":"hooks","type":"address","internalType":"contract IHooks"}]},{"name":"params","type":"tuple","internalType":"struct IPoolManager.ModifyLiquidityParams","components":[{"name":"tickLower","type":"int24","internalType":"int24"},{"name":"tickUpper","type":"int24","internalType":"int24"},{"name":"liquidityDelta","type":"int256","internalType":"int256"},{"name":"salt","type":"bytes32","internalType":"bytes32"}]},{"name":"hookData","type":"bytes","internalType":"bytes"}],"outputs":[{"name":"","type":"bytes4","internalType":"bytes4"}],"stateMutability":"nonpayable"},{"type":"function","name":"beforeSwap","inputs":[{"name":"sender","type":"address","internalType":"address"},{"name":"key","type":"tuple","internalType":"struct PoolKey","components":[{"name":"currency0","type":"address","internalType":"Currency"},{"name":"currency1","type":"address","internalType":"Currency"},{"name":"fee","type":"uint24","internalType":"uint24"},{"name":"tickSpacing","type":"int24","internalType":"int24"},{"name":"hooks","type":"address","internalType":"contract IHooks"}]},{"name":"params","type":"tuple","internalType":"struct IPoolManager.SwapParams","components":[{"name":"zeroForOne","type":"bool","internalType":"bool"},{"name":"amountSpecified","type":"int256","internalType":"int256"},{"name":"sqrtPriceLimitX96","type":"uint160","internalType":"uint160"}]},{"name":"hookData","type":"bytes","internalType":"bytes"}],"outputs":[{"name":"","type":"bytes4","internalType":"bytes4"},{"name":"","type":"int256","internalType":"BeforeSwapDelta"},{"name":"","type":"uint24","internalType":"uint24"}],"stateMutability":"nonpayable"},{"type":"function","name":"developerAddress","inputs":[],"outputs":[{"name":"","type":"address","internalType":"address"}],"stateMutability":"view"},{"type":"function","name":"externalFee","inputs":[],"outputs":[{"name":"","type":"uint24","internalType":"uint24"}],"stateMutability":"view"},{"type":"function","name":"getHookPermissions","inputs":[],"outputs":[{"name":"","type":"tuple","internalType":"struct Hooks.Permissions","components":[{"name":"beforeInitialize","type":"bool","internalType":"bool"},{"name":"afterInitialize","type":"bool","internalType":"bool"},{"name":"beforeAddLiquidity","type":"bool","internalType":"bool"},{"name":"afterAddLiquidity","type":"bool","internalType":"bool"},{"name":"beforeRemoveLiquidity","type":"bool","internalType":"bool"},{"name":"afterRemoveLiquidity","type":"bool","internalType":"bool"},{"name":"beforeSwap","type":"bool","internalType":"bool"},{"name":"afterSwap","type":"bool","internalType":"bool"},{"name":"beforeDonate","type":"bool","internalType":"bool"},{"name":"afterDonate","type":"bool","internalType":"bool"},{"name":"beforeSwapReturnDelta","type":"bool","internalType":"bool"},{"name":"afterSwapReturnDelta","type":"bool","internalType":"bool"},{"name":"afterAddLiquidityReturnDelta","type":"bool","internalType":"bool"},{"name":"afterRemoveLiquidityReturnDelta","type":"bool","internalType":"bool"}]}],"stateMutability":"pure"},{"type":"function","name":"getKeeperInfo","inputs":[],"outputs":[{"name":"currentKeeper","type":"address","internalType":"address"},{"name":"currentDeposit","type":"uint256","internalType":"uint256"}],"stateMutability":"view"},{"type":"function","name":"getRoleAdmin","inputs":[{"name":"role","type":"bytes32","internalType":"bytes32"}],"outputs":[{"name":"","type":"bytes32","internalType":"bytes32"}],"stateMutability":"view"},{"type":"function","name":"grantRole","inputs":[{"name":"role","type":"bytes32","internalType":"bytes32"},{"name":"account","type":"address","internalType":"address"}],"outputs":[],"stateMutability":"nonpayable"},{"type":"function","name":"hasRole","inputs":[{"name":"role","type":"bytes32","internalType":"bytes32"},{"name":"account","type":"address","internalType":"address"}],"outputs":[{"name":"","type":"bool","internalType":"bool"}],"stateMutability":"view"},{"type":"function","name":"internalFee","inputs":[],"outputs":[{"name":"","type":"uint24","internalType":"uint24"}],"stateMutability":"view"},{"type":"function","name":"isInternalAddress","inputs":[{"name":"","type":"address","internalType":"address"}],"outputs":[{"name":"","type":"bool","internalType":"bool"}],"stateMutability":"view"},{"type":"function","name":"isTokenListed","inputs":[{"name":"token","type":"address","internalType":"address"}],"outputs":[{"name":"","type":"bool","internalType":"bool"}],"stateMutability":"view"},{"type":"function","name":"keeper","inputs":[],"outputs":[{"name":"","type":"address","internalType":"address"}],"stateMutability":"view"},{"type":"function","name":"keeperDeposit","inputs":[],"outputs":[{"name":"","type":"uint256","internalType":"uint256"}],"stateMutability":"view"},{"type":"function","name":"keeperFee","inputs":[],"outputs":[{"name":"","type":"uint24","internalType":"uint24"}],"stateMutability":"view"},{"type":"function","name":"listing","inputs":[],"outputs":[{"name":"","type":"address","internalType":"contract ISuperDCAListing"}],"stateMutability":"view"},{"type":"function","name":"poolManager","inputs":[],"outputs":[{"name":"","type":"address","internalType":"contract IPoolManager"}],"stateMutability":"view"},{"type":"function","name":"positionManagerV4","inputs":[],"outputs":[{"name":"","type":"address","internalType":"contract IPositionManager"}],"stateMutability":"view"},{"type":"function","name":"renounceRole","inputs":[{"name":"role","type":"bytes32","internalType":"bytes32"},{"name":"callerConfirmation","type":"address","internalType":"address"}],"outputs":[],"stateMutability":"nonpayable"},{"type":"function","name":"returnSuperDCATokenOwnership","inputs":[],"outputs":[],"stateMutability":"nonpayable"},{"type":"function","name":"revokeRole","inputs":[{"name":"role","type":"bytes32","internalType":"bytes32"},{"name":"account","type":"address","internalType":"address"}],"outputs":[],"stateMutability":"nonpayable"},{"type":"function","name":"setFee","inputs":[{"name":"_feeType","type":"uint8","internalType":"enum SuperDCAGauge.FeeType"},{"name":"_newFee","type":"uint24","internalType":"uint24"}],"outputs":[],"stateMutability":"nonpayable"},{"type":"function","name":"setInternalAddress","inputs":[{"name":"_user","type":"address","internalType":"address"},{"name":"_isInternal","type":"bool","internalType":"bool"}],"outputs":[],"stateMutability":"nonpayable"},{"type":"function","name":"setListing","inputs":[{"name":"_listing","type":"address","internalType":"address"}],"outputs":[],"stateMutability":"nonpayable"},{"type":"function","name":"setStaking","inputs":[{"name":"stakingAddr","type":"address","internalType":"address"}],"outputs":[],"stateMutability":"nonpayable"},{"type":"function","name":"staking","inputs":[],"outputs":[{"name":"","type":"address","internalType":"contract ISuperDCAStaking"}],"stateMutability":"view"},{"type":"function","name":"superDCAToken","inputs":[],"outputs":[{"name":"","type":"address","internalType":"address"}],"stateMutability":"view"},{"type":"function","name":"supportsInterface","inputs":[{"name":"interfaceId","type":"bytes4","internalType":"bytes4"}],"outputs":[{"name":"","type":"bool","internalType":"bool"}],"stateMutability":"view"},{"type":"function","name":"updateManager","inputs":[{"name":"oldManager","type":"address","internalType":"address"},{"name":"newManager","type":"address","internalType":"address"}],"outputs":[],"stateMutability":"nonpayable"},{"type":"event","name":"FeeUpdated","inputs":[{"name":"feeType","type":"uint8","indexed":true,"internalType":"enum SuperDCAGauge.FeeType"},{"name":"oldFee","type":"uint24","indexed":false,"internalType":"uint24"},{"name":"newFee","type":"uint24","indexed":false,"internalType":"uint24"}],"anonymous":false},{"type":"event","name":"InternalAddressUpdated","inputs":[{"name":"user","type":"address","indexed":true,"internalType":"address"},{"name":"isInternal","type":"bool","indexed":false,"internalType":"bool"}],"anonymous":false},{"type":"event","name":"KeeperChanged","inputs":[{"name":"oldKeeper","type":"address","indexed":true,"internalType":"address"},{"name":"newKeeper","type":"address","indexed":true,"internalType":"address"},{"name":"deposit","type":"uint256","indexed":false,"internalType":"uint256"}],"anonymous":false},{"type":"event","name":"ListingUpdated","inputs":[{"name":"oldListing","type":"address","indexed":true,"internalType":"address"},{"name":"newListing","type":"address","indexed":true,"internalType":"address"}],"anonymous":false},{"type":"event","name":"RoleAdminChanged","inputs":[{"name":"role","type":"bytes32","indexed":true,"internalType":"bytes32"},{"name":"previousAdminRole","type":"bytes32","indexed":true,"internalType":"bytes32"},{"name":"newAdminRole","type":"bytes32","indexed":true,"internalType":"bytes32"}],"anonymous":false},{"type":"event","name":"RoleGranted","inputs":[{"name":"role","type":"bytes32","indexed":true,"internalType":"bytes32"},{"name":"account","type":"address","indexed":true,"internalType":"address"},{"name":"sender","type":"address","indexed":true,"internalType":"address"}],"anonymous":false},{"type":"event","name":"RoleRevoked","inputs":[{"name":"role","type":"bytes32","indexed":true,"internalType":"bytes32"},{"name":"account","type":"address","indexed":true,"internalType":"address"},{"name":"sender","type":"address","indexed":true,"internalType":"address"}],"anonymous":false},{"type":"event","name":"StakingUpdated","inputs":[{"name":"oldStaking","type":"address","indexed":true,"internalType":"address"},{"name":"newStaking","type":"address","indexed":true,"internalType":"address"}],"anonymous":false},{"type":"event","name":"SuperDCATokenOwnershipReturned","inputs":[{"name":"newOwner","type":"address","indexed":true,"internalType":"address"}],"anonymous":false},{"type":"error","name":"AccessControlBadConfirmation","inputs":[]},{"type":"error","name":"AccessControlUnauthorizedAccount","inputs":[{"name":"account","type":"address","internalType":"address"},{"name":"neededRole","type":"bytes32","internalType":"bytes32"}]},{"type":"error","name":"HookNotImplemented","inputs":[]},{"type":"error","name":"NotPoolManager","inputs":[]},{"type":"error","name":"SuperDCAGauge__InsufficientBalance","inputs":[]},{"type":"error","name":"SuperDCAGauge__InvalidAddress","inputs":[]},{"type":"error","name":"SuperDCAGauge__InvalidPoolFee","inputs":[]},{"type":"error","name":"SuperDCAGauge__NotDynamicFee","inputs":[]},{"type":"error","name":"SuperDCAGauge__NotTheOwner","inputs":[]},{"type":"error","name":"SuperDCAGauge__PoolMustIncludeSuperDCAToken","inputs":[]},{"type":"error","name":"SuperDCAGauge__UniswapTokenNotSet","inputs":[]},{"type":"error","name":"SuperDCAGauge__ZeroAddress","inputs":[]},{"type":"error","name":"SuperDCAGauge__ZeroAmount","inputs":[]}],"bytecode":{"object":"0x60a060405234801561000f575f80fd5b5060405161492038038061492083398181016040528101906100319190610918565b83808073ffffffffffffffffffffffffffffffffffffffff1660808173ffffffffffffffffffffffffffffffffffffffff168152505050610077306101e660201b60201c565b508260035f6101000a81548173ffffffffffffffffffffffffffffffffffffffff021916908373ffffffffffffffffffffffffffffffffffffffff1602179055508160045f6101000a81548173ffffffffffffffffffffffffffffffffffffffff021916908373ffffffffffffffffffffffffffffffffffffffff1602179055505f600460146101000a81548162ffffff021916908362ffffff160217905550611388600460176101000a81548162ffffff021916908362ffffff1602179055506103e86004601a6101000a81548162ffffff021916908362ffffff1602179055508060015f6101000a81548173ffffffffffffffffffffffffffffffffffffffff021916908373ffffffffffffffffffffffffffffffffffffffff1602179055506101ab5f801b8361020660201b60201c565b506101dc7f241ecf16d79d0f8dbfb92cbc07fe17840425976cf0667f022fe9877caa831b088361020660201b60201c565b505050505061097c565b610203816101f86102fb60201b60201c565b61038760201b60201c565b50565b5f610217838361071660201b60201c565b6102f15760015f808581526020019081526020015f205f015f8473ffffffffffffffffffffffffffffffffffffffff1673ffffffffffffffffffffffffffffffffffffffff1681526020019081526020015f205f6101000a81548160ff02191690831515021790555061028e61077960201b60201c565b73ffffffffffffffffffffffffffffffffffffffff168273ffffffffffffffffffffffffffffffffffffffff16847f2f8788117e7eff1d82e926ec794901d17c78024a50270940304540a733656f0d60405160405180910390a4600190506102f5565b5f90505b92915050565b6103036107c7565b604051806101c001604052806001151581526020016001151581526020016001151581526020015f151581526020016001151581526020015f151581526020016001151581526020015f151581526020015f151581526020015f151581526020015f151581526020015f151581526020015f151581526020015f1515815250905090565b6103b26120008373ffffffffffffffffffffffffffffffffffffffff1661078060201b90919060201c565b1515815f015115151415806103f957506103ed6110008373ffffffffffffffffffffffffffffffffffffffff1661078060201b90919060201c565b15158160200151151514155b80610436575061042a6108008373ffffffffffffffffffffffffffffffffffffffff1661078060201b90919060201c565b15158160400151151514155b8061047357506104676104008373ffffffffffffffffffffffffffffffffffffffff1661078060201b90919060201c565b15158160600151151514155b806104b057506104a46102008373ffffffffffffffffffffffffffffffffffffffff1661078060201b90919060201c565b15158160800151151514155b806104ed57506104e16101008373ffffffffffffffffffffffffffffffffffffffff1661078060201b90919060201c565b15158160a00151151514155b80610529575061051d60808373ffffffffffffffffffffffffffffffffffffffff1661078060201b90919060201c565b15158160c00151151514155b80610565575061055960408373ffffffffffffffffffffffffffffffffffffffff1661078060201b90919060201c565b15158160e00151151514155b806105a2575061059560208373ffffffffffffffffffffffffffffffffffffffff1661078060201b90919060201c565b1515816101000151151514155b806105df57506105d260108373ffffffffffffffffffffffffffffffffffffffff1661078060201b90919060201c565b1515816101200151151514155b8061061c575061060f60088373ffffffffffffffffffffffffffffffffffffffff1661078060201b90919060201c565b1515816101400151151514155b80610659575061064c60048373ffffffffffffffffffffffffffffffffffffffff1661078060201b90919060201c565b1515816101600151151514155b80610696575061068960028373ffffffffffffffffffffffffffffffffffffffff1661078060201b90919060201c565b1515816101800151151514155b806106d357506106c660018373ffffffffffffffffffffffffffffffffffffffff1661078060201b90919060201c565b1515816101a00151151514155b15610712576107118263e65af6a060e01b7bffffffffffffffffffffffffffffffffffffffffffffffffffffffff19166107a560201b90919060201c565b5b5050565b5f805f8481526020019081526020015f205f015f8373ffffffffffffffffffffffffffffffffffffffff1673ffffffffffffffffffffffffffffffffffffffff1681526020019081526020015f205f9054906101000a900460ff16905092915050565b5f33905090565b5f8082841673ffffffffffffffffffffffffffffffffffffffff161415905092915050565b815f5273ffffffffffffffffffffffffffffffffffffffff811660045260245ffd5b604051806101c001604052805f151581526020015f151581526020015f151581526020015f151581526020015f151581526020015f151581526020015f151581526020015f151581526020015f151581526020015f151581526020015f151581526020015f151581526020015f151581526020015f151581525090565b5f80fd5b5f73ffffffffffffffffffffffffffffffffffffffff82169050919050565b5f61087182610848565b9050919050565b5f61088282610867565b9050919050565b61089281610878565b811461089c575f80fd5b50565b5f815190506108ad81610889565b92915050565b6108bc81610867565b81146108c6575f80fd5b50565b5f815190506108d7816108b3565b92915050565b5f6108e782610867565b9050919050565b6108f7816108dd565b8114610901575f80fd5b50565b5f81519050610912816108ee565b92915050565b5f805f80608085870312156109305761092f610844565b5b5f61093d8782880161089f565b945050602061094e878288016108c9565b935050604061095f878288016108c9565b925050606061097087828801610904565b91505092959194509250565b608051613f316109ef5f395f818161094a01528181610a0401528181610c6e01528181610d1301528181610e91015281816113c6015281816114f101528181611594015281816117400152818161176501528181611acc0152818161238d0152818161265101526127ec0152613f315ff3fe608060405234801561000f575f80fd5b5060043610610267575f3560e01c806391d148541161014f578063c4e833ce116100c1578063dd0d8b4311610085578063dd0d8b431461078d578063e1b4af69146107a9578063e69ec653146107d9578063eaf7ead514610809578063ec87621c14610827578063fbc6acf31461084557610267565b8063c4e833ce146106e7578063caccd7f714610705578063d547741f14610723578063dc4c90d31461073f578063dc98354e1461075d57610267565b8063a786742f11610113578063a786742f1461060e578063aced16611461062c578063b47b2fb11461064a578063b6a8b0fa1461067b578063bc7c55ed146106ab578063bc904ef5146106c957610267565b806391d14854146105525780639f063efc14610582578063a0a6efef146105b3578063a217fddf146105d2578063a2cc558a146105f057610267565b8063420d0463116101e85780636e9e5c8e116101ac5780636e9e5c8e146104a65780636fe7e6eb146104b057806374521a10146104e05780637fa4a5bb146104fc5780638e001c96146105185780638ff390991461053657610267565b8063420d0463146103eb578063422ede42146104075780634cf088d914610425578063575e24b4146104435780636c2bbe7e1461047557610267565b8063259982e51161022f578063259982e5146103355780632f2ff15d1461036557806336568abe146103815780633ccdecce1461039d578063408a574b146103bb57610267565b806301ffc9a71461026b57806307ecec3e1461029b578063191eb7c9146102b757806321d0ee70146102d5578063248a9ca314610305575b5f80fd5b61028560048036038101906102809190612b11565b610863565b6040516102929190612b56565b60405180910390f35b6102b560048036038101906102b09190612bc9565b6108dc565b005b6102bf610941565b6040516102cc9190612c24565b60405180910390f35b6102ef60048036038101906102ea9190612cde565b610947565b6040516102fc9190612d73565b60405180910390f35b61031f600480360381019061031a9190612dbf565b6109e5565b60405161032c9190612df9565b60405180910390f35b61034f600480360381019061034a9190612cde565b610a01565b60405161035c9190612d73565b60405180910390f35b61037f600480360381019061037a9190612e12565b610a9f565b005b61039b60048036038101906103969190612e12565b610ac1565b005b6103a5610b3c565b6040516103b29190612e68565b60405180910390f35b6103d560048036038101906103d09190612e81565b610b42565b6040516103e29190612b56565b60405180910390f35b61040560048036038101906104009190612e81565b610b5f565b005b61040f610c2f565b60405161041c9190612c24565b60405180910390f35b61042d610c44565b60405161043a9190612f07565b60405180910390f35b61045d60048036038101906104589190612f3e565b610c69565b60405161046c93929190612ffd565b60405180910390f35b61048f600480360381019061048a919061305c565b610d0f565b60405161049d929190613119565b60405180910390f35b6104ae610db5565b005b6104ca60048036038101906104c591906131a0565b610e8e565b6040516104d79190612d73565b60405180910390f35b6104fa60048036038101906104f59190613252565b610f2a565b005b610516600480360381019061051191906132ba565b6110cf565b005b610520611205565b60405161052d9190613318565b60405180910390f35b610550600480360381019061054b9190612e81565b61122a565b005b61056c60048036038101906105679190612e12565b61135f565b6040516105799190612b56565b60405180910390f35b61059c6004803603810190610597919061305c565b6113c2565b6040516105aa929190613119565b60405180910390f35b6105bb611468565b6040516105c9929190613340565b60405180910390f35b6105da611497565b6040516105e79190612df9565b60405180910390f35b6105f861149d565b6040516106059190612c24565b60405180910390f35b6106166114a3565b6040516106239190613367565b60405180910390f35b6106346114c8565b6040516106419190613367565b60405180910390f35b610664600480360381019061065f9190613380565b6114ed565b604051610672929190613434565b60405180910390f35b61069560048036038101906106909190613485565b611591565b6040516106a29190612d73565b60405180910390f35b6106b3611631565b6040516106c0919061353d565b60405180910390f35b6106d1611656565b6040516106de9190612c24565b60405180910390f35b6106ef61166b565b6040516106fc9190613683565b60405180910390f35b61070d6116f7565b60405161071a9190613367565b60405180910390f35b61073d60048036038101906107389190612e12565b61171c565b005b61074761173e565b60405161075491906136bd565b60405180910390f35b610777600480360381019061077291906136d6565b611762565b6040516107849190612d73565b60405180910390f35b6107a760048036038101906107a29190613726565b6117fc565b005b6107c360048036038101906107be9190613485565b611ac9565b6040516107d09190612d73565b60405180910390f35b6107f360048036038101906107ee9190612e81565b611b69565b6040516108009190612b56565b60405180910390f35b610811611c67565b60405161081e9190612c24565b60405180910390f35b61082f611c6b565b60405161083c9190612df9565b60405180910390f35b61084d611c8f565b60405161085a9190612c24565b60405180910390f35b5f7f7965db0b000000000000000000000000000000000000000000000000000000007bffffffffffffffffffffffffffffffffffffffffffffffffffffffff1916827bffffffffffffffffffffffffffffffffffffffffffffffffffffffff191614806108d557506108d482611ca4565b5b9050919050565b5f801b6108e881611d0d565b6109127f241ecf16d79d0f8dbfb92cbc07fe17840425976cf0667f022fe9877caa831b088461171c565b61093c7f241ecf16d79d0f8dbfb92cbc07fe17840425976cf0667f022fe9877caa831b0883610a9f565b505050565b61138881565b5f7f000000000000000000000000000000000000000000000000000000000000000073ffffffffffffffffffffffffffffffffffffffff163373ffffffffffffffffffffffffffffffffffffffff16146109cd576040517fae18210a00000000000000000000000000000000000000000000000000000000815260040160405180910390fd5b6109da8686868686611d21565b905095945050505050565b5f805f8381526020019081526020015f20600101549050919050565b5f7f000000000000000000000000000000000000000000000000000000000000000073ffffffffffffffffffffffffffffffffffffffff163373ffffffffffffffffffffffffffffffffffffffff1614610a87576040517fae18210a00000000000000000000000000000000000000000000000000000000815260040160405180910390fd5b610a948686868686611d40565b905095945050505050565b610aa8826109e5565b610ab181611d0d565b610abb8383611d5f565b50505050565b610ac9611e48565b73ffffffffffffffffffffffffffffffffffffffff168173ffffffffffffffffffffffffffffffffffffffff1614610b2d576040517f6697b23200000000000000000000000000000000000000000000000000000000815260040160405180910390fd5b610b378282611e4f565b505050565b60075481565b6005602052805f5260405f205f915054906101000a900460ff1681565b5f801b610b6b81611d0d565b5f60025f9054906101000a900473ffffffffffffffffffffffffffffffffffffffff1690508260025f6101000a81548173ffffffffffffffffffffffffffffffffffffffff021916908373ffffffffffffffffffffffffffffffffffffffff1602179055508273ffffffffffffffffffffffffffffffffffffffff168173ffffffffffffffffffffffffffffffffffffffff167f5cd417a3b51a35eb548e5725668f5b6876d6cba6064f2e553a41573d8086748360405160405180910390a3505050565b6004601a9054906101000a900462ffffff1681565b60085f9054906101000a900473ffffffffffffffffffffffffffffffffffffffff1681565b5f805f7f000000000000000000000000000000000000000000000000000000000000000073ffffffffffffffffffffffffffffffffffffffff163373ffffffffffffffffffffffffffffffffffffffff1614610cf1576040517fae18210a00000000000000000000000000000000000000000000000000000000815260040160405180910390fd5b610cfe8888888888611f38565b925092509250955095509592505050565b5f807f000000000000000000000000000000000000000000000000000000000000000073ffffffffffffffffffffffffffffffffffffffff163373ffffffffffffffffffffffffffffffffffffffff1614610d96576040517fae18210a00000000000000000000000000000000000000000000000000000000815260040160405180910390fd5b610da5898989898989896120b9565b9150915097509795505050505050565b5f801b610dc181611d0d565b60035f9054906101000a900473ffffffffffffffffffffffffffffffffffffffff1673ffffffffffffffffffffffffffffffffffffffff1663f2fde38b336040518263ffffffff1660e01b8152600401610e1b9190613367565b5f604051808303815f87803b158015610e32575f80fd5b505af1158015610e44573d5f803e3d5ffd5b505050503373ffffffffffffffffffffffffffffffffffffffff167f284ffa1430923519645cf3bb09e63d9bc10f40241f1a6cec79e35b3ddc9c92c860405160405180910390a250565b5f7f000000000000000000000000000000000000000000000000000000000000000073ffffffffffffffffffffffffffffffffffffffff163373ffffffffffffffffffffffffffffffffffffffff1614610f14576040517fae18210a00000000000000000000000000000000000000000000000000000000815260040160405180910390fd5b610f20858585856120ed565b9050949350505050565b7f241ecf16d79d0f8dbfb92cbc07fe17840425976cf0667f022fe9877caa831b08610f5481611d0d565b5f806002811115610f6857610f67613751565b5b846002811115610f7b57610f7a613751565b5b03610fb857600460149054906101000a900462ffffff16905082600460146101000a81548162ffffff021916908362ffffff16021790555061107d565b60016002811115610fcc57610fcb613751565b5b846002811115610fdf57610fde613751565b5b0361101c57600460179054906101000a900462ffffff16905082600460176101000a81548162ffffff021916908362ffffff16021790555061107c565b60028081111561102f5761102e613751565b5b84600281111561104257611041613751565b5b0361107b576004601a9054906101000a900462ffffff169050826004601a6101000a81548162ffffff021916908362ffffff1602179055505b5b5b8360028111156110905761108f613751565b5b7f121d7b1aa75601f8eed6f6545e391c9f510c09e0ec4d0bdd09f440b9ed6e916a82856040516110c192919061377e565b60405180910390a250505050565b7f241ecf16d79d0f8dbfb92cbc07fe17840425976cf0667f022fe9877caa831b086110f981611d0d565b5f73ffffffffffffffffffffffffffffffffffffffff168373ffffffffffffffffffffffffffffffffffffffff160361115e576040517f15df01a100000000000000000000000000000000000000000000000000000000815260040160405180910390fd5b8160055f8573ffffffffffffffffffffffffffffffffffffffff1673ffffffffffffffffffffffffffffffffffffffff1681526020019081526020015f205f6101000a81548160ff0219169083151502179055508273ffffffffffffffffffffffffffffffffffffffff167f1323417936e27357a937ed81a4cf2e352d89f44cf1fa9e360b84f5abb16f5cff836040516111f89190612b56565b60405180910390a2505050565b60015f9054906101000a900473ffffffffffffffffffffffffffffffffffffffff1681565b5f801b61123681611d0d565b5f73ffffffffffffffffffffffffffffffffffffffff168273ffffffffffffffffffffffffffffffffffffffff160361129b576040517f15df01a100000000000000000000000000000000000000000000000000000000815260040160405180910390fd5b5f60085f9054906101000a900473ffffffffffffffffffffffffffffffffffffffff1690508260085f6101000a81548173ffffffffffffffffffffffffffffffffffffffff021916908373ffffffffffffffffffffffffffffffffffffffff1602179055508273ffffffffffffffffffffffffffffffffffffffff168173ffffffffffffffffffffffffffffffffffffffff167fcfa056eb826b2a28817aa38ccb94f12ba8a1309598f7ea19bef6fd67fe04b61e60405160405180910390a3505050565b5f805f8481526020019081526020015f205f015f8373ffffffffffffffffffffffffffffffffffffffff1673ffffffffffffffffffffffffffffffffffffffff1681526020019081526020015f205f9054906101000a900460ff16905092915050565b5f807f000000000000000000000000000000000000000000000000000000000000000073ffffffffffffffffffffffffffffffffffffffff163373ffffffffffffffffffffffffffffffffffffffff1614611449576040517fae18210a00000000000000000000000000000000000000000000000000000000815260040160405180910390fd5b61145889898989898989612156565b9150915097509795505050505050565b5f8060065f9054906101000a900473ffffffffffffffffffffffffffffffffffffffff16600754915091509091565b5f801b81565b6103e881565b60035f9054906101000a900473ffffffffffffffffffffffffffffffffffffffff1681565b60065f9054906101000a900473ffffffffffffffffffffffffffffffffffffffff1681565b5f807f000000000000000000000000000000000000000000000000000000000000000073ffffffffffffffffffffffffffffffffffffffff163373ffffffffffffffffffffffffffffffffffffffff1614611574576040517fae18210a00000000000000000000000000000000000000000000000000000000815260040160405180910390fd5b61158288888888888861218a565b91509150965096945050505050565b5f7f000000000000000000000000000000000000000000000000000000000000000073ffffffffffffffffffffffffffffffffffffffff163373ffffffffffffffffffffffffffffffffffffffff1614611617576040517fae18210a00000000000000000000000000000000000000000000000000000000815260040160405180910390fd5b6116258787878787876121be565b90509695505050505050565b60025f9054906101000a900473ffffffffffffffffffffffffffffffffffffffff1681565b600460179054906101000a900462ffffff1681565b611673612a2e565b604051806101c001604052806001151581526020016001151581526020016001151581526020015f151581526020016001151581526020015f151581526020016001151581526020015f151581526020015f151581526020015f151581526020015f151581526020015f151581526020015f151581526020015f1515815250905090565b60045f9054906101000a900473ffffffffffffffffffffffffffffffffffffffff1681565b611725826109e5565b61172e81611d0d565b6117388383611e4f565b50505050565b7f000000000000000000000000000000000000000000000000000000000000000081565b5f7f000000000000000000000000000000000000000000000000000000000000000073ffffffffffffffffffffffffffffffffffffffff163373ffffffffffffffffffffffffffffffffffffffff16146117e8576040517fae18210a00000000000000000000000000000000000000000000000000000000815260040160405180910390fd5b6117f38484846121f1565b90509392505050565b5f8103611835576040517f4583543b00000000000000000000000000000000000000000000000000000000815260040160405180910390fd5b6007548111611870576040517f328a92e800000000000000000000000000000000000000000000000000000000815260040160405180910390fd5b5f60065f9054906101000a900473ffffffffffffffffffffffffffffffffffffffff1690505f600754905060035f9054906101000a900473ffffffffffffffffffffffffffffffffffffffff1673ffffffffffffffffffffffffffffffffffffffff166323b872dd3330866040518463ffffffff1660e01b81526004016118f9939291906137a5565b6020604051808303815f875af1158015611915573d5f803e3d5ffd5b505050506040513d601f19601f8201168201806040525081019061193991906137ee565b505f73ffffffffffffffffffffffffffffffffffffffff168273ffffffffffffffffffffffffffffffffffffffff161415801561197557505f81115b15611a185760035f9054906101000a900473ffffffffffffffffffffffffffffffffffffffff1673ffffffffffffffffffffffffffffffffffffffff1663a9059cbb83836040518363ffffffff1660e01b81526004016119d6929190613340565b6020604051808303815f875af11580156119f2573d5f803e3d5ffd5b505050506040513d601f19601f82011682018060405250810190611a1691906137ee565b505b3360065f6101000a81548173ffffffffffffffffffffffffffffffffffffffff021916908373ffffffffffffffffffffffffffffffffffffffff160217905550826007819055503373ffffffffffffffffffffffffffffffffffffffff168273ffffffffffffffffffffffffffffffffffffffff167f3e41a438b4d237c13a486541cfb280b644bd195fdedc35ebcc7d2c44484a2fb985604051611abc9190612e68565b60405180910390a3505050565b5f7f000000000000000000000000000000000000000000000000000000000000000073ffffffffffffffffffffffffffffffffffffffff163373ffffffffffffffffffffffffffffffffffffffff1614611b4f576040517fae18210a00000000000000000000000000000000000000000000000000000000815260040160405180910390fd5b611b5d878787878787612307565b90509695505050505050565b5f8073ffffffffffffffffffffffffffffffffffffffff1660025f9054906101000a900473ffffffffffffffffffffffffffffffffffffffff1673ffffffffffffffffffffffffffffffffffffffff1603611bc6575f9050611c62565b60025f9054906101000a900473ffffffffffffffffffffffffffffffffffffffff1673ffffffffffffffffffffffffffffffffffffffff1663e69ec653836040518263ffffffff1660e01b8152600401611c209190613367565b602060405180830381865afa158015611c3b573d5f803e3d5ffd5b505050506040513d601f19601f82011682018060405250810190611c5f91906137ee565b90505b919050565b5f81565b7f241ecf16d79d0f8dbfb92cbc07fe17840425976cf0667f022fe9877caa831b0881565b600460149054906101000a900462ffffff1681565b5f7f01ffc9a7000000000000000000000000000000000000000000000000000000007bffffffffffffffffffffffffffffffffffffffffffffffffffffffff1916827bffffffffffffffffffffffffffffffffffffffffffffffffffffffff1916149050919050565b611d1e81611d19611e48565b61233a565b50565b5f611d2d85848461238b565b6321d0ee7060e01b905095945050505050565b5f611d4c85848461238b565b63259982e560e01b905095945050505050565b5f611d6a838361135f565b611e3e5760015f808581526020019081526020015f205f015f8473ffffffffffffffffffffffffffffffffffffffff1673ffffffffffffffffffffffffffffffffffffffff1681526020019081526020015f205f6101000a81548160ff021916908315150217905550611ddb611e48565b73ffffffffffffffffffffffffffffffffffffffff168273ffffffffffffffffffffffffffffffffffffffff16847f2f8788117e7eff1d82e926ec794901d17c78024a50270940304540a733656f0d60405160405180910390a460019050611e42565b5f90505b92915050565b5f33905090565b5f611e5a838361135f565b15611f2e575f805f8581526020019081526020015f205f015f8473ffffffffffffffffffffffffffffffffffffffff1673ffffffffffffffffffffffffffffffffffffffff1681526020019081526020015f205f6101000a81548160ff021916908315150217905550611ecb611e48565b73ffffffffffffffffffffffffffffffffffffffff168273ffffffffffffffffffffffffffffffffffffffff16847ff6391f5c32d9c69d2a47ea670b442974b53935d1edc7fd64eb21e047a839171b60405160405180910390a460019050611f32565b5f90505b92915050565b5f805f808873ffffffffffffffffffffffffffffffffffffffff1663d737d0c76040518163ffffffff1660e01b8152600401602060405180830381865afa158015611f85573d5f803e3d5ffd5b505050506040513d601f19601f82011682018060405250810190611fa9919061382d565b90505f60055f8373ffffffffffffffffffffffffffffffffffffffff1673ffffffffffffffffffffffffffffffffffffffff1681526020019081526020015f205f9054906101000a900460ff161561201457600460149054906101000a900462ffffff169050612097565b60065f9054906101000a900473ffffffffffffffffffffffffffffffffffffffff1673ffffffffffffffffffffffffffffffffffffffff168273ffffffffffffffffffffffffffffffffffffffff1603612081576004601a9054906101000a900462ffffff169050612096565b600460179054906101000a900462ffffff1690505b5b63575e24b460e01b5f6240000083179450945094505050955095509592505050565b5f806040517f0a85dc2900000000000000000000000000000000000000000000000000000000815260040160405180910390fd5b5f61210e8460400160208101906121049190613858565b62ffffff16612885565b612144576040517fedff437d00000000000000000000000000000000000000000000000000000000815260040160405180910390fd5b636fe7e6eb60e01b9050949350505050565b5f806040517f0a85dc2900000000000000000000000000000000000000000000000000000000815260040160405180910390fd5b5f806040517f0a85dc2900000000000000000000000000000000000000000000000000000000815260040160405180910390fd5b5f6040517f0a85dc2900000000000000000000000000000000000000000000000000000000815260040160405180910390fd5b5f825f01602081019061220491906138ad565b73ffffffffffffffffffffffffffffffffffffffff1660035f9054906101000a900473ffffffffffffffffffffffffffffffffffffffff1673ffffffffffffffffffffffffffffffffffffffff16141580156122bf575082602001602081019061226e91906138ad565b73ffffffffffffffffffffffffffffffffffffffff1660035f9054906101000a900473ffffffffffffffffffffffffffffffffffffffff1673ffffffffffffffffffffffffffffffffffffffff1614155b156122f6576040517f5ff7818a00000000000000000000000000000000000000000000000000000000815260040160405180910390fd5b63dc98354e60e01b90509392505050565b5f6040517f0a85dc2900000000000000000000000000000000000000000000000000000000815260040160405180910390fd5b612344828261135f565b6123875780826040517fe2517d3f00000000000000000000000000000000000000000000000000000000815260040161237e9291906138d8565b60405180910390fd5b5050565b7f000000000000000000000000000000000000000000000000000000000000000073ffffffffffffffffffffffffffffffffffffffff1663a584119460035f9054906101000a900473ffffffffffffffffffffffffffffffffffffffff166040518263ffffffff1660e01b8152600401612405919061391f565b5f604051808303815f87803b15801561241c575f80fd5b505af115801561242e573d5f803e3d5ffd5b505050505f835f01602081019061244591906138ad565b73ffffffffffffffffffffffffffffffffffffffff1660035f9054906101000a900473ffffffffffffffffffffffffffffffffffffffff1673ffffffffffffffffffffffffffffffffffffffff16146124af57835f0160208101906124aa91906138ad565b6124c3565b8360200160208101906124c291906138ad565b5b90505f60085f9054906101000a900473ffffffffffffffffffffffffffffffffffffffff1673ffffffffffffffffffffffffffffffffffffffff1663978e08d7836040518263ffffffff1660e01b81526004016125209190613367565b6020604051808303815f875af115801561253c573d5f803e3d5ffd5b505050506040513d601f19601f82011682018060405250810190612560919061394c565b90505f8103612570575050612880565b5f6125b261258d878036038101906125889190613ac7565b61289d565b3373ffffffffffffffffffffffffffffffffffffffff166128a990919063ffffffff16565b90505f816fffffffffffffffffffffffffffffffff1603612601576125f860045f9054906101000a900473ffffffffffffffffffffffffffffffffffffffff168361294e565b50505050612880565b5f60028361260f9190613b4c565b90505f818461261e9190613b7c565b905061264b60045f9054906101000a900473ffffffffffffffffffffffffffffffffffffffff168361294e565b506126767f00000000000000000000000000000000000000000000000000000000000000008261294e565b1561287a57875f01602081019061268d91906138ad565b73ffffffffffffffffffffffffffffffffffffffff1660035f9054906101000a900473ffffffffffffffffffffffffffffffffffffffff1673ffffffffffffffffffffffffffffffffffffffff1603612767573373ffffffffffffffffffffffffffffffffffffffff1663234266d789835f8b8b6040518663ffffffff1660e01b8152600401612721959493929190613d65565b6020604051808303815f875af115801561273d573d5f803e3d5ffd5b505050506040513d601f19601f820116820180604052508101906127619190613dc6565b506127ea565b3373ffffffffffffffffffffffffffffffffffffffff1663234266d7895f848b8b6040518663ffffffff1660e01b81526004016127a8959493929190613df1565b6020604051808303815f875af11580156127c4573d5f803e3d5ffd5b505050506040513d601f19601f820116820180604052508101906127e89190613dc6565b505b7f000000000000000000000000000000000000000000000000000000000000000073ffffffffffffffffffffffffffffffffffffffff166311da60b46040518163ffffffff1660e01b81526004016020604051808303815f875af1158015612854573d5f803e3d5ffd5b505050506040513d601f19601f82011682018060405250810190612878919061394c565b505b50505050505b505050565b5f6280000062ffffff168262ffffff16149050919050565b5f60a082209050919050565b5f806128b4836129fa565b90505f6003825f1c6128c69190613e3e565b5f1b90508473ffffffffffffffffffffffffffffffffffffffff16631e2eaeaf826040518263ffffffff1660e01b81526004016129039190612df9565b602060405180830381865afa15801561291e573d5f803e3d5ffd5b505050506040513d601f19601f820116820180604052508101906129429190613e85565b5f1c9250505092915050565b5f80820361295f57600190506129f4565b60035f9054906101000a900473ffffffffffffffffffffffffffffffffffffffff1673ffffffffffffffffffffffffffffffffffffffff166340c10f1984846040518363ffffffff1660e01b81526004016129bb929190613340565b5f604051808303815f87803b1580156129d2575f80fd5b505af19250505080156129e3575060015b6129ef575f90506129f4565b600190505b92915050565b5f8160065f1b604051602001612a11929190613ed0565b604051602081830303815290604052805190602001209050919050565b604051806101c001604052805f151581526020015f151581526020015f151581526020015f151581526020015f151581526020015f151581526020015f151581526020015f151581526020015f151581526020015f151581526020015f151581526020015f151581526020015f151581526020015f151581525090565b5f604051905090565b5f80fd5b5f80fd5b5f7fffffffff0000000000000000000000000000000000000000000000000000000082169050919050565b612af081612abc565b8114612afa575f80fd5b50565b5f81359050612b0b81612ae7565b92915050565b5f60208284031215612b2657612b25612ab4565b5b5f612b3384828501612afd565b91505092915050565b5f8115159050919050565b612b5081612b3c565b82525050565b5f602082019050612b695f830184612b47565b92915050565b5f73ffffffffffffffffffffffffffffffffffffffff82169050919050565b5f612b9882612b6f565b9050919050565b612ba881612b8e565b8114612bb2575f80fd5b50565b5f81359050612bc381612b9f565b92915050565b5f8060408385031215612bdf57612bde612ab4565b5b5f612bec85828601612bb5565b9250506020612bfd85828601612bb5565b9150509250929050565b5f62ffffff82169050919050565b612c1e81612c07565b82525050565b5f602082019050612c375f830184612c15565b92915050565b5f80fd5b5f60a08284031215612c5657612c55612c3d565b5b81905092915050565b5f60808284031215612c7457612c73612c3d565b5b81905092915050565b5f80fd5b5f80fd5b5f80fd5b5f8083601f840112612c9e57612c9d612c7d565b5b8235905067ffffffffffffffff811115612cbb57612cba612c81565b5b602083019150836001820283011115612cd757612cd6612c85565b5b9250929050565b5f805f805f6101608688031215612cf857612cf7612ab4565b5b5f612d0588828901612bb5565b9550506020612d1688828901612c41565b94505060c0612d2788828901612c5f565b93505061014086013567ffffffffffffffff811115612d4957612d48612ab8565b5b612d5588828901612c89565b92509250509295509295909350565b612d6d81612abc565b82525050565b5f602082019050612d865f830184612d64565b92915050565b5f819050919050565b612d9e81612d8c565b8114612da8575f80fd5b50565b5f81359050612db981612d95565b92915050565b5f60208284031215612dd457612dd3612ab4565b5b5f612de184828501612dab565b91505092915050565b612df381612d8c565b82525050565b5f602082019050612e0c5f830184612dea565b92915050565b5f8060408385031215612e2857612e27612ab4565b5b5f612e3585828601612dab565b9250506020612e4685828601612bb5565b9150509250929050565b5f819050919050565b612e6281612e50565b82525050565b5f602082019050612e7b5f830184612e59565b92915050565b5f60208284031215612e9657612e95612ab4565b5b5f612ea384828501612bb5565b91505092915050565b5f819050919050565b5f612ecf612eca612ec584612b6f565b612eac565b612b6f565b9050919050565b5f612ee082612eb5565b9050919050565b5f612ef182612ed6565b9050919050565b612f0181612ee7565b82525050565b5f602082019050612f1a5f830184612ef8565b92915050565b5f60608284031215612f3557612f34612c3d565b5b81905092915050565b5f805f805f6101408688031215612f5857612f57612ab4565b5b5f612f6588828901612bb5565b9550506020612f7688828901612c41565b94505060c0612f8788828901612f20565b93505061012086013567ffffffffffffffff811115612fa957612fa8612ab8565b5b612fb588828901612c89565b92509250509295509295909350565b5f819050919050565b5f612fe7612fe2612fdd84612fc4565b612eac565b612fc4565b9050919050565b612ff781612fcd565b82525050565b5f6060820190506130105f830186612d64565b61301d6020830185612fee565b61302a6040830184612c15565b949350505050565b61303b81612fc4565b8114613045575f80fd5b50565b5f8135905061305681613032565b92915050565b5f805f805f805f6101a0888a03121561307857613077612ab4565b5b5f6130858a828b01612bb5565b97505060206130968a828b01612c41565b96505060c06130a78a828b01612c5f565b9550506101406130b98a828b01613048565b9450506101606130cb8a828b01613048565b93505061018088013567ffffffffffffffff8111156130ed576130ec612ab8565b5b6130f98a828b01612c89565b925092505092959891949750929550565b61311381612fcd565b82525050565b5f60408201905061312c5f830185612d64565b613139602083018461310a565b9392505050565b61314981612b6f565b8114613153575f80fd5b50565b5f8135905061316481613140565b92915050565b5f8160020b9050919050565b61317f8161316a565b8114613189575f80fd5b50565b5f8135905061319a81613176565b92915050565b5f805f8061010085870312156131b9576131b8612ab4565b5b5f6131c687828801612bb5565b94505060206131d787828801612c41565b93505060c06131e887828801613156565b92505060e06131f98782880161318c565b91505092959194509250565b60038110613211575f80fd5b50565b5f8135905061322281613205565b92915050565b61323181612c07565b811461323b575f80fd5b50565b5f8135905061324c81613228565b92915050565b5f806040838503121561326857613267612ab4565b5b5f61327585828601613214565b92505060206132868582860161323e565b9150509250929050565b61329981612b3c565b81146132a3575f80fd5b50565b5f813590506132b481613290565b92915050565b5f80604083850312156132d0576132cf612ab4565b5b5f6132dd85828601612bb5565b92505060206132ee858286016132a6565b9150509250929050565b5f61330282612ed6565b9050919050565b613312816132f8565b82525050565b5f60208201905061332b5f830184613309565b92915050565b61333a81612b8e565b82525050565b5f6040820190506133535f830185613331565b6133606020830184612e59565b9392505050565b5f60208201905061337a5f830184613331565b92915050565b5f805f805f80610160878903121561339b5761339a612ab4565b5b5f6133a889828a01612bb5565b96505060206133b989828a01612c41565b95505060c06133ca89828a01612f20565b9450506101206133dc89828a01613048565b93505061014087013567ffffffffffffffff8111156133fe576133fd612ab8565b5b61340a89828a01612c89565b92509250509295509295509295565b5f81600f0b9050919050565b61342e81613419565b82525050565b5f6040820190506134475f830185612d64565b6134546020830184613425565b9392505050565b61346481612e50565b811461346e575f80fd5b50565b5f8135905061347f8161345b565b92915050565b5f805f805f8061012087890312156134a05761349f612ab4565b5b5f6134ad89828a01612bb5565b96505060206134be89828a01612c41565b95505060c06134cf89828a01613471565b94505060e06134e089828a01613471565b93505061010087013567ffffffffffffffff81111561350257613501612ab8565b5b61350e89828a01612c89565b92509250509295509295509295565b5f61352782612ed6565b9050919050565b6135378161351d565b82525050565b5f6020820190506135505f83018461352e565b92915050565b61355f81612b3c565b82525050565b6101c082015f82015161357a5f850182613556565b50602082015161358d6020850182613556565b5060408201516135a06040850182613556565b5060608201516135b36060850182613556565b5060808201516135c66080850182613556565b5060a08201516135d960a0850182613556565b5060c08201516135ec60c0850182613556565b5060e08201516135ff60e0850182613556565b50610100820151613614610100850182613556565b50610120820151613629610120850182613556565b5061014082015161363e610140850182613556565b50610160820151613653610160850182613556565b50610180820151613668610180850182613556565b506101a082015161367d6101a0850182613556565b50505050565b5f6101c0820190506136975f830184613565565b92915050565b5f6136a782612ed6565b9050919050565b6136b78161369d565b82525050565b5f6020820190506136d05f8301846136ae565b92915050565b5f805f60e084860312156136ed576136ec612ab4565b5b5f6136fa86828701612bb5565b935050602061370b86828701612c41565b92505060c061371c86828701613156565b9150509250925092565b5f6020828403121561373b5761373a612ab4565b5b5f61374884828501613471565b91505092915050565b7f4e487b71000000000000000000000000000000000000000000000000000000005f52602160045260245ffd5b5f6040820190506137915f830185612c15565b61379e6020830184612c15565b9392505050565b5f6060820190506137b85f830186613331565b6137c56020830185613331565b6137d26040830184612e59565b949350505050565b5f815190506137e881613290565b92915050565b5f6020828403121561380357613802612ab4565b5b5f613810848285016137da565b91505092915050565b5f8151905061382781612b9f565b92915050565b5f6020828403121561384257613841612ab4565b5b5f61384f84828501613819565b91505092915050565b5f6020828403121561386d5761386c612ab4565b5b5f61387a8482850161323e565b91505092915050565b61388c81612b8e565b8114613896575f80fd5b50565b5f813590506138a781613883565b92915050565b5f602082840312156138c2576138c1612ab4565b5b5f6138cf84828501613899565b91505092915050565b5f6040820190506138eb5f830185613331565b6138f86020830184612dea565b9392505050565b5f61390982612ed6565b9050919050565b613919816138ff565b82525050565b5f6020820190506139325f830184613910565b92915050565b5f815190506139468161345b565b92915050565b5f6020828403121561396157613960612ab4565b5b5f61396e84828501613938565b91505092915050565b5f80fd5b5f601f19601f8301169050919050565b7f4e487b71000000000000000000000000000000000000000000000000000000005f52604160045260245ffd5b6139c18261397b565b810181811067ffffffffffffffff821117156139e0576139df61398b565b5b80604052505050565b5f6139f2612aab565b90506139fe82826139b8565b919050565b5f613a0d82612b8e565b9050919050565b613a1d81613a03565b8114613a27575f80fd5b50565b5f81359050613a3881613a14565b92915050565b5f60a08284031215613a5357613a52613977565b5b613a5d60a06139e9565b90505f613a6c84828501613899565b5f830152506020613a7f84828501613899565b6020830152506040613a938482850161323e565b6040830152506060613aa78482850161318c565b6060830152506080613abb84828501613a2a565b60808301525092915050565b5f60a08284031215613adc57613adb612ab4565b5b5f613ae984828501613a3e565b91505092915050565b7f4e487b71000000000000000000000000000000000000000000000000000000005f52601260045260245ffd5b7f4e487b71000000000000000000000000000000000000000000000000000000005f52601160045260245ffd5b5f613b5682612e50565b9150613b6183612e50565b925082613b7157613b70613af2565b5b828204905092915050565b5f613b8682612e50565b9150613b9183612e50565b9250828203905081811115613ba957613ba8613b1f565b5b92915050565b5f613bbd6020840184613899565b905092915050565b613bce816138ff565b82525050565b5f613be2602084018461323e565b905092915050565b613bf381612c07565b82525050565b5f613c07602084018461318c565b905092915050565b613c188161316a565b82525050565b5f613c2c6020840184613a2a565b905092915050565b5f613c3e82612ed6565b9050919050565b613c4e81613c34565b82525050565b60a08201613c645f830183613baf565b613c705f850182613bc5565b50613c7e6020830183613baf565b613c8b6020850182613bc5565b50613c996040830183613bd4565b613ca66040850182613bea565b50613cb46060830183613bf9565b613cc16060850182613c0f565b50613ccf6080830183613c1e565b613cdc6080850182613c45565b50505050565b5f819050919050565b5f613d05613d00613cfb84613ce2565b612eac565b612e50565b9050919050565b613d1581613ceb565b82525050565b5f82825260208201905092915050565b828183375f83830152505050565b5f613d448385613d1b565b9350613d51838584613d2b565b613d5a8361397b565b840190509392505050565b5f61010082019050613d795f830188613c54565b613d8660a0830187612e59565b613d9360c0830186613d0c565b81810360e0830152613da6818486613d39565b90509695505050505050565b5f81519050613dc081613032565b92915050565b5f60208284031215613ddb57613dda612ab4565b5b5f613de884828501613db2565b91505092915050565b5f61010082019050613e055f830188613c54565b613e1260a0830187613d0c565b613e1f60c0830186612e59565b81810360e0830152613e32818486613d39565b90509695505050505050565b5f613e4882612e50565b9150613e5383612e50565b9250828201905080821115613e6b57613e6a613b1f565b5b92915050565b5f81519050613e7f81612d95565b92915050565b5f60208284031215613e9a57613e99612ab4565b5b5f613ea784828501613e71565b91505092915050565b5f819050919050565b613eca613ec582612d8c565b613eb0565b82525050565b5f613edb8285613eb9565b602082019150613eeb8284613eb9565b602082019150819050939250505056fea2646970667358221220968791b6a0fd823be225939f9a64049fe6f171dfefa4db132df80aadb50138d564736f6c634300081a0033","linkReferences":{}},"methodIdentifiers":{"DEFAULT_ADMIN_ROLE()":"a217fddf","EXTERNAL_POOL_FEE()":"191eb7c9","INTERNAL_POOL_FEE()":"eaf7ead5","KEEPER_POOL_FEE()":"a2cc558a","MANAGER_ROLE()":"ec87621c","afterAddLiquidity(address,(address,address,uint24,int24,address),(int24,int24,int256,bytes32),int256,int256,bytes)":"9f063efc","afterDonate(address,(address,address,uint24,int24,address),uint256,uint256,bytes)":"e1b4af69","afterInitialize(address,(address,address,uint24,int24,address),uint160,int24)":"6fe7e6eb","afterRemoveLiquidity(address,(address,address,uint24,int24,address),(int24,int24,int256,bytes32),int256,int256,bytes)":"6c2bbe7e","afterSwap(address,(address,address,uint24,int24,address),(bool,int256,uint160),int256,bytes)":"b47b2fb1","becomeKeeper(uint256)":"dd0d8b43","beforeAddLiquidity(address,(address,address,uint24,int24,address),(int24,int24,int256,bytes32),bytes)":"259982e5","beforeDonate(address,(address,address,uint24,int24,address),uint256,uint256,bytes)":"b6a8b0fa","beforeInitialize(address,(address,address,uint24,int24,address),uint160)":"dc98354e","beforeRemoveLiquidity(address,(address,address,uint24,int24,address),(int24,int24,int256,bytes32),bytes)":"21d0ee70","beforeSwap(address,(address,address,uint24,int24,address),(bool,int256,uint160),bytes)":"575e24b4","developerAddress()":"caccd7f7","externalFee()":"bc904ef5","getHookPermissions()":"c4e833ce","getKeeperInfo()":"a0a6efef","getRoleAdmin(bytes32)":"248a9ca3","grantRole(bytes32,address)":"2f2ff15d","hasRole(bytes32,address)":"91d14854","internalFee()":"fbc6acf3","isInternalAddress(address)":"408a574b","isTokenListed(address)":"e69ec653","keeper()":"aced1661","keeperDeposit()":"3ccdecce","keeperFee()":"422ede42","listing()":"bc7c55ed","poolManager()":"dc4c90d3","positionManagerV4()":"8e001c96","renounceRole(bytes32,address)":"36568abe","returnSuperDCATokenOwnership()":"6e9e5c8e","revokeRole(bytes32,address)":"d547741f","setFee(uint8,uint24)":"74521a10","setInternalAddress(address,bool)":"7fa4a5bb","setListing(address)":"420d0463","setStaking(address)":"8ff39099","staking()":"4cf088d9","superDCAToken()":"a786742f","supportsInterface(bytes4)":"01ffc9a7","updateManager(address,address)":"07ecec3e"},"storageLayout":{"storage":[{"astId":39073,"contract":"src/SuperDCAGauge.sol:SuperDCAGauge","label":"_roles","offset":0,"slot":"0","type":"t_mapping(t_bytes32,t_struct(RoleData)39068_storage)"},{"astId":71171,"contract":"src/SuperDCAGauge.sol:SuperDCAGauge","label":"positionManagerV4","offset":0,"slot":"1","type":"t_contract(IPositionManager)69321"},{"astId":71174,"contract":"src/SuperDCAGauge.sol:SuperDCAGauge","label":"listing","offset":0,"slot":"2","type":"t_contract(ISuperDCAListing)73592"},{"astId":71208,"contract":"src/SuperDCAGauge.sol:SuperDCAGauge","label":"superDCAToken","offset":0,"slot":"3","type":"t_address"},{"astId":71211,"contract":"src/SuperDCAGauge.sol:SuperDCAGauge","label":"developerAddress","offset":0,"slot":"4","type":"t_address"},{"astId":71214,"contract":"src/SuperDCAGauge.sol:SuperDCAGauge","label":"internalFee","offset":20,"slot":"4","type":"t_uint24"},{"astId":71217,"contract":"src/SuperDCAGauge.sol:SuperDCAGauge","label":"externalFee","offset":23,"slot":"4","type":"t_uint24"},{"astId":71220,"contract":"src/SuperDCAGauge.sol:SuperDCAGauge","label":"keeperFee","offset":26,"slot":"4","type":"t_uint24"},{"astId":71225,"contract":"src/SuperDCAGauge.sol:SuperDCAGauge","label":"isInternalAddress","offset":0,"slot":"5","type":"t_mapping(t_address,t_bool)"},{"astId":71228,"contract":"src/SuperDCAGauge.sol:SuperDCAGauge","label":"keeper","offset":0,"slot":"6","type":"t_address"},{"astId":71231,"contract":"src/SuperDCAGauge.sol:SuperDCAGauge","label":"keeperDeposit","offset":0,"slot":"7","type":"t_uint256"},{"astId":71235,"contract":"src/SuperDCAGauge.sol:SuperDCAGauge","label":"staking","offset":0,"slot":"8","type":"t_contract(ISuperDCAStaking)73684"}],"types":{"t_address":{"encoding":"inplace","label":"address","numberOfBytes":"20"},"t_bool":{"encoding":"inplace","label":"bool","numberOfBytes":"1"},"t_bytes32":{"encoding":"inplace","label":"bytes32","numberOfBytes":"32"},"t_contract(IPositionManager)69321":{"encoding":"inplace","label":"contract IPositionManager","numberOfBytes":"20"},"t_contract(ISuperDCAListing)73592":{"encoding":"inplace","label":"contract ISuperDCAListing","numberOfBytes":"20"},"t_contract(ISuperDCAStaking)73684":{"encoding":"inplace","label":"contract ISuperDCAStaking","numberOfBytes":"20"},"t_mapping(t_address,t_bool)":{"encoding":"mapping","key":"t_address","label":"mapping(address => bool)","numberOfBytes":"32","value":"t_bool"},"t_mapping(t_bytes32,t_struct(RoleData)39068_storage)":{"encoding":"mapping","key":"t_bytes32","label":"mapping(bytes32 => struct AccessControl.RoleData)","numberOfBytes":"32","value":"t_struct(RoleData)39068_storage"},"t_struct(RoleData)39068_storage":{"encoding":"inplace","label":"struct AccessControl.RoleData","numberOfBytes":"64","members":[{"astId":39065,"contract":"src/SuperDCAGauge.sol:SuperDCAGauge","label":"hasRole","offset":0,"slot":"0","type":"t_mapping(t_address,t_bool)"},{"astId":39067,"contract":"src/SuperDCAGauge.sol:SuperDCAGauge","label":"adminRole","offset":0,"slot":"1","type":"t_bytes32"}]},"t_uint24":{"encoding":"inplace","label":"uint24","numberOfBytes":"3"},"t_uint256":{"encoding":"inplace","label":"uint256","numberOfBytes":"32"}}},"id":156}