{"abi":[{"type":"constructor","inputs":[],"stateMutability":"nonpayable"},{"type":"function","name":"UPGRADE_INTERFACE_VERSION","inputs":[],"outputs":[{"name":"","type":"string","internalType":"string"}],"stateMutability":"view"},{"type":"function","name":"batchResolveMarkets","inputs":[{"name":"questionIds","type":"bytes32[]","internalType":"bytes32[]"},{"name":"epochs","type":"uint256[]","internalType":"uint256[]"},{"name":"numberOfOutcomes","type":"uint256[]","internalType":"uint256[]"},{"name":"merkleRoots","type":"bytes32[]","internalType":"bytes32[]"}],"outputs":[],"stateMutability":"nonpayable"},{"type":"function","name":"emergencyResolver","inputs":[],"outputs":[{"name":"","type":"address","internalType":"address"}],"stateMutability":"view"},{"type":"function","name":"getConditionId","inputs":[{"name":"oracleAddr","type":"address","internalType":"address"},{"name":"questionId","type":"bytes32","internalType":"bytes32"},{"name":"numberOfOutcomes","type":"uint256","internalType":"uint256"},{"name":"epoch","type":"uint256","internalType":"uint256"}],"outputs":[{"name":"","type":"bytes32","internalType":"bytes32"}],"stateMutability":"pure"},{"type":"function","name":"getResolutionRoot","inputs":[{"name":"conditionId","type":"bytes32","internalType":"bytes32"}],"outputs":[{"name":"","type":"bytes32","internalType":"bytes32"}],"stateMutability":"view"},{"type":"function","name":"getResolutionStatus","inputs":[{"name":"conditionId","type":"bytes32","internalType":"bytes32"}],"outputs":[{"name":"","type":"bool","internalType":"bool"}],"stateMutability":"view"},{"type":"function","name":"initialize","inputs":[{"name":"_initialOwner","type":"address","internalType":"address"},{"name":"_oracle","type":"address","internalType":"address"}],"outputs":[],"stateMutability":"nonpayable"},{"type":"function","name":"isResolved","inputs":[{"name":"","type":"bytes32","internalType":"bytes32"}],"outputs":[{"name":"","type":"bool","internalType":"bool"}],"stateMutability":"view"},{"type":"function","name":"oracle","inputs":[],"outputs":[{"name":"","type":"address","internalType":"address"}],"stateMutability":"view"},{"type":"function","name":"owner","inputs":[],"outputs":[{"name":"","type":"address","internalType":"address"}],"stateMutability":"view"},{"type":"function","name":"proxiableUUID","inputs":[],"outputs":[{"name":"","type":"bytes32","internalType":"bytes32"}],"stateMutability":"view"},{"type":"function","name":"renounceOwnership","inputs":[],"outputs":[],"stateMutability":"nonpayable"},{"type":"function","name":"resolutionMerkleRoots","inputs":[{"name":"","type":"bytes32","internalType":"bytes32"}],"outputs":[{"name":"","type":"bytes32","internalType":"bytes32"}],"stateMutability":"view"},{"type":"function","name":"resolveMarketEpoch","inputs":[{"name":"questionId","type":"bytes32","internalType":"bytes32"},{"name":"epoch","type":"uint256","internalType":"uint256"},{"name":"numberOfOutcomes","type":"uint256","internalType":"uint256"},{"name":"merkleRoot","type":"bytes32","internalType":"bytes32"}],"outputs":[],"stateMutability":"nonpayable"},{"type":"function","name":"setEmergencyResolver","inputs":[{"name":"_emergencyResolver","type":"address","internalType":"address"}],"outputs":[],"stateMutability":"nonpayable"},{"type":"function","name":"setOracle","inputs":[{"name":"_oracle","type":"address","internalType":"address"}],"outputs":[],"stateMutability":"nonpayable"},{"type":"function","name":"transferOwnership","inputs":[{"name":"newOwner","type":"address","internalType":"address"}],"outputs":[],"stateMutability":"nonpayable"},{"type":"function","name":"updateEmergencyResolver","inputs":[{"name":"_emergencyResolver","type":"address","internalType":"address"}],"outputs":[],"stateMutability":"nonpayable"},{"type":"function","name":"updateOracle","inputs":[{"name":"_oracle","type":"address","internalType":"address"}],"outputs":[],"stateMutability":"nonpayable"},{"type":"function","name":"upgradeToAndCall","inputs":[{"name":"newImplementation","type":"address","internalType":"address"},{"name":"data","type":"bytes","internalType":"bytes"}],"outputs":[],"stateMutability":"payable"},{"type":"function","name":"verifyProof","inputs":[{"name":"conditionId","type":"bytes32","internalType":"bytes32"},{"name":"selectedOutcome","type":"uint256","internalType":"uint256"},{"name":"merkleProof","type":"bytes32[]","internalType":"bytes32[]"}],"outputs":[{"name":"","type":"bool","internalType":"bool"}],"stateMutability":"view"},{"type":"event","name":"ConditionResolved","inputs":[{"name":"conditionId","type":"bytes32","indexed":true,"internalType":"bytes32"},{"name":"questionId","type":"bytes32","indexed":true,"internalType":"bytes32"},{"name":"epoch","type":"uint256","indexed":true,"internalType":"uint256"},{"name":"merkleRoot","type":"bytes32","indexed":false,"internalType":"bytes32"}],"anonymous":false},{"type":"event","name":"Initialized","inputs":[{"name":"version","type":"uint64","indexed":false,"internalType":"uint64"}],"anonymous":false},{"type":"event","name":"OwnershipTransferred","inputs":[{"name":"previousOwner","type":"address","indexed":true,"internalType":"address"},{"name":"newOwner","type":"address","indexed":true,"internalType":"address"}],"anonymous":false},{"type":"event","name":"Upgraded","inputs":[{"name":"implementation","type":"address","indexed":true,"internalType":"address"}],"anonymous":false},{"type":"error","name":"AddressEmptyCode","inputs":[{"name":"target","type":"address","internalType":"address"}]},{"type":"error","name":"ERC1967InvalidImplementation","inputs":[{"name":"implementation","type":"address","internalType":"address"}]},{"type":"error","name":"ERC1967NonPayable","inputs":[]},{"type":"error","name":"FailedInnerCall","inputs":[]},{"type":"error","name":"InvalidInitialization","inputs":[]},{"type":"error","name":"NotInitializing","inputs":[]},{"type":"error","name":"OwnableInvalidOwner","inputs":[{"name":"owner","type":"address","internalType":"address"}]},{"type":"error","name":"OwnableUnauthorizedAccount","inputs":[{"name":"account","type":"address","internalType":"address"}]},{"type":"error","name":"ReentrancyGuardReentrantCall","inputs":[]},{"type":"error","name":"UUPSUnauthorizedCallContext","inputs":[]},{"type":"error","name":"UUPSUnsupportedProxiableUUID","inputs":[{"name":"slot","type":"bytes32","internalType":"bytes32"}]}],"bytecode":{"object":"0x60a080604052346100e857306080527ff0c57e16840df040f15088dc2f81fe391c3923bec73e23a9662efc9c229c6a005460ff8160401c166100d9576002600160401b03196001600160401b03821601610073575b60405161106490816100ed823960805181818161053001526107790152f35b6001600160401b0319166001600160401b039081177ff0c57e16840df040f15088dc2f81fe391c3923bec73e23a9662efc9c229c6a005581527fc7f505b2f371ae2175ee4913f4499e1f2633a7b5936321eed1cdaeb6115181d290602090a15f80610054565b63f92ee8a960e01b5f5260045ffd5b5f80fdfe60806040526004361015610011575f80fd5b5f3560e01c806304609bc814610ac75780631a26b71b146101f85780631cb44dfc1461033257806338bcc92f146101cf578063485cc9551461092e5780634f1ef286146106fd5780634fc746881461058457806352d1902d1461051e5780635ca441ce146102ad578063707b6fe6146103c2578063715018a61461035b5780637adbf973146103325780637dc0d1d01461030a5780638da5cb5b146102d65780639bc1c78b146102ad578063ad3cb1cc1461024f578063d006cd4f14610227578063de61ece1146101f8578063f1c0436a146101cf578063f2fde38b146101a45763f349e89814610100575f80fd5b346101a05760803660031901126101a0576002546001600160a01b03163314801561018c575b61012f90610c99565b60025f80516020610fef833981519152541461017d5760025f80516020610fef8339815191525561016a606435604435602435600435610dad565b60015f80516020610fef83398151915255005b633ee5aeb560e01b5f5260045ffd5b506003546001600160a01b03163314610126565b5f80fd5b346101a05760203660031901126101a0576101cd6101c0610afe565b6101c8610d7a565b610d09565b005b346101a05760203660031901126101a0576101cd6101eb610afe565b6101f3610d7a565b610c25565b346101a05760203660031901126101a0576004355f526001602052602060ff60405f2054166040519015158152f35b346101a0575f3660031901126101a0576003546040516001600160a01b039091168152602090f35b346101a0575f3660031901126101a057604080519061026e8183610b14565b600582526020820191640352e302e360dc1b83528151928391602083525180918160208501528484015e5f828201840152601f01601f19168101030190f35b346101a05760203660031901126101a0576004355f525f602052602060405f2054604051908152f35b346101a0575f3660031901126101a0575f80516020610faf833981519152546040516001600160a01b039091168152602090f35b346101a0575f3660031901126101a0576002546040516001600160a01b039091168152602090f35b346101a05760203660031901126101a0576101cd61034e610afe565b610356610d7a565b610bc3565b346101a0575f3660031901126101a057610373610d7a565b5f80516020610faf83398151915280546001600160a01b031981169091555f906001600160a01b03167f8be0079c531659141344cd1fd0a4f28419497f9722a3daafe3b4186f6b6457e08280a3005b346101a05760603660031901126101a05760443567ffffffffffffffff81116101a0576103f3903690600401610b52565b906004355f525f60205260405f20549081156104e0576040516020810190602435825260208152610425604082610b14565b5190209067ffffffffffffffff84116104cc578360051b6040519461044d6020830187610b14565b855260208501908201913683116101a057905b8282106104bc575050505f905b83518210156104af5760208260051b85010151908181105f1461049e575f52602052600160405f205b91019061046d565b905f52602052600160405f20610496565b6020908360405191148152f35b8135815260209182019101610460565b634e487b7160e01b5f52604160045260245ffd5b60405162461bcd60e51b815260206004820152601660248201527510dbdb991a5d1a5bdb881b9bdd081c995cdbdb1d995960521b6044820152606490fd5b346101a0575f3660031901126101a0577f00000000000000000000000000000000000000000000000000000000000000006001600160a01b031630036105755760206040515f80516020610fcf8339815191528152f35b63703e46dd60e11b5f5260045ffd5b346101a05760803660031901126101a05760043567ffffffffffffffff81116101a0576105b5903690600401610b52565b60243567ffffffffffffffff81116101a0576105d5903690600401610b52565b9060443567ffffffffffffffff81116101a0576105f6903690600401610b52565b939060643567ffffffffffffffff81116101a057610618903690600401610b52565b95909260018060a01b0360025416331480156106e9575b61063890610c99565b858114806106e0575b806106d7575b1561069a575f5b81811061065757005b80610694610668600193858d610ce5565b358a610675848c8c610ce5565b3561068d85610685818b8d610ce5565b35938c610ce5565b3592610dad565b0161064e565b60405162461bcd60e51b8152602060048201526015602482015274082e4e4c2f240d8cadccee8d040dad2e6dac2e8c6d605b1b6044820152606490fd5b50868214610647565b50818614610641565b506003546001600160a01b0316331461062f565b60403660031901126101a057610711610afe565b6024359067ffffffffffffffff82116101a057366023830112156101a05781600401359061073e82610b36565b9161074c6040519384610b14565b808352602083019336602483830101116101a057815f926024602093018737840101526001600160a01b037f00000000000000000000000000000000000000000000000000000000000000001630811490811561090c575b50610575576107b1610d7a565b6040516352d1902d60e01b81526001600160a01b0382169390602081600481885afa5f91816108d8575b506107f35784634c9c8ce360e01b5f5260045260245ffd5b805f80516020610fcf8339815191528692036108c65750823b156108b4575f80516020610fcf83398151915280546001600160a01b031916821790557fbc7cd75a20ee27fd9adebab32041f755214dbc6bffa90cc0225b39da2e5c2d3b5f80a282511561089b575f80916101cd945190845af43d15610893573d9161087783610b36565b926108856040519485610b14565b83523d5f602085013e610f50565b606091610f50565b505050346108a557005b63b398979f60e01b5f5260045ffd5b634c9c8ce360e01b5f5260045260245ffd5b632a87526960e21b5f5260045260245ffd5b9091506020813d602011610904575b816108f460209383610b14565b810103126101a0575190866107db565b3d91506108e7565b5f80516020610fcf833981519152546001600160a01b031614159050846107a4565b346101a05760403660031901126101a057610947610afe565b6024356001600160a01b038116908190036101a0575f8051602061100f8339815191525460ff8160401c16159267ffffffffffffffff821680159081610abf575b6001149081610ab5575b159081610aac575b50610a9d5767ffffffffffffffff1982166001175f8051602061100f833981519152556109d89184610a71575b506109d0610f25565b6101c8610f25565b6109e0610f25565b6109e8610f25565b6109f0610f25565b60015f80516020610fef833981519152556001600160601b0360a01b6002541617600255610a1a57005b68ff0000000000000000195f8051602061100f83398151915254165f8051602061100f833981519152557fc7f505b2f371ae2175ee4913f4499e1f2633a7b5936321eed1cdaeb6115181d2602060405160018152a1005b68ffffffffffffffffff191668010000000000000001175f8051602061100f83398151915255846109c7565b63f92ee8a960e01b5f5260045ffd5b9050158561099a565b303b159150610992565b859150610988565b346101a05760803660031901126101a0576020610af6610ae5610afe565b606435906044359060243590610b83565b604051908152f35b600435906001600160a01b03821682036101a057565b90601f8019910116810190811067ffffffffffffffff8211176104cc57604052565b67ffffffffffffffff81116104cc57601f01601f191660200190565b9181601f840112156101a05782359167ffffffffffffffff83116101a0576020808501948460051b0101116101a057565b9290916040519260208401946001600160601b03199060601b16855260348401526054830152607482015260748152610bbd609482610b14565b51902090565b6001600160a01b03168015610be7576001600160601b0360a01b6002541617600255565b60405162461bcd60e51b8152602060048201526016602482015275496e76616c6964206f7261636c65206164647265737360501b6044820152606490fd5b6001600160a01b03168015610c49576001600160601b0360a01b6003541617600355565b60405162461bcd60e51b815260206004820152602260248201527f496e76616c696420656d657267656e6379207265736f6c766572206164647265604482015261737360f01b6064820152608490fd5b15610ca057565b60405162461bcd60e51b815260206004820152601960248201527f4e6f7420617574686f72697a656420746f207265736f6c7665000000000000006044820152606490fd5b9190811015610cf55760051b0190565b634e487b7160e01b5f52603260045260245ffd5b6001600160a01b03168015610d67575f80516020610faf83398151915280546001600160a01b0319811683179091556001600160a01b03167f8be0079c531659141344cd1fd0a4f28419497f9722a3daafe3b4186f6b6457e05f80a3565b631e4fbdf760e01b5f525f60045260245ffd5b5f80516020610faf833981519152546001600160a01b03163303610d9a57565b63118cdaa760e01b5f523360045260245ffd5b919290928315610ef0578015610eb3578115610e7857600254610ddc91859185906001600160a01b0316610b83565b90815f52600160205260ff60405f205416610e405760207f70da2153e146da6fd8a4de88bef9d324078bd3646e3607337381f6becf89778991835f525f82528060405f2055835f526001825260405f20600160ff19825416179055604051908152a4565b60405162461bcd60e51b815260206004820152601060248201526f105b1c9958591e481c995cdbdb1d995960821b6044820152606490fd5b60405162461bcd60e51b8152602060048201526013602482015272125b9d985b1a59081b595c9adb19481c9bdbdd606a1b6044820152606490fd5b60405162461bcd60e51b8152602060048201526015602482015274125b9d985b1a59081bdd5d18dbdb594818dbdd5b9d605a1b6044820152606490fd5b60405162461bcd60e51b815260206004820152600d60248201526c092dcecc2d8d2c840cae0dec6d609b1b6044820152606490fd5b60ff5f8051602061100f8339815191525460401c1615610f4157565b631afcd79f60e31b5f5260045ffd5b90610f745750805115610f6557805190602001fd5b630a12f52160e11b5f5260045ffd5b81511580610fa5575b610f85575090565b639996b31560e01b5f9081526001600160a01b0391909116600452602490fd5b50803b15610f7d56fe9016d09d72d40fdae2fd8ceac6b6234c7706214fd39c1cd1e609a0528c199300360894a13ba1a3210667c828492db98dca3e2076cc3735a920a3ca505d382bbc9b779b17422d0df92223018b32b4d1fa46e071723d6817e2486d003becc55f00f0c57e16840df040f15088dc2f81fe391c3923bec73e23a9662efc9c229c6a00a26469706673582212203e3caaae1682c827442e7eb51aafecee85162ac1a812170fc3ea57d9b747b7a864736f6c634300081a0033","linkReferences":{}},"methodIdentifiers":{"UPGRADE_INTERFACE_VERSION()":"ad3cb1cc","batchResolveMarkets(bytes32[],uint256[],uint256[],bytes32[])":"4fc74688","emergencyResolver()":"d006cd4f","getConditionId(address,bytes32,uint256,uint256)":"04609bc8","getResolutionRoot(bytes32)":"5ca441ce","getResolutionStatus(bytes32)":"1a26b71b","initialize(address,address)":"485cc955","isResolved(bytes32)":"de61ece1","oracle()":"7dc0d1d0","owner()":"8da5cb5b","proxiableUUID()":"52d1902d","renounceOwnership()":"715018a6","resolutionMerkleRoots(bytes32)":"9bc1c78b","resolveMarketEpoch(bytes32,uint256,uint256,bytes32)":"f349e898","setEmergencyResolver(address)":"38bcc92f","setOracle(address)":"7adbf973","transferOwnership(address)":"f2fde38b","updateEmergencyResolver(address)":"f1c0436a","updateOracle(address)":"1cb44dfc","upgradeToAndCall(address,bytes)":"4f1ef286","verifyProof(bytes32,uint256,bytes32[])":"707b6fe6"},"id":69}