{"abi":[{"type":"constructor","inputs":[],"stateMutability":"nonpayable"},{"type":"function","name":"UPGRADE_INTERFACE_VERSION","inputs":[],"outputs":[{"name":"","type":"string","internalType":"string"}],"stateMutability":"view"},{"type":"function","name":"balanceOf","inputs":[{"name":"account","type":"address","internalType":"address"},{"name":"id","type":"uint256","internalType":"uint256"}],"outputs":[{"name":"","type":"uint256","internalType":"uint256"}],"stateMutability":"view"},{"type":"function","name":"balanceOfBatch","inputs":[{"name":"accounts","type":"address[]","internalType":"address[]"},{"name":"ids","type":"uint256[]","internalType":"uint256[]"}],"outputs":[{"name":"","type":"uint256[]","internalType":"uint256[]"}],"stateMutability":"view"},{"type":"function","name":"burn","inputs":[{"name":"from","type":"address","internalType":"address"},{"name":"id","type":"uint256","internalType":"uint256"},{"name":"amount","type":"uint256","internalType":"uint256"}],"outputs":[],"stateMutability":"nonpayable"},{"type":"function","name":"burnBatch","inputs":[{"name":"from","type":"address","internalType":"address"},{"name":"ids","type":"uint256[]","internalType":"uint256[]"},{"name":"amounts","type":"uint256[]","internalType":"uint256[]"}],"outputs":[],"stateMutability":"nonpayable"},{"type":"function","name":"getTokenId","inputs":[{"name":"conditionId","type":"bytes32","internalType":"bytes32"},{"name":"selectedOutcome","type":"uint256","internalType":"uint256"}],"outputs":[{"name":"","type":"uint256","internalType":"uint256"}],"stateMutability":"pure"},{"type":"function","name":"initialize","inputs":[{"name":"_initialOwner","type":"address","internalType":"address"}],"outputs":[],"stateMutability":"nonpayable"},{"type":"function","name":"isApprovedForAll","inputs":[{"name":"account","type":"address","internalType":"address"},{"name":"operator","type":"address","internalType":"address"}],"outputs":[{"name":"","type":"bool","internalType":"bool"}],"stateMutability":"view"},{"type":"function","name":"marketController","inputs":[],"outputs":[{"name":"","type":"address","internalType":"address"}],"stateMutability":"view"},{"type":"function","name":"mintBatch","inputs":[{"name":"to","type":"address","internalType":"address"},{"name":"ids","type":"uint256[]","internalType":"uint256[]"},{"name":"amounts","type":"uint256[]","internalType":"uint256[]"}],"outputs":[],"stateMutability":"nonpayable"},{"type":"function","name":"owner","inputs":[],"outputs":[{"name":"","type":"address","internalType":"address"}],"stateMutability":"view"},{"type":"function","name":"proxiableUUID","inputs":[],"outputs":[{"name":"","type":"bytes32","internalType":"bytes32"}],"stateMutability":"view"},{"type":"function","name":"renounceOwnership","inputs":[],"outputs":[],"stateMutability":"nonpayable"},{"type":"function","name":"safeBatchTransferFrom","inputs":[{"name":"from","type":"address","internalType":"address"},{"name":"to","type":"address","internalType":"address"},{"name":"ids","type":"uint256[]","internalType":"uint256[]"},{"name":"values","type":"uint256[]","internalType":"uint256[]"},{"name":"data","type":"bytes","internalType":"bytes"}],"outputs":[],"stateMutability":"nonpayable"},{"type":"function","name":"safeTransferFrom","inputs":[{"name":"from","type":"address","internalType":"address"},{"name":"to","type":"address","internalType":"address"},{"name":"id","type":"uint256","internalType":"uint256"},{"name":"value","type":"uint256","internalType":"uint256"},{"name":"data","type":"bytes","internalType":"bytes"}],"outputs":[],"stateMutability":"nonpayable"},{"type":"function","name":"setApprovalForAll","inputs":[{"name":"operator","type":"address","internalType":"address"},{"name":"approved","type":"bool","internalType":"bool"}],"outputs":[],"stateMutability":"nonpayable"},{"type":"function","name":"setMarketController","inputs":[{"name":"_marketController","type":"address","internalType":"address"}],"outputs":[],"stateMutability":"nonpayable"},{"type":"function","name":"supportsInterface","inputs":[{"name":"interfaceId","type":"bytes4","internalType":"bytes4"}],"outputs":[{"name":"","type":"bool","internalType":"bool"}],"stateMutability":"view"},{"type":"function","name":"transferOwnership","inputs":[{"name":"newOwner","type":"address","internalType":"address"}],"outputs":[],"stateMutability":"nonpayable"},{"type":"function","name":"updateMarketController","inputs":[{"name":"_marketController","type":"address","internalType":"address"}],"outputs":[],"stateMutability":"nonpayable"},{"type":"function","name":"upgradeToAndCall","inputs":[{"name":"newImplementation","type":"address","internalType":"address"},{"name":"data","type":"bytes","internalType":"bytes"}],"outputs":[],"stateMutability":"payable"},{"type":"function","name":"uri","inputs":[{"name":"","type":"uint256","internalType":"uint256"}],"outputs":[{"name":"","type":"string","internalType":"string"}],"stateMutability":"view"},{"type":"event","name":"ApprovalForAll","inputs":[{"name":"account","type":"address","indexed":true,"internalType":"address"},{"name":"operator","type":"address","indexed":true,"internalType":"address"},{"name":"approved","type":"bool","indexed":false,"internalType":"bool"}],"anonymous":false},{"type":"event","name":"Initialized","inputs":[{"name":"version","type":"uint64","indexed":false,"internalType":"uint64"}],"anonymous":false},{"type":"event","name":"OwnershipTransferred","inputs":[{"name":"previousOwner","type":"address","indexed":true,"internalType":"address"},{"name":"newOwner","type":"address","indexed":true,"internalType":"address"}],"anonymous":false},{"type":"event","name":"PositionTokensBurned","inputs":[{"name":"from","type":"address","indexed":true,"internalType":"address"},{"name":"ids","type":"uint256[]","indexed":false,"internalType":"uint256[]"},{"name":"amounts","type":"uint256[]","indexed":false,"internalType":"uint256[]"},{"name":"conditionId","type":"bytes32","indexed":true,"internalType":"bytes32"}],"anonymous":false},{"type":"event","name":"PositionTokensMinted","inputs":[{"name":"to","type":"address","indexed":true,"internalType":"address"},{"name":"ids","type":"uint256[]","indexed":false,"internalType":"uint256[]"},{"name":"amounts","type":"uint256[]","indexed":false,"internalType":"uint256[]"},{"name":"conditionId","type":"bytes32","indexed":true,"internalType":"bytes32"}],"anonymous":false},{"type":"event","name":"TransferBatch","inputs":[{"name":"operator","type":"address","indexed":true,"internalType":"address"},{"name":"from","type":"address","indexed":true,"internalType":"address"},{"name":"to","type":"address","indexed":true,"internalType":"address"},{"name":"ids","type":"uint256[]","indexed":false,"internalType":"uint256[]"},{"name":"values","type":"uint256[]","indexed":false,"internalType":"uint256[]"}],"anonymous":false},{"type":"event","name":"TransferSingle","inputs":[{"name":"operator","type":"address","indexed":true,"internalType":"address"},{"name":"from","type":"address","indexed":true,"internalType":"address"},{"name":"to","type":"address","indexed":true,"internalType":"address"},{"name":"id","type":"uint256","indexed":false,"internalType":"uint256"},{"name":"value","type":"uint256","indexed":false,"internalType":"uint256"}],"anonymous":false},{"type":"event","name":"URI","inputs":[{"name":"value","type":"string","indexed":false,"internalType":"string"},{"name":"id","type":"uint256","indexed":true,"internalType":"uint256"}],"anonymous":false},{"type":"event","name":"Upgraded","inputs":[{"name":"implementation","type":"address","indexed":true,"internalType":"address"}],"anonymous":false},{"type":"error","name":"AddressEmptyCode","inputs":[{"name":"target","type":"address","internalType":"address"}]},{"type":"error","name":"ERC1155InsufficientBalance","inputs":[{"name":"sender","type":"address","internalType":"address"},{"name":"balance","type":"uint256","internalType":"uint256"},{"name":"needed","type":"uint256","internalType":"uint256"},{"name":"tokenId","type":"uint256","internalType":"uint256"}]},{"type":"error","name":"ERC1155InvalidApprover","inputs":[{"name":"approver","type":"address","internalType":"address"}]},{"type":"error","name":"ERC1155InvalidArrayLength","inputs":[{"name":"idsLength","type":"uint256","internalType":"uint256"},{"name":"valuesLength","type":"uint256","internalType":"uint256"}]},{"type":"error","name":"ERC1155InvalidOperator","inputs":[{"name":"operator","type":"address","internalType":"address"}]},{"type":"error","name":"ERC1155InvalidReceiver","inputs":[{"name":"receiver","type":"address","internalType":"address"}]},{"type":"error","name":"ERC1155InvalidSender","inputs":[{"name":"sender","type":"address","internalType":"address"}]},{"type":"error","name":"ERC1155MissingApprovalForAll","inputs":[{"name":"operator","type":"address","internalType":"address"},{"name":"owner","type":"address","internalType":"address"}]},{"type":"error","name":"ERC1967InvalidImplementation","inputs":[{"name":"implementation","type":"address","internalType":"address"}]},{"type":"error","name":"ERC1967NonPayable","inputs":[]},{"type":"error","name":"FailedInnerCall","inputs":[]},{"type":"error","name":"InvalidInitialization","inputs":[]},{"type":"error","name":"NotInitializing","inputs":[]},{"type":"error","name":"OwnableInvalidOwner","inputs":[{"name":"owner","type":"address","internalType":"address"}]},{"type":"error","name":"OwnableUnauthorizedAccount","inputs":[{"name":"account","type":"address","internalType":"address"}]},{"type":"error","name":"UUPSUnauthorizedCallContext","inputs":[]},{"type":"error","name":"UUPSUnsupportedProxiableUUID","inputs":[{"name":"slot","type":"bytes32","internalType":"bytes32"}]}],"bytecode":{"object":"0x60a080604052346100e857306080527ff0c57e16840df040f15088dc2f81fe391c3923bec73e23a9662efc9c229c6a005460ff8160401c166100d9576002600160401b03196001600160401b03821601610073575b604051611cbf90816100ed82396080518181816106b001526107d80152f35b6001600160401b0319166001600160401b039081177ff0c57e16840df040f15088dc2f81fe391c3923bec73e23a9662efc9c229c6a005581527fc7f505b2f371ae2175ee4913f4499e1f2633a7b5936321eed1cdaeb6115181d290602090a15f80610054565b63f92ee8a960e01b5f5260045ffd5b5f80fdfe60806040526004361015610011575f80fd5b5f3560e01c8062fdd58e1461016e57806301ffc9a7146101695780630e89341c146101645780632eb2c2d61461015f5780634e1273f41461015a5780634f1ef2861461015557806352d1902d14610150578063630823a21461012d57806368a4c5761461014b5780636b20c45414610146578063715018a6146101415780638da5cb5b1461013c578063a22cb46514610137578063ad3cb1cc14610132578063b5330b8b1461012d578063c4d66de814610128578063d81d0a1514610123578063e985e9c51461011e578063e9aa81b914610119578063f242432a14610114578063f2fde38b1461010f5763f5298aca1461010a575f80fd5b610f53565b610f2a565b610e5b565b610e34565b610df7565b610c8a565b610b1e565b61081d565b610ad7565b610a31565b6109fd565b610996565b61091c565b610846565b6107c6565b610672565b6105b3565b6104e3565b6102d7565b610231565b6101b7565b600435906001600160a01b038216820361018957565b5f80fd5b602435906001600160a01b038216820361018957565b35906001600160a01b038216820361018957565b346101895760403660031901126101895760206102166101d5610173565b6024355f527f88be536d5240c274a3b1d3a1be54482fd9caa294f08c62a7cde569f49a3c4500835260405f209060018060a01b03165f5260205260405f2090565b54604051908152f35b6001600160e01b031981160361018957565b346101895760203660031901126101895760206004356102508161021f565b63ffffffff60e01b16636cdb3d1360e11b811490811561028e575b811561027d575b506040519015158152f35b6301ffc9a760e01b1490505f610272565b6303a24d0760e21b8114915061026b565b805180835260209291819084018484015e5f828201840152601f01601f1916010190565b9060206102d492818152019061029f565b90565b34610189576020366003190112610189576040515f5f80516020611c6a833981519152546103048161107e565b80845290600181169081156103a6575060011461033c575b6103388361032c818503826103de565b604051918291826102c3565b0390f35b5f80516020611c6a8339815191525f9081527ff429cb5e2ec84cbb765e76b31964a56ccde03e7a6122d6cc4afb19edc55edeed939250905b80821061038c5750909150810160200161032c61031c565b919260018160209254838588010152019101909291610374565b60ff191660208086019190915291151560051b8401909101915061032c905061031c565b634e487b7160e01b5f52604160045260245ffd5b90601f801991011681019081106001600160401b038211176103ff57604052565b6103ca565b6001600160401b0381116103ff5760051b60200190565b92919061042781610404565b9361043560405195866103de565b602085838152019160051b810192831161018957905b82821061045757505050565b813581526020918201910161044b565b9080601f83011215610189578160206102d49335910161041b565b6001600160401b0381116103ff57601f01601f191660200190565b81601f82011215610189578035906104b482610482565b926104c260405194856103de565b8284526020838301011161018957815f926020809301838601378301015290565b346101895760a0366003190112610189576104fc610173565b61050461018d565b906044356001600160401b03811161018957610524903690600401610467565b6064356001600160401b03811161018957610543903690600401610467565b90608435936001600160401b0385116101895761056761056d95369060040161049d565b936110b6565b005b90602080835192838152019201905f5b81811061058c5750505090565b825184526020938401939092019160010161057f565b9060206102d492818152019061056f565b34610189576040366003190112610189576004356001600160401b0381116101895736602382011215610189578060040135906105ef82610404565b916105fd60405193846103de565b8083526024602084019160051b8301019136831161018957602401905b82821061065a57836024356001600160401b038111610189576103389161064861064e923690600401610467565b90611131565b604051918291826105a2565b60208091610667846101a3565b81520191019061061a565b604036600319011261018957610686610173565b6024356001600160401b038111610189576106a590369060040161049d565b906001600160a01b037f0000000000000000000000000000000000000000000000000000000000000000163081149081156107a4575b50610795576106e8611476565b6040516352d1902d60e01b8152916020836004816001600160a01b0386165afa5f9381610764575b5061073157634c9c8ce360e01b5f526001600160a01b03821660045260245ffd5b905f80516020611c2a83398151915283036107505761056d92506117bb565b632a87526960e21b5f52600483905260245ffd5b61078791945060203d60201161078e575b61077f81836103de565b810190611467565b925f610710565b503d610775565b63703e46dd60e11b5f5260045ffd5b5f80516020611c2a833981519152546001600160a01b0316141590505f6106db565b34610189575f366003190112610189577f00000000000000000000000000000000000000000000000000000000000000006001600160a01b031630036107955760206040515f80516020611c2a8339815191528152f35b346101895760203660031901126101895761056d610839610173565b610841611476565b6111c6565b3461018957604036600319011261018957602060243560405182810191600435835260408201526040815261087c6060826103de565b519020604051908152f35b9181601f84011215610189578235916001600160401b038311610189576020808501948460051b01011161018957565b906060600319830112610189576004356001600160a01b038116810361018957916024356001600160401b03811161018957816108f691600401610887565b92909291604435906001600160401b0382116101895761091891600401610887565b9091565b346101895761095a610952610930366108b7565b9593949161094b60018060a09694961b035f54163314611231565b369161041b565b93369161041b565b6001600160a01b038216156109845761056d926040519261097c6020856103de565b5f84526114bd565b626a0d4560e21b5f525f60045260245ffd5b34610189575f366003190112610189576109ae611476565b5f80516020611c0a83398151915280546001600160a01b031981169091555f906001600160a01b03167f8be0079c531659141344cd1fd0a4f28419497f9722a3daafe3b4186f6b6457e08280a3005b34610189575f366003190112610189575f80516020611c0a833981519152546040516001600160a01b039091168152602090f35b3461018957604036600319011261018957610a4a610173565b602435801515809103610189576001600160a01b038216918215610ac557610a8a90610a7533610fff565b9060018060a01b03165f5260205260405f2090565b60ff1981541660ff83161790556040519081527f17307eab39ab6107e8899845ad3d59bd9653f200f220920489ca2b5937696c3160203392a3005b62ced3e160e81b5f525f60045260245ffd5b34610189575f36600319011261018957610338604051610af86040826103de565b60058152640352e302e360dc1b602082015260405191829160208352602083019061029f565b3461018957602036600319011261018957610b37610173565b5f80516020611c4a83398151915254906001600160401b03610b6860ff604085901c1615936001600160401b031690565b1680159081610c82575b6001149081610c78575b159081610c6f575b50610c6057610bc79082610bbe60016001600160401b03195f80516020611c4a8339815191525416175f80516020611c4a83398151915255565b610c2657611292565b610bcd57005b610bf760ff60401b195f80516020611c4a83398151915254165f80516020611c4a83398151915255565b604051600181527fc7f505b2f371ae2175ee4913f4499e1f2633a7b5936321eed1cdaeb6115181d290602090a1005b610c5b6801000000000000000060ff60401b195f80516020611c4a8339815191525416175f80516020611c4a83398151915255565b611292565b63f92ee8a960e01b5f5260045ffd5b9050155f610b84565b303b159150610b7c565b839150610b72565b3461018957610c9e610952610930366108b7565b604051916020610cae81856103de565b5f84526001600160a01b038216938415610de4578551845190818103610dcf5750505f5b8651811015610d0f578087610d07610cff87610a75888060019860051b8097010151958c01015194610fd2565b918254611888565b905501610cd2565b509392919260018651145f14610d94575f828701517fc3d58168c5ae7397731d063d5bbf3d657854427343f4c083240f7aacaa2d0f62610d678587015160405191829133958360209093929193604081019481520152565b0390a45b8451600103610d86578061056d950151910151915f33611a94565b50909261056d935f33611965565b5f6040517f4a39dc06d4c0dbc64b70af90fd698a233a518aa5d07e595d983b8c0526c8f7fb339180610dc7888c836118a9565b0390a4610d6b565b635b05999160e01b5f5260045260245260445ffd5b632bfa23e760e11b5f525f60045260245ffd5b3461018957604036600319011261018957602060ff610e28610e17610173565b610a75610e2261018d565b91610fff565b54166040519015158152f35b34610189575f366003190112610189575f546040516001600160a01b039091168152602090f35b346101895760a036600319011261018957610e74610173565b610e7c61018d565b60443590606435926084356001600160401b03811161018957610ea390369060040161049d565b926001600160a01b0382163381141580610f19575b610f03576001600160a01b03841615610de457156109845761056d94610efb60405192600184526020840152604083019160018352606084015260808301604052565b9290916115fd565b63711bec9160e11b5f523360045260245260445ffd5b50610f2433846113e2565b15610eb8565b346101895760203660031901126101895761056d610f46610173565b610f4e611476565b6113f6565b3461018957606036600319011261018957610f6c610173565b6024359060443591610f8860018060a01b035f54163314611231565b6001600160a01b038216156109845761056d92610fc260405192600184526020840152604083019160018352606084015260808301604052565b906040519261097c6020856103de565b5f527f88be536d5240c274a3b1d3a1be54482fd9caa294f08c62a7cde569f49a3c450060205260405f2090565b6001600160a01b03165f9081527f88be536d5240c274a3b1d3a1be54482fd9caa294f08c62a7cde569f49a3c45016020526040902090565b61107a915f527f88be536d5240c274a3b1d3a1be54482fd9caa294f08c62a7cde569f49a3c450060205260405f209060018060a01b03165f5260205260405f2090565b5490565b90600182811c921680156110ac575b602083101461109857565b634e487b7160e01b5f52602260045260245ffd5b91607f169161108d565b939291906001600160a01b03851633811415806110f1575b610f03576001600160a01b03821615610de45715610984576110ef946115fd565b565b5060ff61110133610a7589610fff565b5416156110ce565b805182101561111d5760209160051b010190565b634e487b7160e01b5f52603260045260245ffd5b919091805183518082036111b157505080519061114d82610404565b9161115b60405193846103de565b80835261116a601f1991610404565b013660208401375f5b81518110156111aa578061119960019260051b6020808287010151918901015190611037565b6111a38286611109565b5201611173565b5090925050565b635b05999160e01b5f5260045260245260445ffd5b6001600160a01b031680156111ed576bffffffffffffffffffffffff60a01b5f5416175f55565b606460405162461bcd60e51b815260206004820152602060248201527f496e76616c6964204d61726b6574436f6e74726f6c6c657220616464726573736044820152fd5b1561123857565b60405162461bcd60e51b815260206004820152602c60248201527f4f6e6c79204d61726b6574436f6e74726f6c6c65722063616e2063616c6c207460448201526b3434b990333ab731ba34b7b760a11b6064820152608490fd5b60405160206112a181836103de565b5f82526112ac61185d565b6112b461185d565b8151916001600160401b0383116103ff576112e5836112e05f80516020611c6a8339815191525461107e565b611b4f565b602091601f84116001146113415750918061131a9261132e95945f92611336575b50508160011b915f199060031b1c19161790565b5f80516020611c6a833981519152556114a9565b6110ef61185d565b015190505f80611306565b5f80516020611c6a8339815191525f529190601f1984167ff429cb5e2ec84cbb765e76b31964a56ccde03e7a6122d6cc4afb19edc55edeed935f905b8282106113ca57505091600193918561132e979694106113b2575b505050811b015f80516020611c6a833981519152556114a9565b01515f1960f88460031b161c191690555f8080611398565b8060018697829497870151815501960194019061137d565b60ff91610a756113f192610fff565b541690565b6001600160a01b03168015611454575f80516020611c0a83398151915280546001600160a01b0319811683179091556001600160a01b03167f8be0079c531659141344cd1fd0a4f28419497f9722a3daafe3b4186f6b6457e05f80a3565b631e4fbdf760e01b5f525f60045260245ffd5b90816020910312610189575190565b5f80516020611c0a833981519152546001600160a01b0316330361149657565b63118cdaa760e01b5f523360045260245ffd5b6110ef906114b561185d565b610f4e61185d565b9092508251825190818103610dcf5750506001600160a01b038116801515949093905f5b8251811015611574578060051b87602080838701015192880101519061150c575b50506001016114e1565b61151986610a7584610fd2565b5481811061153d5786610a756001959493611535930393610fd2565b55905f611502565b6040516303dee4c560e01b81526001600160a01b038816600482015260248101919091526044810182905260648101839052608490fd5b5094505f93929150600181511484146115ca5760209081015191810151604080519384529183015233917fc3d58168c5ae7397731d063d5bbf3d657854427343f4c083240f7aacaa2d0f6291819081015b0390a4565b60405133927f4a39dc06d4c0dbc64b70af90fd698a233a518aa5d07e595d983b8c0526c8f7fb9282916115c591836118a9565b9493929091938451825190818103610dcf5750506001600160a01b038681169586151595918516801515939192905f5b84518110156116ee578060051b90898988602080868b010151958c0101519261167d575b93600194611663575b5050500161162d565b61167391610a75610cff92610fd2565b90555f898161165a565b5050909161168e8d610a7583610fd2565b548281106116b7578291898f6116ae600197968f950391610a7585610fd2565b55909450611651565b6040516303dee4c560e01b81526001600160a01b038f16600482015260248101919091526044810183905260648101829052608490fd5b5091989593929790965060018851145f146117815760208881015186820151604080519283529282015233917fc3d58168c5ae7397731d063d5bbf3d657854427343f4c083240f7aacaa2d0f6291a45b61174a575b5050505050565b8451600103611770576020806117669601519201519233611a94565b5f80808080611743565b61177c94919233611965565b611766565b6040517f4a39dc06d4c0dbc64b70af90fd698a233a518aa5d07e595d983b8c0526c8f7fb3391806117b3898d836118a9565b0390a461173e565b90813b1561183c575f80516020611c2a83398151915280546001600160a01b0319166001600160a01b0384169081179091557fbc7cd75a20ee27fd9adebab32041f755214dbc6bffa90cc0225b39da2e5c2d3b5f80a28051156118245761182191611b32565b50565b50503461182d57565b63b398979f60e01b5f5260045ffd5b50634c9c8ce360e01b5f9081526001600160a01b0391909116600452602490fd5b60ff5f80516020611c4a8339815191525460401c161561187957565b631afcd79f60e31b5f5260045ffd5b9190820180921161189557565b634e487b7160e01b5f52601160045260245ffd5b90916118c06102d49360408452604084019061056f565b91602081840391015261056f565b9081602091031261018957516102d48161021f565b6001600160a01b0391821681529116602082015260a0604082018190526102d49491939192611928929161191a919086019061056f565b90848203606086015261056f565b91608081840391015261029f565b3d15611960573d9061194782610482565b9161195560405193846103de565b82523d5f602084013e565b606090565b9091949293853b611979575b505050505050565b60209361199b91604051968795869563bc197c8160e01b8752600487016118e3565b03815f6001600160a01b0387165af15f9181611a2a575b506119ec57506119c0611936565b80519190826119e557632bfa23e760e11b5f526001600160a01b03821660045260245ffd5b9050602001fd5b6001600160e01b0319166343e6837f60e01b01611a0f57505f8080808080611971565b632bfa23e760e11b5f526001600160a01b031660045260245ffd5b611a4d91925060203d602011611a54575b611a4581836103de565b8101906118ce565b905f6119b2565b503d611a3b565b6001600160a01b039182168152911660208201526040810191909152606081019190915260a0608082018190526102d49291019061029f565b9091949293853b611aa757505050505050565b602093611ac991604051968795869563f23a6e6160e01b875260048701611a5b565b03815f6001600160a01b0387165af15f9181611b11575b50611aee57506119c0611936565b6001600160e01b031916630dc5919f60e01b01611a0f57505f8080808080611971565b611b2b91925060203d602011611a5457611a4581836103de565b905f611ae0565b5f806102d493602081519101845af4611b49611936565b91611bab565b601f8111611b5b575050565b5f80516020611c6a8339815191525f5260205f20906020601f840160051c83019310611ba1575b601f0160051c01905b818110611b96575050565b5f8155600101611b8b565b9091508190611b82565b90611bcf5750805115611bc057805190602001fd5b630a12f52160e11b5f5260045ffd5b81511580611c00575b611be0575090565b639996b31560e01b5f9081526001600160a01b0391909116600452602490fd5b50803b15611bd856fe9016d09d72d40fdae2fd8ceac6b6234c7706214fd39c1cd1e609a0528c199300360894a13ba1a3210667c828492db98dca3e2076cc3735a920a3ca505d382bbcf0c57e16840df040f15088dc2f81fe391c3923bec73e23a9662efc9c229c6a0088be536d5240c274a3b1d3a1be54482fd9caa294f08c62a7cde569f49a3c4502a26469706673582212204be59af88c194661f8938d172bf264b2f61161ef8999d29043b21015d51eab1264736f6c634300081a0033","linkReferences":{}},"methodIdentifiers":{"UPGRADE_INTERFACE_VERSION()":"ad3cb1cc","balanceOf(address,uint256)":"00fdd58e","balanceOfBatch(address[],uint256[])":"4e1273f4","burn(address,uint256,uint256)":"f5298aca","burnBatch(address,uint256[],uint256[])":"6b20c454","getTokenId(bytes32,uint256)":"68a4c576","initialize(address)":"c4d66de8","isApprovedForAll(address,address)":"e985e9c5","marketController()":"e9aa81b9","mintBatch(address,uint256[],uint256[])":"d81d0a15","owner()":"8da5cb5b","proxiableUUID()":"52d1902d","renounceOwnership()":"715018a6","safeBatchTransferFrom(address,address,uint256[],uint256[],bytes)":"2eb2c2d6","safeTransferFrom(address,address,uint256,uint256,bytes)":"f242432a","setApprovalForAll(address,bool)":"a22cb465","setMarketController(address)":"b5330b8b","supportsInterface(bytes4)":"01ffc9a7","transferOwnership(address)":"f2fde38b","updateMarketController(address)":"630823a2","upgradeToAndCall(address,bytes)":"4f1ef286","uri(uint256)":"0e89341c"},"id":71}