{"abi":[{"type":"constructor","inputs":[],"stateMutability":"nonpayable"},{"type":"function","name":"MAX_FEE_RATE","inputs":[],"outputs":[{"name":"","type":"uint256","internalType":"uint256"}],"stateMutability":"view"},{"type":"function","name":"UPGRADE_INTERFACE_VERSION","inputs":[],"outputs":[{"name":"","type":"string","internalType":"string"}],"stateMutability":"view"},{"type":"function","name":"advanceMarketEpoch","inputs":[{"name":"questionId","type":"bytes32","internalType":"bytes32"}],"outputs":[],"stateMutability":"nonpayable"},{"type":"function","name":"authorizedMatchers","inputs":[{"name":"","type":"address","internalType":"address"}],"outputs":[{"name":"","type":"bool","internalType":"bool"}],"stateMutability":"view"},{"type":"function","name":"batchClaimWinnings","inputs":[{"name":"claims","type":"tuple[]","internalType":"struct IMarketController.ClaimRequest[]","components":[{"name":"questionId","type":"bytes32","internalType":"bytes32"},{"name":"epoch","type":"uint256","internalType":"uint256"},{"name":"outcome","type":"uint256","internalType":"uint256"},{"name":"merkleProof","type":"bytes32[]","internalType":"bytes32[]"}]}],"outputs":[{"name":"totalPayout","type":"uint256","internalType":"uint256"}],"stateMutability":"nonpayable"},{"type":"function","name":"batchSetMarketTradingPaused","inputs":[{"name":"questionIds","type":"bytes32[]","internalType":"bytes32[]"},{"name":"paused","type":"bool","internalType":"bool"}],"outputs":[],"stateMutability":"nonpayable"},{"type":"function","name":"cancelOrder","inputs":[{"name":"order","type":"tuple","internalType":"struct IMarketController.Order","components":[{"name":"user","type":"address","internalType":"address"},{"name":"questionId","type":"bytes32","internalType":"bytes32"},{"name":"outcome","type":"uint256","internalType":"uint256"},{"name":"amount","type":"uint256","internalType":"uint256"},{"name":"price","type":"uint256","internalType":"uint256"},{"name":"nonce","type":"uint256","internalType":"uint256"},{"name":"expiration","type":"uint256","internalType":"uint256"},{"name":"isBuyOrder","type":"bool","internalType":"bool"}]},{"name":"signature","type":"bytes","internalType":"bytes"}],"outputs":[],"stateMutability":"nonpayable"},{"type":"function","name":"claimWinnings","inputs":[{"name":"questionId","type":"bytes32","internalType":"bytes32"},{"name":"epoch","type":"uint256","internalType":"uint256"},{"name":"outcome","type":"uint256","internalType":"uint256"},{"name":"merkleProof","type":"bytes32[]","internalType":"bytes32[]"}],"outputs":[{"name":"","type":"uint256","internalType":"uint256"}],"stateMutability":"nonpayable"},{"type":"function","name":"createMarket","inputs":[{"name":"questionId","type":"bytes32","internalType":"bytes32"},{"name":"outcomeCount","type":"uint256","internalType":"uint256"},{"name":"resolutionTime","type":"uint256","internalType":"uint256"},{"name":"epochDuration","type":"uint256","internalType":"uint256"}],"outputs":[],"stateMutability":"nonpayable"},{"type":"function","name":"eip712Domain","inputs":[],"outputs":[{"name":"fields","type":"bytes1","internalType":"bytes1"},{"name":"name","type":"string","internalType":"string"},{"name":"version","type":"string","internalType":"string"},{"name":"chainId","type":"uint256","internalType":"uint256"},{"name":"verifyingContract","type":"address","internalType":"address"},{"name":"salt","type":"bytes32","internalType":"bytes32"},{"name":"extensions","type":"uint256[]","internalType":"uint256[]"}],"stateMutability":"view"},{"type":"function","name":"emergencyResolveMarket","inputs":[{"name":"questionId","type":"bytes32","internalType":"bytes32"},{"name":"numberOfOutcomes","type":"uint256","internalType":"uint256"},{"name":"merkleRoot","type":"bytes32","internalType":"bytes32"}],"outputs":[],"stateMutability":"nonpayable"},{"type":"function","name":"executeOrderMatch","inputs":[{"name":"buyOrder","type":"tuple","internalType":"struct IMarketController.Order","components":[{"name":"user","type":"address","internalType":"address"},{"name":"questionId","type":"bytes32","internalType":"bytes32"},{"name":"outcome","type":"uint256","internalType":"uint256"},{"name":"amount","type":"uint256","internalType":"uint256"},{"name":"price","type":"uint256","internalType":"uint256"},{"name":"nonce","type":"uint256","internalType":"uint256"},{"name":"expiration","type":"uint256","internalType":"uint256"},{"name":"isBuyOrder","type":"bool","internalType":"bool"}]},{"name":"sellOrder","type":"tuple","internalType":"struct IMarketController.Order","components":[{"name":"user","type":"address","internalType":"address"},{"name":"questionId","type":"bytes32","internalType":"bytes32"},{"name":"outcome","type":"uint256","internalType":"uint256"},{"name":"amount","type":"uint256","internalType":"uint256"},{"name":"price","type":"uint256","internalType":"uint256"},{"name":"nonce","type":"uint256","internalType":"uint256"},{"name":"expiration","type":"uint256","internalType":"uint256"},{"name":"isBuyOrder","type":"bool","internalType":"bool"}]},{"name":"buySignature","type":"bytes","internalType":"bytes"},{"name":"sellSignature","type":"bytes","internalType":"bytes"},{"name":"fillAmount","type":"uint256","internalType":"uint256"}],"outputs":[],"stateMutability":"nonpayable"},{"type":"function","name":"executeSingleOrder","inputs":[{"name":"order","type":"tuple","internalType":"struct IMarketController.Order","components":[{"name":"user","type":"address","internalType":"address"},{"name":"questionId","type":"bytes32","internalType":"bytes32"},{"name":"outcome","type":"uint256","internalType":"uint256"},{"name":"amount","type":"uint256","internalType":"uint256"},{"name":"price","type":"uint256","internalType":"uint256"},{"name":"nonce","type":"uint256","internalType":"uint256"},{"name":"expiration","type":"uint256","internalType":"uint256"},{"name":"isBuyOrder","type":"bool","internalType":"bool"}]},{"name":"signature","type":"bytes","internalType":"bytes"},{"name":"fillAmount","type":"uint256","internalType":"uint256"},{"name":"counterparty","type":"address","internalType":"address"}],"outputs":[],"stateMutability":"nonpayable"},{"type":"function","name":"feeRate","inputs":[],"outputs":[{"name":"","type":"uint256","internalType":"uint256"}],"stateMutability":"view"},{"type":"function","name":"filledAmounts","inputs":[{"name":"","type":"bytes32","internalType":"bytes32"}],"outputs":[{"name":"","type":"uint256","internalType":"uint256"}],"stateMutability":"view"},{"type":"function","name":"getEffectiveFeeRate","inputs":[{"name":"user","type":"address","internalType":"address"}],"outputs":[{"name":"","type":"uint256","internalType":"uint256"}],"stateMutability":"view"},{"type":"function","name":"getEffectiveTradeFeeRate","inputs":[{"name":"user","type":"address","internalType":"address"}],"outputs":[{"name":"","type":"uint256","internalType":"uint256"}],"stateMutability":"view"},{"type":"function","name":"getOrderFillAmount","inputs":[{"name":"orderHash","type":"bytes32","internalType":"bytes32"}],"outputs":[{"name":"","type":"uint256","internalType":"uint256"}],"stateMutability":"view"},{"type":"function","name":"getOrderHash","inputs":[{"name":"order","type":"tuple","internalType":"struct IMarketController.Order","components":[{"name":"user","type":"address","internalType":"address"},{"name":"questionId","type":"bytes32","internalType":"bytes32"},{"name":"outcome","type":"uint256","internalType":"uint256"},{"name":"amount","type":"uint256","internalType":"uint256"},{"name":"price","type":"uint256","internalType":"uint256"},{"name":"nonce","type":"uint256","internalType":"uint256"},{"name":"expiration","type":"uint256","internalType":"uint256"},{"name":"isBuyOrder","type":"bool","internalType":"bool"}]}],"outputs":[{"name":"","type":"bytes32","internalType":"bytes32"}],"stateMutability":"view"},{"type":"function","name":"getOrderRemainingAmount","inputs":[{"name":"order","type":"tuple","internalType":"struct IMarketController.Order","components":[{"name":"user","type":"address","internalType":"address"},{"name":"questionId","type":"bytes32","internalType":"bytes32"},{"name":"outcome","type":"uint256","internalType":"uint256"},{"name":"amount","type":"uint256","internalType":"uint256"},{"name":"price","type":"uint256","internalType":"uint256"},{"name":"nonce","type":"uint256","internalType":"uint256"},{"name":"expiration","type":"uint256","internalType":"uint256"},{"name":"isBuyOrder","type":"bool","internalType":"bool"}]}],"outputs":[{"name":"","type":"uint256","internalType":"uint256"}],"stateMutability":"view"},{"type":"function","name":"globalTradingPaused","inputs":[],"outputs":[{"name":"","type":"bool","internalType":"bool"}],"stateMutability":"view"},{"type":"function","name":"initialize","inputs":[{"name":"_initialOwner","type":"address","internalType":"address"},{"name":"_positionTokens","type":"address","internalType":"address"},{"name":"_marketResolver","type":"address","internalType":"address"},{"name":"_vault","type":"address","internalType":"address"},{"name":"_marketContract","type":"address","internalType":"address"},{"name":"_oracle","type":"address","internalType":"address"}],"outputs":[],"stateMutability":"nonpayable"},{"type":"function","name":"isTradingActive","inputs":[{"name":"questionId","type":"bytes32","internalType":"bytes32"}],"outputs":[{"name":"","type":"bool","internalType":"bool"}],"stateMutability":"view"},{"type":"function","name":"market","inputs":[],"outputs":[{"name":"","type":"address","internalType":"contract IMarket"}],"stateMutability":"view"},{"type":"function","name":"marketResolver","inputs":[],"outputs":[{"name":"","type":"address","internalType":"contract IMarketResolver"}],"stateMutability":"view"},{"type":"function","name":"marketTradingPaused","inputs":[{"name":"","type":"bytes32","internalType":"bytes32"}],"outputs":[{"name":"","type":"bool","internalType":"bool"}],"stateMutability":"view"},{"type":"function","name":"oracle","inputs":[],"outputs":[{"name":"","type":"address","internalType":"address"}],"stateMutability":"view"},{"type":"function","name":"owner","inputs":[],"outputs":[{"name":"","type":"address","internalType":"address"}],"stateMutability":"view"},{"type":"function","name":"positionTokens","inputs":[],"outputs":[{"name":"","type":"address","internalType":"contract IPositionTokens"}],"stateMutability":"view"},{"type":"function","name":"proxiableUUID","inputs":[],"outputs":[{"name":"","type":"bytes32","internalType":"bytes32"}],"stateMutability":"view"},{"type":"function","name":"renounceOwnership","inputs":[],"outputs":[],"stateMutability":"nonpayable"},{"type":"function","name":"setAuthorizedMatcher","inputs":[{"name":"matcher","type":"address","internalType":"address"},{"name":"authorized","type":"bool","internalType":"bool"}],"outputs":[],"stateMutability":"nonpayable"},{"type":"function","name":"setFeeRate","inputs":[{"name":"_feeRate","type":"uint256","internalType":"uint256"}],"outputs":[],"stateMutability":"nonpayable"},{"type":"function","name":"setGlobalTradingPaused","inputs":[{"name":"paused","type":"bool","internalType":"bool"}],"outputs":[],"stateMutability":"nonpayable"},{"type":"function","name":"setMarketTradingPaused","inputs":[{"name":"questionId","type":"bytes32","internalType":"bytes32"},{"name":"paused","type":"bool","internalType":"bool"}],"outputs":[],"stateMutability":"nonpayable"},{"type":"function","name":"setTradeFeeRate","inputs":[{"name":"_tradeFeeRate","type":"uint256","internalType":"uint256"}],"outputs":[],"stateMutability":"nonpayable"},{"type":"function","name":"setTreasury","inputs":[{"name":"_treasury","type":"address","internalType":"address"}],"outputs":[],"stateMutability":"nonpayable"},{"type":"function","name":"setUserFeeRate","inputs":[{"name":"user","type":"address","internalType":"address"},{"name":"_feeRate","type":"uint256","internalType":"uint256"}],"outputs":[],"stateMutability":"nonpayable"},{"type":"function","name":"setUserTradeFeeRate","inputs":[{"name":"user","type":"address","internalType":"address"},{"name":"_tradeFeeRate","type":"uint256","internalType":"uint256"}],"outputs":[],"stateMutability":"nonpayable"},{"type":"function","name":"tradeFeeRate","inputs":[],"outputs":[{"name":"","type":"uint256","internalType":"uint256"}],"stateMutability":"view"},{"type":"function","name":"transferOwnership","inputs":[{"name":"newOwner","type":"address","internalType":"address"}],"outputs":[],"stateMutability":"nonpayable"},{"type":"function","name":"treasury","inputs":[],"outputs":[{"name":"","type":"address","internalType":"address"}],"stateMutability":"view"},{"type":"function","name":"updateMarket","inputs":[{"name":"_market","type":"address","internalType":"address"}],"outputs":[],"stateMutability":"nonpayable"},{"type":"function","name":"updateMarketResolutionTime","inputs":[{"name":"questionId","type":"bytes32","internalType":"bytes32"},{"name":"resolutionTime","type":"uint256","internalType":"uint256"}],"outputs":[],"stateMutability":"nonpayable"},{"type":"function","name":"updateMarketResolver","inputs":[{"name":"_marketResolver","type":"address","internalType":"address"}],"outputs":[],"stateMutability":"nonpayable"},{"type":"function","name":"updateOracle","inputs":[{"name":"_oracle","type":"address","internalType":"address"}],"outputs":[],"stateMutability":"nonpayable"},{"type":"function","name":"updatePositionTokens","inputs":[{"name":"_positionTokens","type":"address","internalType":"address"}],"outputs":[],"stateMutability":"nonpayable"},{"type":"function","name":"updateVault","inputs":[{"name":"_vault","type":"address","internalType":"address"}],"outputs":[],"stateMutability":"nonpayable"},{"type":"function","name":"upgradeToAndCall","inputs":[{"name":"newImplementation","type":"address","internalType":"address"},{"name":"data","type":"bytes","internalType":"bytes"}],"outputs":[],"stateMutability":"payable"},{"type":"function","name":"userFeeRate","inputs":[{"name":"","type":"address","internalType":"address"}],"outputs":[{"name":"","type":"uint256","internalType":"uint256"}],"stateMutability":"view"},{"type":"function","name":"userTradeFeeRate","inputs":[{"name":"","type":"address","internalType":"address"}],"outputs":[{"name":"","type":"uint256","internalType":"uint256"}],"stateMutability":"view"},{"type":"function","name":"vault","inputs":[],"outputs":[{"name":"","type":"address","internalType":"contract IVault"}],"stateMutability":"view"},{"type":"event","name":"BatchMarketTradingPauseChanged","inputs":[{"name":"questionIds","type":"bytes32[]","indexed":false,"internalType":"bytes32[]"},{"name":"paused","type":"bool","indexed":false,"internalType":"bool"}],"anonymous":false},{"type":"event","name":"BatchWinningsClaimed","inputs":[{"name":"user","type":"address","indexed":true,"internalType":"address"},{"name":"totalPayout","type":"uint256","indexed":false,"internalType":"uint256"},{"name":"claimsProcessed","type":"uint256","indexed":false,"internalType":"uint256"}],"anonymous":false},{"type":"event","name":"EIP712DomainChanged","inputs":[],"anonymous":false},{"type":"event","name":"EmergencyResolution","inputs":[{"name":"questionId","type":"bytes32","indexed":true,"internalType":"bytes32"},{"name":"epoch","type":"uint256","indexed":true,"internalType":"uint256"},{"name":"merkleRoot","type":"bytes32","indexed":false,"internalType":"bytes32"}],"anonymous":false},{"type":"event","name":"FeeCollected","inputs":[{"name":"user","type":"address","indexed":true,"internalType":"address"},{"name":"questionId","type":"bytes32","indexed":true,"internalType":"bytes32"},{"name":"feeAmount","type":"uint256","indexed":false,"internalType":"uint256"},{"name":"netPayout","type":"uint256","indexed":false,"internalType":"uint256"}],"anonymous":false},{"type":"event","name":"FeeRateUpdated","inputs":[{"name":"oldRate","type":"uint256","indexed":false,"internalType":"uint256"},{"name":"newRate","type":"uint256","indexed":false,"internalType":"uint256"}],"anonymous":false},{"type":"event","name":"GlobalTradingPauseChanged","inputs":[{"name":"paused","type":"bool","indexed":false,"internalType":"bool"}],"anonymous":false},{"type":"event","name":"Initialized","inputs":[{"name":"version","type":"uint64","indexed":false,"internalType":"uint64"}],"anonymous":false},{"type":"event","name":"MarketTradingPauseChanged","inputs":[{"name":"questionId","type":"bytes32","indexed":true,"internalType":"bytes32"},{"name":"paused","type":"bool","indexed":false,"internalType":"bool"}],"anonymous":false},{"type":"event","name":"OrderCancelled","inputs":[{"name":"orderHash","type":"bytes32","indexed":true,"internalType":"bytes32"},{"name":"user","type":"address","indexed":true,"internalType":"address"}],"anonymous":false},{"type":"event","name":"OrderFilled","inputs":[{"name":"orderHash","type":"bytes32","indexed":true,"internalType":"bytes32"},{"name":"user","type":"address","indexed":true,"internalType":"address"},{"name":"questionId","type":"bytes32","indexed":true,"internalType":"bytes32"},{"name":"outcome","type":"uint256","indexed":false,"internalType":"uint256"},{"name":"fillAmount","type":"uint256","indexed":false,"internalType":"uint256"},{"name":"price","type":"uint256","indexed":false,"internalType":"uint256"},{"name":"isBuyOrder","type":"bool","indexed":false,"internalType":"bool"},{"name":"epoch","type":"uint256","indexed":false,"internalType":"uint256"},{"name":"taker","type":"address","indexed":false,"internalType":"address"}],"anonymous":false},{"type":"event","name":"OwnershipTransferred","inputs":[{"name":"previousOwner","type":"address","indexed":true,"internalType":"address"},{"name":"newOwner","type":"address","indexed":true,"internalType":"address"}],"anonymous":false},{"type":"event","name":"TradeFeeCollected","inputs":[{"name":"user","type":"address","indexed":true,"internalType":"address"},{"name":"questionId","type":"bytes32","indexed":true,"internalType":"bytes32"},{"name":"feeAmount","type":"uint256","indexed":false,"internalType":"uint256"},{"name":"netAmount","type":"uint256","indexed":false,"internalType":"uint256"}],"anonymous":false},{"type":"event","name":"TradeFeeRateUpdated","inputs":[{"name":"oldRate","type":"uint256","indexed":false,"internalType":"uint256"},{"name":"newRate","type":"uint256","indexed":false,"internalType":"uint256"}],"anonymous":false},{"type":"event","name":"TreasuryUpdated","inputs":[{"name":"oldTreasury","type":"address","indexed":true,"internalType":"address"},{"name":"newTreasury","type":"address","indexed":true,"internalType":"address"}],"anonymous":false},{"type":"event","name":"Upgraded","inputs":[{"name":"implementation","type":"address","indexed":true,"internalType":"address"}],"anonymous":false},{"type":"event","name":"UserFeeRateSet","inputs":[{"name":"user","type":"address","indexed":true,"internalType":"address"},{"name":"feeRate","type":"uint256","indexed":false,"internalType":"uint256"}],"anonymous":false},{"type":"event","name":"UserTradeFeeRateSet","inputs":[{"name":"user","type":"address","indexed":true,"internalType":"address"},{"name":"feeRate","type":"uint256","indexed":false,"internalType":"uint256"}],"anonymous":false},{"type":"event","name":"WinningsClaimed","inputs":[{"name":"user","type":"address","indexed":true,"internalType":"address"},{"name":"questionId","type":"bytes32","indexed":true,"internalType":"bytes32"},{"name":"epoch","type":"uint256","indexed":false,"internalType":"uint256"},{"name":"outcome","type":"uint256","indexed":false,"internalType":"uint256"},{"name":"payout","type":"uint256","indexed":false,"internalType":"uint256"}],"anonymous":false},{"type":"error","name":"AddressEmptyCode","inputs":[{"name":"target","type":"address","internalType":"address"}]},{"type":"error","name":"ECDSAInvalidSignature","inputs":[]},{"type":"error","name":"ECDSAInvalidSignatureLength","inputs":[{"name":"length","type":"uint256","internalType":"uint256"}]},{"type":"error","name":"ECDSAInvalidSignatureS","inputs":[{"name":"s","type":"bytes32","internalType":"bytes32"}]},{"type":"error","name":"ERC1967InvalidImplementation","inputs":[{"name":"implementation","type":"address","internalType":"address"}]},{"type":"error","name":"ERC1967NonPayable","inputs":[]},{"type":"error","name":"FailedInnerCall","inputs":[]},{"type":"error","name":"InvalidInitialization","inputs":[]},{"type":"error","name":"NotInitializing","inputs":[]},{"type":"error","name":"OwnableInvalidOwner","inputs":[{"name":"owner","type":"address","internalType":"address"}]},{"type":"error","name":"OwnableUnauthorizedAccount","inputs":[{"name":"account","type":"address","internalType":"address"}]},{"type":"error","name":"ReentrancyGuardReentrantCall","inputs":[]},{"type":"error","name":"UUPSUnauthorizedCallContext","inputs":[]},{"type":"error","name":"UUPSUnsupportedProxiableUUID","inputs":[{"name":"slot","type":"bytes32","internalType":"bytes32"}]}],"bytecode":{"object":"0x60a080604052346100e857306080527ff0c57e16840df040f15088dc2f81fe391c3923bec73e23a9662efc9c229c6a005460ff8160401c166100d9576002600160401b03196001600160401b03821601610073575b604051615b1290816100ed82396080518181816144b2015261455a0152f35b6001600160401b0319166001600160401b039081177ff0c57e16840df040f15088dc2f81fe391c3923bec73e23a9662efc9c229c6a005581527fc7f505b2f371ae2175ee4913f4499e1f2633a7b5936321eed1cdaeb6115181d290602090a15f80610054565b63f92ee8a960e01b5f5260045ffd5b5f80fdfe610420806040526004361015610013575f80fd5b5f610100525f3560e01c9081630752363d14614c4d575080630fe1d06614614c265780630ffa6a9f14614c085780631cb44dfc14614bbc578063208cc5c214614b2f5780632433ff8314614ae15780632730d1f914614a655780632840173414614a3d5780632ae02149146149ff57806332175e851461496a578063390c43bf1461487c57806340f1a34d1461484c578063415a9a15146147bb57806345596e2e1461473f5780634f1ef2861461450c57806352d1902d1461449d578063552cb1781461444b5780635963806a146143af5780635ce4ece21461431a5780635ea4365c146142f757806361d027b3146142cc57806364966aed146142a1578063697752561461424c5780636b04b9cf1461422c578063715018a6146141ba57806372dcaad7146141375780637a3f328914613a755780637dc0d1d014613a4a57806380f5560514613a1f57806384b0196e146138f657806385e5d79c146138b35780638da5cb5b1461387c57806392f6576e1461385d57806394cd7f3c146137ca578063978bbdb9146137aa5780639dac6b3a14612c77578063a242ff5214612960578063a28cf8ca1461292b578063ad1daf2e146128d4578063ad3cb1cc14612885578063b04bcafd14612847578063c3a49d3314611d5a578063cc2a9a5b146116f7578063d590c8a31461160b578063d5a9c0b414611584578063e7563f3f14611532578063ecd222b3146114e5578063ee8bae681461042c578063f0f4426014610352578063f2da9810146102c0578063f2fde38b146102905763fbfa77cf1461025e575f80fd5b346102895761010051366003190112610289576002546040516001600160a01b039091168152602090f35b6101005180fd5b34610289576020366003190112610289576102b96102ac614c73565b6102b4615336565b615293565b6101005180f35b34610289576040366003190112610289576004357f9b0bd69af79a9d1d9a4deba5a2c3f17766c1918a14b50689cb9a0a520fded9d060206102ff614dc3565b3361010051526006825261031c60ff604061010051205416614e0f565b8361010051526005825261034281604061010051209060ff801983541691151516179055565b6040519015158152a26101005180f35b346102895760203660031901126102895761036b614c73565b336101005152600660205261038960ff604061010051205416614e0f565b6001600160a01b031680156103e757600a80546001600160a01b031981168317909155610100516001600160a01b03909116907f4ab5be82436d353e61ca18726e984e561f5c1cc7c6d38b29d2553c790434705a9080a36101005180f35b60405162461bcd60e51b815260206004820152601860248201527f496e76616c6964207472656173757279206164647265737300000000000000006044820152606490fd5b3461028957366003190161026081126102895761010013610289576101003661010319011261028957610204356001600160401b03811161028957610475903690600401614c89565b610224356001600160401b03811161028957610495903690600401614c89565b9033610100515260066020526104b460ff604061010051205416614e0f565b6104bc6154bc565b60035460405163246f98c960e11b815260248035600483018190529392602091839182906001600160a01b03165afa8015610baf576105059161010051916114b6575b50615141565b61051760ff60045460a01c161561518d565b816101005152600560205261053660ff604061010051205416156151d1565b610124359485830361147a57610144356044350361144257610556614f65565b8061142c575b156113f157610184359485608435106113bb5761058691610581610244351515615215565b615369565b906101c4359042821061138657610104356001600160a01b03811691908281036102895761016435936101e43580151581036102895761062093610609848c6106018f6105f387610617998e936106119a5060405196879560208701996101a4359361014435918c614f74565b03601f198101835282614cb6565b51902061543a565b993691614d06565b8861579f565b909391936157d9565b506001600160a01b03160361134d57836101005152600760205280604061010051205410156113135781610100515260076020526106686102443560406101005120546150b7565b606435106112d757836101005152600760205261068f6102443560406101005120546150b7565b1161129a578061010051526007602052604061010051206106b46102443582546150b7565b90558261010051526007602052604061010051206106d66102443582546150b7565b905560035460405163447fd56f60e11b8152600481018490526001600160a01b0390911690602081602481855afa908115610baf576101005191611268575b50602060018060a01b0360045416608460405180958193628c137960e31b835260048301528860248301528560448301526101005160648301525afa918215610baf576101005192611234575b50610100515460405163345262bb60e11b8152600481018490526044803560248301529092916001600160a01b031690602090849081845afa928315610baf5761010051936111ff575b506020836107f0926107bc614f02565b604051627eeac760e11b81526001600160a01b03909116600482015260248101929092529092839190829081906044820190565b03915afa908115610baf5761010051916111cd575b506102443511610c71575061271061082087610244356154f4565b049161271061083e610838610833614eec565b615304565b856154f4565b046108498185615061565b61010051549094906001600160a01b0316610862614f02565b813b1561028957604051637a94c56560e11b815261010080516001600160a01b039390931660048301526024820188905261024435604483015251909283916064918391905af18015610baf57610c56575b506040938451906108c58683614cb6565b60018252601f19860190813660208501378651916108e38884614cb6565b600183523660208401376108f683615082565b526102443561090482615082565b5261010051546001600160a01b03169061091c614eec565b91803b156102895761094893885180958194829363d81d0a1560e01b8452610100519760048501615716565b039161010051905af18015610c4957610c2e575b5081151580610c1a575b15610c1157506002546001600160a01b0316610980614eec565b600a546001600160a01b0316823b15610289576109ba9284918751809581948293631c285fb160e01b845261010051978b6004860161574c565b039161010051905af18015610c045790879291610be4575b505f80516020615a3d833981519152846001600160a01b036109f2614eec565b16928151908152876020820152a35b6002546001600160a01b031692610a16614eec565b93610a1f614f02565b813b1561028957610a4b95855196879485938493631c285fb160e01b855261010051986004860161574c565b039161010051905af1908115610bd85750610bbd575b506024905b600354604051637f7232b360e11b8152600481018590529260209184919082906001600160a01b03165afa918215610baf576101005192610b6a575b50905f80516020615abd8339815191529260c092610abe614eec565b908585610ac9614f02565b6040805160443581526102443560208201529081018c905260016060820152608081018890526001600160a01b0391821660a0820152941693a4610b0b614f02565b90610b14614eec565b604080516101443581526102443560208201529081019790975261010051606088015260808701919091526001600160a01b0390811660a08701521693a460015f80516020615a7d833981519152556101005180f35b91506020823d602011610ba7575b81610b8560209383614cb6565b81010312610ba3579051905f80516020615abd833981519152610aa2565b5f80fd5b3d9150610b78565b6040513d61010051823e3d90fd5b61010051610bca91614cb6565b610100516102895785610a61565b513d61010051823e3d90fd5b610bf49192506101005190614cb6565b610100516102895785908a6109d2565b84513d61010051823e3d90fd5b9350610a019050565b50600a546001600160a01b03161515610966565b61010051610c3b91614cb6565b61010051610289578a61095c565b85513d61010051823e3d90fd5b61010051610c6391614cb6565b61010051610289578a6108b4565b919050612710610c8487610244356154f4565b04610c928161024435615061565b610c9d610833614eec565b612710610cc181610cb9610cb2610833614f02565b94876154f4565b0492846154f4565b60025491900493906001600160a01b0316610cda614eec565b813b1561028957604051636776228760e11b81526101008051600483018a90526001600160a01b039390931660248301526044820185905251909283916064918391905af18015610baf576111b2575b506002546001600160a01b0316610d3f614f02565b813b1561028957604051636776228760e11b81526101008051600483018a90526001600160a01b039390931660248301526044820187905251909283916064918391905af18015610baf57611197575b50600a546001600160a01b0316918261100c575b50505050506040908151610db78382614cb6565b60018152601f1983019384366020840137835194610dd58587614cb6565b600186523660208701375f19810194818611610ff257610e00610dfa8795939561502f565b9661502f565b61010051805491956001600160a01b0390921693815b838110610f1f5750505050610e29614eec565b91803b1561028957610e5593865180958194829363d81d0a1560e01b8452610100519760048501615716565b039161010051905af18015610f1257610ef7575b508251610e7c575b505050602490610a66565b61010051546001600160a01b031690610e93614f02565b91803b1561028957610ebf94845180968194829363d81d0a1560e01b8452610100519760048501615716565b039161010051905af1908115610bd85750610edc575b8080610e71565b61010051610ee991614cb6565b610100516102895785610ed5565b61010051610f0491614cb6565b610100516102895788610e69565b83513d61010051823e3d90fd5b885163345262bb60e11b8152600481018390526001821b60248201526020816044818a5afa908115610fe5576101005191610fb4575b508a6001831b60443503610f87575090600191610f7189615082565b5261024435610f7f87615082565b525b01610e16565b93610fae91610f9982600195976150a3565b5261024435610fa8828c6150a3565b526150c4565b92610f81565b90506020813d8211610fdd575b81610fce60209383614cb6565b81010312610ba357515f610f55565b3d9150610fc1565b8a513d61010051823e3d90fd5b634e487b7160e01b61010051526011600452602461010051fd5b806110e1575b50505081611023575b808080610da3565b6002546001600160a01b031691611038614f02565b600a546001600160a01b0316843b1561028957611073948391604051809781948293631c285fb160e01b845261010051978c6004860161574c565b039161010051905af1928315610baf578a936110c1575b505f80516020615a3d833981519152906040906001600160a01b036110ad614f02565b169382519182526020820152a3878061101b565b6110d19193506101005190614cb6565b610100516102895788918a61108a565b6002546001600160a01b0316926110f6614eec565b843b1561028957604051631c285fb160e01b815261010051909590928692839182916111289188918e6004860161574c565b039161010051905af1928315610baf578993611177575b505f80516020615a3d833981519152906040906001600160a01b03611162614eec565b169382519182526020820152a3898080611012565b6111879193506101005190614cb6565b610100516102895787918c61113f565b610100516111a491614cb6565b61010051610289578b610d8f565b610100516111bf91614cb6565b61010051610289578b610d2a565b90506020813d6020116111f7575b816111e860209383614cb6565b81010312610ba3575189610805565b3d91506111db565b9092506020813d60201161122c575b8161121b60209383614cb6565b81010312610ba357519160206107ac565b3d915061120e565b9091506020813d602011611260575b8161125060209383614cb6565b81010312610ba357519087610762565b3d9150611243565b90506020813d602011611292575b8161128360209383614cb6565b81010312610ba3575187610715565b3d9150611276565b60405162461bcd60e51b815260206004820152601560248201527414d95b1b081bdc99195c881bdd995c999a5b1b1959605a1b6044820152606490fd5b60405162461bcd60e51b8152602060048201526014602482015273109d5e481bdc99195c881bdd995c999a5b1b195960621b6044820152606490fd5b60405162461bcd60e51b815260206004820152601260248201527113dc99195c88199d5b1b1e48199a5b1b195960721b6044820152606490fd5b60405162461bcd60e51b8152602060048201526011602482015270496e76616c6964207369676e617475726560781b6044820152606490fd5b60405162461bcd60e51b815260206004820152600d60248201526c13dc99195c88195e1c1a5c9959609a1b6044820152606490fd5b60405162461bcd60e51b815260206004820152600e60248201526d0a0e4d2c6ca40dad2e6dac2e8c6d60931b6044820152606490fd5b60405162461bcd60e51b815260206004820152601360248201527209ee4c8cae440e8f2e0ca40dad2e6dac2e8c6d606b1b6044820152606490fd5b506101e43580159081158103610289575061055c565b60405162461bcd60e51b815260206004820152601060248201526f09eeae8c6dedaca40dad2e6dac2e8c6d60831b6044820152606490fd5b60405162461bcd60e51b81526020600482015260146024820152730a2eacae6e8d2dedc40928840dad2e6dac2e8c6d60631b6044820152606490fd5b6114d8915060203d6020116114de575b6114d08183614cb6565b810190614fdc565b876104ff565b503d6114c6565b346102895760203660031901126102895760ff60045460a01c161580611513575b6020906040519015158152f35b5061010080516004359052600560205251604090205460ff1615611506565b346102895760203660031901126102895761154b614c73565b611553615336565b6001600160a01b0316611567811515615257565b6001600160601b0360a01b60025416176002556101005161010051f35b3461028957602036600319011261028957600435801515908190036102895760207ff554bdaa34bad21fd469b9bbf52646e04b4a771b62588578771539af035262d591336101005152600682526115e460ff604061010051205416614e0f565b6004805460ff60a01b191660a083901b60ff60a01b16179055604051908152a16101005180f35b34610289576040366003190112610289576004356001600160401b0381116102895761163b903690600401614d3c565b611643614dc3565b91336101005152600660205261166260ff604061010051205416614e0f565b610100515b828110156116aa5760019061010051508060051b830135610100515260056020526116a485604061010051209060ff801983541691151516179055565b01611667565b50907f4619ea81c3ff936411476c2750a93a9e1b7e77f2e5f5204ee184e9c6af73bea6926116e5604051938493604085526040850191614ff4565b90151560208301520390a16101005180f35b346102895760c036600319011261028957611710614c73565b6024356001600160a01b0381169190829003610289576044356001600160a01b03811690819003610289576064356001600160a01b03811690819003610289576084356001600160a01b03811691908290036102895760a4356001600160a01b0381169390849003610289575f80516020615a9d833981519152549460ff8660401c1615956001600160401b03811680159081611d52575b6001149081611d48575b159081611d3f575b50611d2a5767ffffffffffffffff1981166001175f80516020615a9d8339815191525586611cfe575b506117ef871515614e54565b6117fa821515614f19565b611805831515615257565b8315611cb95761182a9061181a861515614dd2565b611822615774565b6102b4615774565b611832615774565b61183a615774565b611842615774565b60015f80516020615a7d83398151915255604080519096906118648882614cb6565b601681527550726564696374696f6e4d61726b65744f726465727360501b60208201528751906118948983614cb6565b60018252603160f81b60208301526118aa615774565b6118b2615774565b8051906001600160401b038211611bac5781906118dc5f805160206159dd83398151915254615562565b601f8111611c53575b506020906001601f841114611bd1576101005192611bc6575b50508160011b915f199060031b1c1916175f805160206159dd833981519152555b8051906001600160401b038211611bac5781906119495f80516020615a1d83398151915254615562565b601f8111611b46575b506020906001601f841114611ac4576101005192611ab9575b50508160011b915f199060031b1c1916175f80516020615a1d833981519152555b610100517fa16a46d94261c7517cc8ff89f61c0ce93598e3c849801011dee649a6a557d10055610100517fa16a46d94261c7517cc8ff89f61c0ce93598e3c849801011dee649a6a557d101556001600160601b0360a01b6101005154161761010051556001600160601b0360a01b60015416176001556001600160601b0360a01b60025416176002556001600160601b0360a01b60035416176003556001600160601b0360a01b6004541617600455610100516008556001600160601b0360a01b600a5416600a55611a5f576101005180f35b60207fc7f505b2f371ae2175ee4913f4499e1f2633a7b5936321eed1cdaeb6115181d29168ff0000000000000000195f80516020615a9d83398151915254165f80516020615a9d833981519152555160018152a1806102b9565b01519050898061196b565b61010080515f80516020615a1d8339815191529052518281209350601f198516905b818110611b2e5750908460019594939210611b16575b505050811b015f80516020615a1d8339815191525561198c565b01515f1960f88460031b161c19169055898080611afc565b92936020600181928786015181550195019301611ae6565b9091505f80516020615a1d833981519152610100515260206101005120601f840160051c81019160208510611ba2575b90601f859493920160051c01905b818110611b915750611952565b610100518155849350600101611b84565b9091508190611b76565b634e487b7160e01b61010051526041600452602461010051fd5b015190508a806118fe565b61010080515f805160206159dd8339815191529052518281209350601f198516905b818110611c3b5750908460019594939210611c23575b505050811b015f805160206159dd8339815191525561191f565b01515f1960f88460031b161c191690558a8080611c09565b92936020600181928786015181550195019301611bf3565b9091505f805160206159dd833981519152610100515260206101005120601f840160051c81019160208510611caf575b90601f859493920160051c01905b818110611c9e57506118e5565b610100518155849350600101611c91565b9091508190611c83565b60405162461bcd60e51b815260206004820152601760248201527f496e76616c6964206d61726b657420636f6e74726163740000000000000000006044820152606490fd5b68ffffffffffffffffff191668010000000000000001175f80516020615a9d83398151915255876117e3565b63f92ee8a960e01b6101005152600461010051fd5b905015896117ba565b303b1591506117b2565b8891506117a8565b346102895736600319016101608112610289576101001361028957610104356001600160401b03811161028957611d95903690600401614c89565b610124359061014435906001600160a01b03821690818303610289576024903361010051526006602052611dd260ff604061010051205416614e0f565b611dda6154bc565b813595602060018060a01b03600354166040519485809263246f98c960e11b82528b60048301525afa928315610baf57611e5d93611e219161010051916128285750615141565b611e3360ff60045460a01c161561518d565b8661010051526005602052611e5260ff604061010051205416156151d1565b610581861515615215565b918261010051526007602052611e7a8460406101005120546150b7565b606435106127f057826101005152600760205260406101005120611e9f8582546150b7565b905560035460405163447fd56f60e11b8152600481018790526001600160a01b039091169490602081602481895afa8015610baf5761010051906127bd575b60209150608460018060a01b03600454166040519889938492628c137960e31b845260048401528b602484015260448301526101005160648301525afa948515610baf576101005195612789575b5060018060a01b0361010051541691604435956040519063345262bb60e11b8252806004830152876024830152602082604481885afa918215610baf576101005192612755575b5060843594612710611f8587876154f4565b0490611f8f614f65565b1561240157506101005154604051627eeac760e11b81526001600160a01b038681166004830152602482018690529091169190602081604481865afa8015610baf57879161010051916123cc575b501061238757612710611ffa611ff4610833614eec565b836154f4565b04906120068282615061565b92803b1561028957604051637a94c56560e11b815261010080516001600160a01b038a16600484015260248301899052604483018b9052905191929091839160649183915af18015610baf5761236c575b506040948551906120688783614cb6565b60018252601f19870190813660208501378751916120868984614cb6565b6001835236602084013761209983615082565b52886120a482615082565b5261010051546001600160a01b0316906120bc614eec565b91803b15610289576120e893895180958194829363d81d0a1560e01b8452610100519760048501615716565b039161010051905af1801561235f57612344575b5081151580612330575b1561232857506002546001600160a01b0316612120614eec565b600a546001600160a01b0316823b156102895761215a9284918851809581948293631c285fb160e01b845261010051978c6004860161574c565b039161010051905af18015610c4957908c9291612308575b505f80516020615a3d833981519152856001600160a01b03612192614eec565b16928151908152856020820152a35b6002546001600160a01b03166121b5614eec565b94813b15610289576121e295855196879485938493631c285fb160e01b855261010051986004860161574c565b039161010051905af1908115610bd857506122ed575b506024905b600354604051637f7232b360e11b8152600481018990529260209184919082906001600160a01b03165afa918215610baf5761010051926122a6575b509260c092915f80516020615abd83398151915294612256614eec565b9361225f614f65565b604080519a8b5260208b01939093529189015215156060880152608087015260a08601526001600160a01b031693a460015f80516020615a7d833981519152556101005180f35b929150926020833d6020116122e5575b816122c360209383614cb6565b81010312610ba357915191929091905f80516020615abd833981519152612239565b3d91506122b6565b610100516122fa91614cb6565b6101005161028957866121f8565b6123189192506101005190614cb6565b61010051610289578a908c612172565b9150506121a1565b50600a546001600160a01b03161515612106565b6101005161235191614cb6565b61010051610289578c6120fc565b86513d61010051823e3d90fd5b6101005161237991614cb6565b61010051610289578c612057565b60405162461bcd60e51b815260206004820152601e60248201527f4d61746368657220696e73756666696369656e7420696e76656e746f727900006044820152606490fd5b9150506020813d6020116123f9575b816123e860209383614cb6565b81010312610ba3578690518d611fdd565b3d91506123db565b90612440602085612410614eec565b604051627eeac760e11b81526001600160a01b039091166004820152602481019190915291829081906044820190565b0381865afa8015610baf5787916101005191612720575b50106126e55761271061246c611ff487615304565b04906124788282615061565b92612481614eec565b813b1561028957604051637a94c56560e11b815261010080516001600160a01b0393909316600483015260248201899052604482018b905251909283916064918391905af18015610baf576126ca575b5060409485516124e18782614cb6565b60018152601f19870191823660208401378751926124ff8985614cb6565b6001845236602085013761251282615082565b528861251d83615082565b5261010051546001600160a01b031691823b156102895761255a928992895180958194829363d81d0a1560e01b8452610100519760048501615716565b039161010051905af1801561235f576126af575b508115158061269b575b156126935750600254600a546001600160a01b039182169116813b156102895785518092631c285fb160e01b825281806125bc8761010051968d8c6004860161574c565b039161010051905af18015610c49578c928a92879261266e575b50905f80516020615a3d833981519152918151908152856020820152a35b6002546001600160a01b0316612608614eec565b813b156102895761263495855196879485938493631c285fb160e01b855261010051986004860161574c565b039161010051905af1908115610bd85750612653575b506024906121fd565b6101005161266091614cb6565b61010051610289578661264a565b9150925061268191506101005190614cb6565b610100516102895787848c928e6125d6565b9150506125f4565b50600a546001600160a01b03161515612578565b610100516126bc91614cb6565b61010051610289578c61256e565b610100516126d791614cb6565b61010051610289578c6124d1565b60405162461bcd60e51b8152602060048201526013602482015272496e73756666696369656e7420746f6b656e7360681b6044820152606490fd5b9150506020813d60201161274d575b8161273c60209383614cb6565b81010312610ba3578690518d612457565b3d915061272f565b9091506020813d602011612781575b8161277160209383614cb6565b81010312610ba357519089611f73565b3d9150612764565b9094506020813d6020116127b5575b816127a560209383614cb6565b81010312610ba357519386611f2c565b3d9150612798565b506020813d6020116127e8575b816127d760209383614cb6565b81010312610ba35760209051611ede565b3d91506127ca565b60405162461bcd60e51b815260206004820152601060248201526f13dc99195c881bdd995c999a5b1b195960821b6044820152606490fd5b612841915060203d6020116114de576114d08183614cb6565b896104ff565b34610289576020366003190112610289576001600160a01b03612868614c73565b166101005152600b60205260206040610100512054604051908152f35b34610289576101005136600319011261028957604080516128d0916128aa9082614cb6565b60058152640352e302e360dc1b6020820152604051918291602083526020830190614d6c565b0390f35b34610289576040366003190112610289576102b96128f0614c73565b6128f8614dc3565b90612901615336565b60018060a01b031661010051526006602052604061010051209060ff801983541691151516179055565b346102895760203660031901126102895760043561010051526005602052602060ff6040610100512054166040519015158152f35b346102895760603660031901126102895760043560243590604435336101005152600660205261299960ff604061010051205416614e0f565b60035460405163d45aa95960e01b8152600481018490526001600160a01b039091169390602081602481885afa908115610baf576101005191612c58575b5015612c135760405163447fd56f60e11b815260048101849052602081602481885afa908115610baf576101005191612be1575b508015612ba9578103612b6b576101008111612b2657602060249460405195868092637f7232b360e11b82528760048301525afa938415610baf576101005194612af2575b506001546001600160a01b0316803b156102895760405191631e693d1360e31b8352846004840152856024840152604483015282606483015281608481610100519361010051905af18015610baf57612ad7575b5060207f2682572ab6ae159c399f469521cc4f7f84f95edf6e134da9fdcda60e7cee195491604051908152a36101005180f35b61010051612ae491614cb6565b610100516102895783612aa4565b9093506020813d602011612b1e575b81612b0e60209383614cb6565b81010312610ba357519284612a50565b3d9150612b01565b60405162461bcd60e51b815260206004820152601e60248201527f4d6178696d756d20323536206f7574636f6d657320737570706f7274656400006044820152606490fd5b60405162461bcd60e51b815260206004820152601660248201527509eeae8c6dedaca40c6deeadce840dad2e6dac2e8c6d60531b6044820152606490fd5b60405162461bcd60e51b815260206004820152601060248201526f13585c9ad95d081b9bdd08199bdd5b9960821b6044820152606490fd5b90506020813d602011612c0b575b81612bfc60209383614cb6565b81010312610ba3575185612a0b565b3d9150612bef565b60405162461bcd60e51b815260206004820152601f60248201527f4d61726b6574206e6f7420726561647920666f72207265736f6c7574696f6e006044820152606490fd5b612c71915060203d6020116114de576114d08183614cb6565b856129d7565b34610289576020366003190112610289576004356001600160401b03811161028957612ca7903690600401614d3c565b610380526103c052612cb76154bc565b61010051610400526103805115613770576032610380511161373957610100516102c052612ce76103805161502f565b6102a052612cf76103805161502f565b61030052612d076103805161502f565b61012052612d176103805161502f565b61014052612d276103805161502f565b61018052612d376103805161502f565b6101a0526101005160c08190526003546001600160a01b0390811660e052600454811661016052600154811661020052905416610260525b6103805160c0511015613361576101005150607e196103c05136030160c05160051b6103c051013512156102895760c05160051b6103c05101356103c051016080813603126102895760405160a052608060a0510160a05181106001600160401b03821117611bac57604052803560a051526020810135602060a05101526040810135604060a05101526060810135906001600160401b0382116102895736601f838301011215610289578181013590612e2882615018565b92612e366040519485614cb6565b82845260208401913660208560051b8484010101116102895780820160200192915b60208560051b8284010101841061334d575050505050606060a0510152602060a0510151156132815760a0515160405190637f7232b360e11b8252600482015260208160248160e0515afa908115610baf57610100519161331c575b50602060a0510151116132815760a051516103e0526040516103a05263447fd56f60e11b6103a051526103e05160046103a051015260206103a05160246103a05160e0515afa610360526103605115610baf576101005161034052610360516132e0575b61034051156132815760a05180516103209081526020918201516102e0908152604051610280818152628c137960e31b90915280519151610340519351610160516001600160a01b03166004850152602484015260448301939093526064820192909252905160e051608491905afa610240526102405115610baf576101005161022052610240516132a4575b604051631a26b71b60e01b8152610220516004820152602081602481610200515afa908115610baf576101005191613286575b501561328157604060a05101516040519063345262bb60e11b82526102205160048301526024820152602081604481610260515afa908115610baf576101005191613250575b50604051627eeac760e11b8152336004820152602481018290529060208280604481010381610260515afa918215610baf57610100519261321d575b5081156131e057604060a05101516101e0526020606060a05101516040516101c05263383db7f360e11b6101c051526102205160046101c05101526101e05160246101c0510152606060446101c05101526101c051906130c56101c0519160646101c0510190614d90565b036101c051610200515afa8015610baf5761010051906131e7575b156131e0576130ef8233615507565b90608052610220516131076102c0516102a0516150a3565b52336131196102c051610300516150a3565b5260805161312d6102c051610120516150a3565b5261313e6102c051610140516150a3565b5261314f6102c051610180516150a3565b526131606102c0516101a0516150a3565b52613170608051610400516150b7565b610400526131806102c0516150c4565b6102c05260a0518051602080830151604093840151845160805192815292830152928101929092529033907fccb8a3f1d586448db6a3b6199ae0f6b18c1416cb0c50235176306b37b68aa3ff90606090a35b600160c0510160c052612d6f565b50506131d2565b5060203d8111613216575b80613203613211926101c051614cb6565b6101c051016101c051614fdc565b6130e0565b503d6131f2565b9091506020813d8211613248575b8161323860209383614cb6565b81010312610ba35751908261305a565b3d915061322b565b90506020813d8211613279575b8161326a60209383614cb6565b81010312610ba357518161301e565b3d915061325d565b6131d2565b61329e915060203d81116114de576114d08183614cb6565b81612fd8565b60203d81116132d9575b806132be60209261028051614cb6565b610280519081010312610ba357610280515161022052612fa5565b503d6132ae565b60203d8111613315575b806132fa6020926103a051614cb6565b6103a0519081010312610ba3576103a0515161034052612f18565b503d6132ea565b90506020813d8211613345575b8161333660209383614cb6565b81010312610ba3575181612eb4565b3d9150613329565b602080809486358152019401939250612e58565b6102c051156136fc57610100515b6102c0518110613667576133856102c05161502f565b6133916102c05161502f565b61339d6102c05161502f565b90610100515b6102c051811061360c57506002546001600160a01b031691823b15610289576133e7926040518080958194631bc824d960e11b8352610100519689600485016150d2565b039161010051905af18015610baf576135f1575b50600a546001600160a01b03169081613465575b6040516104005181526102c05160208201527f9c6f7fd175a5070bcfe68c28f39c5713faa35ff1ccd02dae3e8ee97a66f8d9c260403392a260015f80516020615a7d833981519152556020604051610400518152f35b6134716102c05161502f565b9161347e6102c05161502f565b6101005193845b6102c05181106135a3575050508261349e575b5061340f565b6134a78361502f565b916134ba6134b48561502f565b9461502f565b610100519092815b6102c051811061353f5750506002546001600160a01b0316915050803b156102895761350993604051809581948293631bc824d960e11b84526101005197600485016150d2565b039161010051905af18015610baf57613524575b8080613498565b6101005161353191614cb6565b61010051610289578061351d565b61354c81610140516150a3565b5161355a575b6001016134c2565b9161359b60019161356b85876150a3565b51613576828a6150a3565b5283613582828b6150a3565b5261359085610140516150a3565b51610fa882896150a3565b929050613552565b6135b081610140516150a3565b516135be575b600101613485565b946135e981856135d0600194866150a3565b526135de88610140516150a3565b51610fa882876150a3565b9590506135b6565b610100516135fe91614cb6565b6101005161028957816133fb565b8061361c6001926102a0516150a3565b5161362782876150a3565b52818060a01b0361363b82610300516150a3565b511661364782856150a3565b5261365581610120516150a3565b5161366082866150a3565b52016133a3565b60018060a01b0361010051541661368182610180516150a3565b5161368f836101a0516150a3565b51823b1561028957604051637a94c56560e11b81526101008051336004840152602483019490945260448201929092529051909283916064918391905af18015610baf576136e1575b5060010161336f565b610100516136ee91614cb6565b6101005161028957816136d8565b60405162461bcd60e51b8152602060048201526015602482015274139bc81d985b1a590818db185a5b5cc8199bdd5b99605a1b6044820152606490fd5b60405162461bcd60e51b815260206004820152600f60248201526e546f6f206d616e7920636c61696d7360881b6044820152606490fd5b60405162461bcd60e51b8152602060048201526012602482015271139bc818db185a5b5cc81c1c9bdd9a59195960721b6044820152606490fd5b346102895761010051366003190112610289576020600854604051908152f35b3461028957610100366003190112610289576137e4614eec565b61381f606435916105f36106016137f9614f65565b604051928391602083019560c4359060a435908a6084359160443590602435908c614f74565b61010080519190915260076020525160409020549080821061384c5750506020610100515b604051908152f35b60209161385891615061565b613844565b3461028957610100513660031901126102895760206040516103e88152f35b346102895761010051366003190112610289575f805160206159fd833981519152546040516001600160a01b039091168152602090f35b34610289576020366003190112610289576001600160a01b036138d4614c73565b1661010051526006602052602060ff6040610100512054166040519015158152f35b346102895761010051366003190112610289577fa16a46d94261c7517cc8ff89f61c0ce93598e3c849801011dee649a6a557d1005415806139f6575b156139b95761398861394261559a565b6128d061394d615669565b6040519061399690613960602084614cb6565b6101005183525f368137604051958695600f60f81b875260e0602088015260e0870190614d6c565b908582036040870152614d6c565b904660608501523060808501526101005160a085015283820360c0850152614d90565b60405162461bcd60e51b81526020600482015260156024820152741152540dcc4c8e88155b9a5b9a5d1a585b1a5e9959605a1b6044820152606490fd5b507fa16a46d94261c7517cc8ff89f61c0ce93598e3c849801011dee649a6a557d1015415613932565b346102895761010051366003190112610289576003546040516001600160a01b039091168152602090f35b346102895761010051366003190112610289576004546040516001600160a01b039091168152602090f35b34610289576080366003190112610289576024356044356004356064356001600160401b03811161028957613aae903690600401614d3c565b939092613ab96154bc565b811561410257600354604051637f7232b360e11b8152600481018590526001600160a01b0390911690602081602481855afa8015610baf57849161010051916140cd575b50106140945760405163447fd56f60e11b815260048101859052602081602481855afa8015610baf578491610100519161405e575b5060048054604051628c137960e31b81526001600160a01b0390911691810191909152602481018790526044810191909152606481019190915290602090829060849082905afa908115610baf57610100519161402c575b50600154604051631a26b71b60e01b8152600481018390526001600160a01b0390911690602081602481855afa908115610baf57610100519161400d575b5015613fd25760018060a01b03610100515416906040519763345262bb60e11b89528360048a01528460248a0152602089604481865afa988915610baf576101005199613f9e575b50604051627eeac760e11b8152336004820152602481018a905297602089604481875afa988915610baf576101005199613f6a575b508815613f3057613c839260209260405180958194829363383db7f360e11b84528a60048501528b6024850152606060448501526064840191614ff4565b03915afa908115610baf576101005191613f11575b5015613edc57613ca88633615507565b979096823b1561028957604051637a94c56560e11b81526101008051336004840152602483019490945260448201929092529051909283916064918391905af18015610baf57613ec1575b506002546001600160a01b0316803b156102895760405163fdff250560e01b815261010080516004830185905233602484015260448301899052905191929091839160649183915af18015610baf57613ea6575b5085151580613e92575b613daf575b50604080519283526020808401929092528201849052935033907fccb8a3f1d586448db6a3b6199ae0f6b18c1416cb0c50235176306b37b68aa3ff90606090a360015f80516020615a7d83398151915255604051908152f35b600254600a546001600160a01b03918216929116823b156102895760405163fdff250560e01b81526101005160048201939093526001600160a01b03909116602482015260448101889052918290818060648101039161010051905af18015610baf57613e77575b50837fccb8a3f1d586448db6a3b6199ae0f6b18c1416cb0c50235176306b37b68aa3ff918460209760405190815283898201527f97f91898a8e9f3e192276393fe60c248051d0d830ad6594282eb6727684e3a3e60403392a39150613d56565b61010051613e8491614cb6565b610100516102895785613e17565b50600a546001600160a01b03161515613d51565b61010051613eb391614cb6565b610100516102895786613d47565b61010051613ece91614cb6565b610100516102895786613cf3565b60405162461bcd60e51b815260206004820152600d60248201526c24b73b30b634b210383937b7b360991b6044820152606490fd5b613f2a915060203d6020116114de576114d08183614cb6565b88613c98565b60405162461bcd60e51b81526020600482015260126024820152714e6f20746f6b656e7320746f20636c61696d60701b6044820152606490fd5b9098506020813d602011613f96575b81613f8660209383614cb6565b81010312610ba35751978a613c45565b3d9150613f79565b9098506020813d602011613fca575b81613fba60209383614cb6565b81010312610ba357519789613c10565b3d9150613fad565b60405162461bcd60e51b815260206004820152601360248201527213585c9ad95d081b9bdd081c995cdbdb1d9959606a1b6044820152606490fd5b614026915060203d6020116114de576114d08183614cb6565b88613bc8565b90506020813d602011614056575b8161404760209383614cb6565b81010312610ba3575186613b8a565b3d915061403a565b9150506020813d60201161408c575b8161407a60209383614cb6565b81010312610ba3575183906020613b32565b3d915061406d565b60405162461bcd60e51b8152602060048201526011602482015270115c1bd8da081b9bdd081c995858da1959607a1b6044820152606490fd5b9150506020813d6020116140fa575b816140e960209383614cb6565b81010312610ba35783905188613afd565b3d91506140dc565b60405162461bcd60e51b815260206004820152600d60248201526c092dcecc2d8d2c840cae0dec6d609b1b6044820152606490fd5b3461028957602036600319011261028957614150614c73565b614158615336565b6001600160a01b03168015614184576001600160601b0360a01b60035416176003556101005161010051f35b60405162461bcd60e51b815260206004820152600e60248201526d125b9d985b1a59081b585c9ad95d60921b6044820152606490fd5b346102895761010051366003190112610289576141d5615336565b5f805160206159fd83398151915280546001600160a01b0319811690915561010051906001600160a01b03167f8be0079c531659141344cd1fd0a4f28419497f9722a3daafe3b4186f6b6457e08280a36101005180f35b346102895761010051366003190112610289576020600954604051908152f35b346102895761010036600319011261028957602061384461426b614eec565b6105f3610601614279614f65565b6040519283918783019560c4359060a43590608435906064359060443590602435908c614f74565b346102895761010051366003190112610289576001546040516001600160a01b039091168152602090f35b34610289576101005136600319011261028957600a546040516001600160a01b039091168152602090f35b34610289576020366003190112610289576020613844614315614c73565b615408565b3461028957604036600319011261028957614333614c73565b7f5bf9d50f78c481e7955dea915edf9f6a644b0ddf64f45ff40f579270f53ab6006020602435923361010051526006825261437760ff604061010051205416614e0f565b6143856103e8851115614ea0565b60018060a01b031692836101005152600c8252806040610100512055604051908152a26101005180f35b346102895760403660031901126102895733610100515260066020526143de60ff604061010051205416614e0f565b6003546001600160a01b0316803b156102895760405190630c2526b960e31b82526004356004830152602435602483015281604481610100519361010051905af18015610baf57614430576101005180f35b6101005161443d91614cb6565b6101005161028957806102b9565b3461028957602036600319011261028957614464614c73565b61446c615336565b6001600160a01b0316614480811515614f19565b6001600160601b0360a01b60015416176001556101005161010051f35b346102895761010051366003190112610289577f00000000000000000000000000000000000000000000000000000000000000006001600160a01b031630036144f75760206040515f80516020615a5d8339815191528152f35b63703e46dd60e11b6101005152600461010051fd5b604036600319011261028957614520614c73565b6024356001600160401b038111610289573660238201121561028957614550903690602481600401359101614d06565b6001600160a01b037f00000000000000000000000000000000000000000000000000000000000000001630811490811561471d575b506144f757614592615336565b6040516352d1902d60e01b81526001600160a01b0383169290602081600481875afa6101005191816146e9575b506145dd5783634c9c8ce360e01b6101005152600452602461010051fd5b805f80516020615a5d8339815191528592036146d15750813b156146b9575f80516020615a5d83398151915280546001600160a01b03191682179055610100517fbc7cd75a20ee27fd9adebab32041f755214dbc6bffa90cc0225b39da2e5c2d3b9080a281511561469c5761010051825161468c93829190602001845af43d15614694573d9161466c83614ceb565b9261467a6040519485614cb6565b8352610100513d90602085013e6158cf565b506101005180f35b6060916158cf565b505034156102b95763b398979f60e01b6101005152600461010051fd5b634c9c8ce360e01b6101005152600452602461010051fd5b632a87526960e21b6101005152600452602461010051fd5b9091506020813d602011614715575b8161470560209383614cb6565b81010312610ba3575190856145bf565b3d91506146f8565b5f80516020615a5d833981519152546001600160a01b03161415905083614585565b34610289576020366003190112610289577f14914da2bf76024616fbe1859783fcd4dbddcb179b1f3a854949fbf920dcb9576040600435336101005152600660205261479360ff8361010051205416614e0f565b6147a16103e8821115614ea0565b600854908060085582519182526020820152a16101005180f35b346102895760803660031901126102895733610100515260066020526147ea60ff604061010051205416614e0f565b6003546001600160a01b0316803b15610289576040519063415a9a1560e01b8252600435600483015260243560248301526044356044830152606435606483015281608481610100519361010051905af18015610baf57614430576101005180f35b34610289576020366003190112610289576004356101005152600760205260206040610100512054604051908152f35b346102895736600319016101208112610289576101001361028957610104356001600160401b038111610289576148b7903690600401614c89565b6148bf614eec565b336001600160a01b0390911603614933576148d991615369565b61010080518290526007602052516040902060643590556001600160a01b03614900614eec565b16907fa6eb7cdc219e1518ced964e9a34e61d68a94e4f1569db3e84256ba981ba527536101005161010051a36101005180f35b60405162461bcd60e51b815260206004820152600f60248201526e2737ba1037b93232b91037bbb732b960891b6044820152606490fd5b3461028957604036600319011261028957614983614c73565b7f937274ab93b7ab79c37f9905fbb623920b48dc542d1fcdb7e08744ad8f51d123602060243592336101005152600682526149c760ff604061010051205416614e0f565b6149d56103e8851115614ea0565b60018060a01b031692836101005152600b8252806040610100512055604051908152a26101005180f35b34610289576020366003190112610289576001600160a01b03614a20614c73565b166101005152600c60205260206040610100512054604051908152f35b34610289576101005136600319011261028957602060ff60045460a01c166040519015158152f35b34610289576020366003190112610289577f96ebcc4060592ed2504d2f65bdf4dfd29a9650e64a0f18e80c69ad6cd186ad1260406004353361010051526006602052614ab960ff8361010051205416614e0f565b614ac76103e8821115614ea0565b600954908060095582519182526020820152a16101005180f35b3461028957602036600319011261028957614afa614c73565b614b02615336565b6001600160a01b0316614b16811515614e54565b6101005180546001600160a01b03191691909117815580f35b34610ba3576020366003190112610ba357335f526006602052614b5860ff60405f205416614e0f565b6003546001600160a01b0316803b15610ba3575f8091602460405180948193633808f4df60e01b835260043560048401525af18015614bb157614b9c576101005180f35b5f614ba691614cb6565b5f61010052806102b9565b6040513d5f823e3d90fd5b34610ba3576020366003190112610ba357614bd5614c73565b614bdd615336565b6001600160a01b0316614bf1811515614dd2565b6001600160601b0360a01b60045416176004555f80f35b34610ba3576020366003190112610ba3576020613844610833614c73565b34610ba3575f366003190112610ba3575f546040516001600160a01b039091168152602090f35b34610ba3576020366003190112610ba3576020906004355f526007825260405f20548152f35b600435906001600160a01b0382168203610ba357565b9181601f84011215610ba3578235916001600160401b038311610ba35760208381860195010111610ba357565b90601f801991011681019081106001600160401b03821117614cd757604052565b634e487b7160e01b5f52604160045260245ffd5b6001600160401b038111614cd757601f01601f191660200190565b929192614d1282614ceb565b91614d206040519384614cb6565b829481845281830111610ba3578281602093845f960137010152565b9181601f84011215610ba3578235916001600160401b038311610ba3576020808501948460051b010111610ba357565b805180835260209291819084018484015e5f828201840152601f01601f1916010190565b90602080835192838152019201905f5b818110614dad5750505090565b8251845260209384019390920191600101614da0565b602435908115158203610ba357565b15614dd957565b60405162461bcd60e51b815260206004820152600e60248201526d496e76616c6964206f7261636c6560901b6044820152606490fd5b15614e1657565b60405162461bcd60e51b81526020600482015260166024820152752737ba1030baba3437b934bd32b21036b0ba31b432b960511b6044820152606490fd5b15614e5b57565b60405162461bcd60e51b815260206004820152601760248201527f496e76616c696420706f736974696f6e20746f6b656e730000000000000000006044820152606490fd5b15614ea757565b60405162461bcd60e51b815260206004820152601860248201527f46656520726174652065786365656473206d6178696d756d00000000000000006044820152606490fd5b6004356001600160a01b0381168103610ba35790565b610104356001600160a01b0381168103610ba35790565b15614f2057565b60405162461bcd60e51b815260206004820152601760248201527f496e76616c6964206d61726b6574207265736f6c7665720000000000000000006044820152606490fd5b60e4358015158103610ba35790565b9693909897949192610100969361012089019a7fc9adabdf8f224849fb2c796b1fe45efbc2bac024380b80b0161531977905fa6c8a5260018060a01b031660208a015260408901526060880152608087015260a086015260c085015260e08401521515910152565b90816020910312610ba357518015158103610ba35790565b81835290916001600160fb1b038311610ba35760209260051b809284830137010190565b6001600160401b038111614cd75760051b60200190565b9061503982615018565b6150466040519182614cb6565b8281528092615057601f1991615018565b0190602036910137565b9190820391821161506e57565b634e487b7160e01b5f52601160045260245ffd5b80511561508f5760200190565b634e487b7160e01b5f52603260045260245ffd5b805182101561508f5760209160051b010190565b9190820180921161506e57565b5f19811461506e5760010190565b9392906150e790606086526060860190614d90565b9380850360208201526020808451968781520193015f955b80871061511e57505061511b9394506040818403910152614d90565b90565b81516001600160a01b0316855260019690960195602094850194909101906150ff565b1561514857565b60405162461bcd60e51b815260206004820152601c60248201527f4d61726b657420697320636c6f73656420666f722062657474696e67000000006044820152606490fd5b1561519457565b60405162461bcd60e51b815260206004820152601560248201527411db1bd8985b081d1c98591a5b99c81c185d5cd959605a1b6044820152606490fd5b156151d857565b60405162461bcd60e51b815260206004820152601560248201527413585c9ad95d081d1c98591a5b99c81c185d5cd959605a1b6044820152606490fd5b1561521c57565b60405162461bcd60e51b8152602060048201526013602482015272125b9d985b1a5908199a5b1b08185b5bdd5b9d606a1b6044820152606490fd5b1561525e57565b60405162461bcd60e51b815260206004820152600d60248201526c125b9d985b1a59081d985d5b1d609a1b6044820152606490fd5b6001600160a01b031680156152f1575f805160206159fd83398151915280546001600160a01b0319811683179091556001600160a01b03167f8be0079c531659141344cd1fd0a4f28419497f9722a3daafe3b4186f6b6457e05f80a3565b631e4fbdf760e01b5f525f60045260245ffd5b6001600160a01b03165f818152600c60205260409020541561532f575f52600c60205260405f205490565b5060095490565b5f805160206159fd833981519152546001600160a01b0316330361535657565b63118cdaa760e01b5f523360045260245ffd5b60c43590814211611386576004356001600160a01b0381169190828103610ba3576064359360e435908115158203610ba3576153e3936153d587846106016153dd9561061797506105f360405193849260208401968c60a435916084359160443590602435908c614f74565b973691614d06565b8661579f565b506001600160a01b03160361134d57815f52600760205260405f205410156113135790565b6001600160a01b03165f818152600b602052604090205415615433575f52600b60205260405f205490565b5060085490565b60429061544561592d565b61544d615997565b6040519060208201927f8b73c3c69bb8fe3d512ecc4cf759cc79239f7b179b0ffacaa9a75d522b39400f8452604083015260608201524660808201523060a082015260a0815261549e60c082614cb6565b519020906040519161190160f01b8352600283015260228201522090565b60025f80516020615a7d83398151915254146154e55760025f80516020615a7d83398151915255565b633ee5aeb560e01b5f5260045ffd5b8181029291811591840414171561506e57565b919091821561555a5761551990615408565b80158015615547575b6155425761271061553661553e92856154f4565b048093615061565b9190565b505f90565b50600a546001600160a01b031615615522565b505f91508190565b90600182811c92168015615590575b602083101461557c57565b634e487b7160e01b5f52602260045260245ffd5b91607f1691615571565b604051905f825f805160206159dd83398151915254916155b983615562565b808352926001811690811561564a57506001146155df575b6155dd92500383614cb6565b565b505f805160206159dd8339815191525f90815290917f42ad5d3e1f2e6e70edcf6d991b8a3023d3fca8047a131592f9edb9fd9b89d57d5b81831061562e5750509060206155dd928201016155d1565b6020919350806001915483858901015201910190918492615616565b602092506155dd94915060ff191682840152151560051b8201016155d1565b604051905f825f80516020615a1d833981519152549161568883615562565b808352926001811690811561564a57506001146156ab576155dd92500383614cb6565b505f80516020615a1d8339815191525f90815290917f5f9ce34815f8e11431c7bb75a8e6886a91478f7ffc1dbb0a98dc240fddd76b755b8183106156fa5750509060206155dd928201016155d1565b60209193508060019154838589010152019101909184926156e2565b6001600160a01b03909116815260606020820181905261511b93919261573e91840190614d90565b916040818403910152614d90565b9081526001600160a01b03918216602082015291166040820152606081019190915260800190565b60ff5f80516020615a9d8339815191525460401c161561579057565b631afcd79f60e31b5f5260045ffd5b81519190604183036157cf576157c89250602082015190606060408401519301515f1a9061584d565b9192909190565b50505f9160029190565b600481101561583957806157eb575050565b600181036158025763f645eedf60e01b5f5260045ffd5b6002810361581d575063fce698f760e01b5f5260045260245ffd5b6003146158275750565b6335e2f38360e21b5f5260045260245ffd5b634e487b7160e01b5f52602160045260245ffd5b91907f7fffffffffffffffffffffffffffffff5d576e7357a4501ddfe92f46681b20a084116158c4579160209360809260ff5f9560405194855216868401526040830152606082015282805260015afa15614bb1575f516001600160a01b038116156158ba57905f905f90565b505f906001905f90565b5050505f9160039190565b906158f357508051156158e457805190602001fd5b630a12f52160e11b5f5260045ffd5b81511580615924575b615904575090565b639996b31560e01b5f9081526001600160a01b0391909116600452602490fd5b50803b156158fc565b61593561559a565b8051908115615945576020012090565b50507fa16a46d94261c7517cc8ff89f61c0ce93598e3c849801011dee649a6a557d1005480156159725790565b507fc5d2460186f7233c927e7db2dcc703c0e500b653ca82273b7bfad8045d85a47090565b61599f615669565b80519081156159af576020012090565b50507fa16a46d94261c7517cc8ff89f61c0ce93598e3c849801011dee649a6a557d101548015615972579056fea16a46d94261c7517cc8ff89f61c0ce93598e3c849801011dee649a6a557d1029016d09d72d40fdae2fd8ceac6b6234c7706214fd39c1cd1e609a0528c199300a16a46d94261c7517cc8ff89f61c0ce93598e3c849801011dee649a6a557d1035baff2b9643e72d8b20f0291d379131db6b4dc2bd84d344ff975e3a5aedf53bb360894a13ba1a3210667c828492db98dca3e2076cc3735a920a3ca505d382bbc9b779b17422d0df92223018b32b4d1fa46e071723d6817e2486d003becc55f00f0c57e16840df040f15088dc2f81fe391c3923bec73e23a9662efc9c229c6a00f47230cb38c667014876a10215c2acfd7a28106cb548f41e6ca1e80046b83f77a264697066735822122058c4e5e8ffdad1046cfd0a6cded78c774ba71fed24f5d549f6b507d4824f74ea64736f6c634300081a0033","linkReferences":{}},"methodIdentifiers":{"MAX_FEE_RATE()":"92f6576e","UPGRADE_INTERFACE_VERSION()":"ad3cb1cc","advanceMarketEpoch(bytes32)":"208cc5c2","authorizedMatchers(address)":"85e5d79c","batchClaimWinnings((bytes32,uint256,uint256,bytes32[])[])":"9dac6b3a","batchSetMarketTradingPaused(bytes32[],bool)":"d590c8a3","cancelOrder((address,bytes32,uint256,uint256,uint256,uint256,uint256,bool),bytes)":"390c43bf","claimWinnings(bytes32,uint256,uint256,bytes32[])":"7a3f3289","createMarket(bytes32,uint256,uint256,uint256)":"415a9a15","eip712Domain()":"84b0196e","emergencyResolveMarket(bytes32,uint256,bytes32)":"a242ff52","executeOrderMatch((address,bytes32,uint256,uint256,uint256,uint256,uint256,bool),(address,bytes32,uint256,uint256,uint256,uint256,uint256,bool),bytes,bytes,uint256)":"ee8bae68","executeSingleOrder((address,bytes32,uint256,uint256,uint256,uint256,uint256,bool),bytes,uint256,address)":"c3a49d33","feeRate()":"978bbdb9","filledAmounts(bytes32)":"40f1a34d","getEffectiveFeeRate(address)":"5ea4365c","getEffectiveTradeFeeRate(address)":"0ffa6a9f","getOrderFillAmount(bytes32)":"0752363d","getOrderHash((address,bytes32,uint256,uint256,uint256,uint256,uint256,bool))":"69775256","getOrderRemainingAmount((address,bytes32,uint256,uint256,uint256,uint256,uint256,bool))":"94cd7f3c","globalTradingPaused()":"28401734","initialize(address,address,address,address,address,address)":"cc2a9a5b","isTradingActive(bytes32)":"ecd222b3","market()":"80f55605","marketResolver()":"64966aed","marketTradingPaused(bytes32)":"a28cf8ca","oracle()":"7dc0d1d0","owner()":"8da5cb5b","positionTokens()":"0fe1d066","proxiableUUID()":"52d1902d","renounceOwnership()":"715018a6","setAuthorizedMatcher(address,bool)":"ad1daf2e","setFeeRate(uint256)":"45596e2e","setGlobalTradingPaused(bool)":"d5a9c0b4","setMarketTradingPaused(bytes32,bool)":"f2da9810","setTradeFeeRate(uint256)":"2730d1f9","setTreasury(address)":"f0f44260","setUserFeeRate(address,uint256)":"32175e85","setUserTradeFeeRate(address,uint256)":"5ce4ece2","tradeFeeRate()":"6b04b9cf","transferOwnership(address)":"f2fde38b","treasury()":"61d027b3","updateMarket(address)":"72dcaad7","updateMarketResolutionTime(bytes32,uint256)":"5963806a","updateMarketResolver(address)":"552cb178","updateOracle(address)":"1cb44dfc","updatePositionTokens(address)":"2433ff83","updateVault(address)":"e7563f3f","upgradeToAndCall(address,bytes)":"4f1ef286","userFeeRate(address)":"b04bcafd","userTradeFeeRate(address)":"2ae02149","vault()":"fbfa77cf"},"id":62}