{"abi":[{"type":"constructor","inputs":[{"name":"_superDCAToken","type":"address","internalType":"address"},{"name":"_mintRate","type":"uint256","internalType":"uint256"},{"name":"_owner","type":"address","internalType":"address"}],"stateMutability":"nonpayable"},{"type":"function","name":"DCA_TOKEN","inputs":[],"outputs":[{"name":"","type":"address","internalType":"address"}],"stateMutability":"view"},{"type":"function","name":"acceptOwnership","inputs":[],"outputs":[],"stateMutability":"nonpayable"},{"type":"function","name":"accrueReward","inputs":[{"name":"token","type":"address","internalType":"address"}],"outputs":[{"name":"rewardAmount","type":"uint256","internalType":"uint256"}],"stateMutability":"nonpayable"},{"type":"function","name":"gauge","inputs":[],"outputs":[{"name":"","type":"address","internalType":"address"}],"stateMutability":"view"},{"type":"function","name":"getUserStake","inputs":[{"name":"user","type":"address","internalType":"address"},{"name":"token","type":"address","internalType":"address"}],"outputs":[{"name":"","type":"uint256","internalType":"uint256"}],"stateMutability":"view"},{"type":"function","name":"getUserStakedTokens","inputs":[{"name":"user","type":"address","internalType":"address"}],"outputs":[{"name":"","type":"address[]","internalType":"address[]"}],"stateMutability":"view"},{"type":"function","name":"lastMinted","inputs":[],"outputs":[{"name":"","type":"uint256","internalType":"uint256"}],"stateMutability":"view"},{"type":"function","name":"mintRate","inputs":[],"outputs":[{"name":"","type":"uint256","internalType":"uint256"}],"stateMutability":"view"},{"type":"function","name":"owner","inputs":[],"outputs":[{"name":"","type":"address","internalType":"address"}],"stateMutability":"view"},{"type":"function","name":"pendingOwner","inputs":[],"outputs":[{"name":"","type":"address","internalType":"address"}],"stateMutability":"view"},{"type":"function","name":"previewPending","inputs":[{"name":"token","type":"address","internalType":"address"}],"outputs":[{"name":"","type":"uint256","internalType":"uint256"}],"stateMutability":"view"},{"type":"function","name":"renounceOwnership","inputs":[],"outputs":[],"stateMutability":"nonpayable"},{"type":"function","name":"rewardIndex","inputs":[],"outputs":[{"name":"","type":"uint256","internalType":"uint256"}],"stateMutability":"view"},{"type":"function","name":"setGauge","inputs":[{"name":"_gauge","type":"address","internalType":"address"}],"outputs":[],"stateMutability":"nonpayable"},{"type":"function","name":"setMintRate","inputs":[{"name":"newMintRate","type":"uint256","internalType":"uint256"}],"outputs":[],"stateMutability":"nonpayable"},{"type":"function","name":"stake","inputs":[{"name":"token","type":"address","internalType":"address"},{"name":"amount","type":"uint256","internalType":"uint256"}],"outputs":[],"stateMutability":"nonpayable"},{"type":"function","name":"tokenRewardInfos","inputs":[{"name":"token","type":"address","internalType":"address"}],"outputs":[{"name":"stakedAmount","type":"uint256","internalType":"uint256"},{"name":"lastRewardIndex_","type":"uint256","internalType":"uint256"}],"stateMutability":"view"},{"type":"function","name":"totalStakedAmount","inputs":[],"outputs":[{"name":"","type":"uint256","internalType":"uint256"}],"stateMutability":"view"},{"type":"function","name":"transferOwnership","inputs":[{"name":"newOwner","type":"address","internalType":"address"}],"outputs":[],"stateMutability":"nonpayable"},{"type":"function","name":"unstake","inputs":[{"name":"token","type":"address","internalType":"address"},{"name":"amount","type":"uint256","internalType":"uint256"}],"outputs":[],"stateMutability":"nonpayable"},{"type":"function","name":"userStakes","inputs":[{"name":"user","type":"address","internalType":"address"},{"name":"token","type":"address","internalType":"address"}],"outputs":[{"name":"amount","type":"uint256","internalType":"uint256"}],"stateMutability":"view"},{"type":"event","name":"GaugeSet","inputs":[{"name":"gauge","type":"address","indexed":true,"internalType":"address"}],"anonymous":false},{"type":"event","name":"MintRateUpdated","inputs":[{"name":"newRate","type":"uint256","indexed":false,"internalType":"uint256"}],"anonymous":false},{"type":"event","name":"OwnershipTransferStarted","inputs":[{"name":"previousOwner","type":"address","indexed":true,"internalType":"address"},{"name":"newOwner","type":"address","indexed":true,"internalType":"address"}],"anonymous":false},{"type":"event","name":"OwnershipTransferred","inputs":[{"name":"previousOwner","type":"address","indexed":true,"internalType":"address"},{"name":"newOwner","type":"address","indexed":true,"internalType":"address"}],"anonymous":false},{"type":"event","name":"RewardIndexUpdated","inputs":[{"name":"newIndex","type":"uint256","indexed":false,"internalType":"uint256"}],"anonymous":false},{"type":"event","name":"Staked","inputs":[{"name":"token","type":"address","indexed":true,"internalType":"address"},{"name":"user","type":"address","indexed":true,"internalType":"address"},{"name":"amount","type":"uint256","indexed":false,"internalType":"uint256"}],"anonymous":false},{"type":"event","name":"Unstaked","inputs":[{"name":"token","type":"address","indexed":true,"internalType":"address"},{"name":"user","type":"address","indexed":true,"internalType":"address"},{"name":"amount","type":"uint256","indexed":false,"internalType":"uint256"}],"anonymous":false},{"type":"error","name":"OwnableInvalidOwner","inputs":[{"name":"owner","type":"address","internalType":"address"}]},{"type":"error","name":"OwnableUnauthorizedAccount","inputs":[{"name":"account","type":"address","internalType":"address"}]},{"type":"error","name":"SuperDCAStaking__InsufficientBalance","inputs":[]},{"type":"error","name":"SuperDCAStaking__NotAuthorized","inputs":[]},{"type":"error","name":"SuperDCAStaking__NotGauge","inputs":[]},{"type":"error","name":"SuperDCAStaking__TokenNotListed","inputs":[]},{"type":"error","name":"SuperDCAStaking__ZeroAddress","inputs":[]},{"type":"error","name":"SuperDCAStaking__ZeroAmount","inputs":[]}],"bytecode":{"object":"0x60a060405234801561000f575f80fd5b50604051612164380380612164833981810160405281019061003191906102e9565b805f73ffffffffffffffffffffffffffffffffffffffff168173ffffffffffffffffffffffffffffffffffffffff16036100a2575f6040517f1e4fbdf70000000000000000000000000000000000000000000000000000000081526004016100999190610348565b60405180910390fd5b6100b18161016160201b60201c565b505f73ffffffffffffffffffffffffffffffffffffffff168373ffffffffffffffffffffffffffffffffffffffff1603610117576040517f954302aa00000000000000000000000000000000000000000000000000000000815260040160405180910390fd5b8273ffffffffffffffffffffffffffffffffffffffff1660808173ffffffffffffffffffffffffffffffffffffffff16815250508160038190555042600481905550505050610361565b60015f6101000a81549073ffffffffffffffffffffffffffffffffffffffff02191690556101948161019760201b60201c565b50565b5f805f9054906101000a900473ffffffffffffffffffffffffffffffffffffffff169050815f806101000a81548173ffffffffffffffffffffffffffffffffffffffff021916908373ffffffffffffffffffffffffffffffffffffffff1602179055508173ffffffffffffffffffffffffffffffffffffffff168173ffffffffffffffffffffffffffffffffffffffff167f8be0079c531659141344cd1fd0a4f28419497f9722a3daafe3b4186f6b6457e060405160405180910390a35050565b5f80fd5b5f73ffffffffffffffffffffffffffffffffffffffff82169050919050565b5f6102858261025c565b9050919050565b6102958161027b565b811461029f575f80fd5b50565b5f815190506102b08161028c565b92915050565b5f819050919050565b6102c8816102b6565b81146102d2575f80fd5b50565b5f815190506102e3816102bf565b92915050565b5f805f60608486031215610300576102ff610258565b5b5f61030d868287016102a2565b935050602061031e868287016102d5565b925050604061032f868287016102a2565b9150509250925092565b6103428161027b565b82525050565b5f60208201905061035b5f830184610339565b92915050565b608051611ddd6103875f395f818161055301528181610a4601526110060152611ddd5ff3fe608060405234801561000f575f80fd5b5060043610610135575f3560e01c8063a6f19c84116100b6578063ca0dcf161161007a578063ca0dcf1614610327578063dbe2193f14610345578063e30c397814610361578063e9ee2fa91461037f578063f2fde38b1461039d578063fa9ddf09146103b957610135565b8063a6f19c8414610283578063adc9772e146102a1578063ae1a01a2146102bd578063bbc19ab0146102ed578063c2a672e01461030b57610135565b8063715018a6116100fd578063715018a6146101f157806379ba5097146101fb578063862d2d7c146102055780638da5cb5b14610235578063978e08d71461025357610135565b80633710d4c71461013957806347a13cea1461016957806353ed252f1461019957806355a68ed3146101b7578063567e98f9146101d3575b5f80fd5b610153600480360381019061014e919061193d565b6103ea565b6040516101609190611993565b60405180910390f35b610183600480360381019061017e91906119ac565b61046c565b6040516101909190611993565b60405180910390f35b6101a1610551565b6040516101ae91906119e6565b60405180910390f35b6101d160048036038101906101cc91906119ac565b610575565b005b6101db610668565b6040516101e89190611993565b60405180910390f35b6101f961066e565b005b610203610681565b005b61021f600480360381019061021a919061193d565b61070f565b60405161022c9190611993565b60405180910390f35b61023d61072f565b60405161024a91906119e6565b60405180910390f35b61026d600480360381019061026891906119ac565b610756565b60405161027a9190611993565b60405180910390f35b61028b610889565b60405161029891906119e6565b60405180910390f35b6102bb60048036038101906102b69190611a29565b6108ae565b005b6102d760048036038101906102d291906119ac565b610ca6565b6040516102e49190611b1e565b60405180910390f35b6102f5610cf4565b6040516103029190611993565b60405180910390f35b61032560048036038101906103209190611a29565b610cfa565b005b61032f61110a565b60405161033c9190611993565b60405180910390f35b61035f600480360381019061035a9190611b3e565b611110565b005b610369611218565b60405161037691906119e6565b60405180910390f35b610387611240565b6040516103949190611993565b60405180910390f35b6103b760048036038101906103b291906119ac565b611246565b005b6103d360048036038101906103ce91906119ac565b6112f2565b6040516103e1929190611b69565b60405180910390f35b5f60085f8473ffffffffffffffffffffffffffffffffffffffff1673ffffffffffffffffffffffffffffffffffffffff1681526020019081526020015f205f8373ffffffffffffffffffffffffffffffffffffffff1673ffffffffffffffffffffffffffffffffffffffff1681526020019081526020015f2054905092915050565b5f8060075f8473ffffffffffffffffffffffffffffffffffffffff1673ffffffffffffffffffffffffffffffffffffffff1681526020019081526020015f2090505f815f015414806104bf57505f600654145b156104cd575f91505061054c565b5f60055490505f600454426104e29190611bbd565b90505f811115610521575f600354826104fb9190611bf0565b905061051281670de0b6b3a7640000600654611347565b8361051d9190611c31565b9250505b610546835f01548460010154846105389190611bbd565b670de0b6b3a7640000611347565b93505050505b919050565b7f000000000000000000000000000000000000000000000000000000000000000081565b61057d61142c565b5f73ffffffffffffffffffffffffffffffffffffffff168173ffffffffffffffffffffffffffffffffffffffff16036105e2576040517f954302aa00000000000000000000000000000000000000000000000000000000815260040160405180910390fd5b8060025f6101000a81548173ffffffffffffffffffffffffffffffffffffffff021916908373ffffffffffffffffffffffffffffffffffffffff1602179055508073ffffffffffffffffffffffffffffffffffffffff167fb947d28129d3b40272a411eeee3a2842c6335a0f0269abf492e8c20218bf02b060405160405180910390a250565b60065481565b61067661142c565b61067f5f6114b3565b565b5f61068a6114e3565b90508073ffffffffffffffffffffffffffffffffffffffff166106ab611218565b73ffffffffffffffffffffffffffffffffffffffff161461070357806040517f118cdaa70000000000000000000000000000000000000000000000000000000081526004016106fa91906119e6565b60405180910390fd5b61070c816114b3565b50565b6008602052815f5260405f20602052805f5260405f205f91509150505481565b5f805f9054906101000a900473ffffffffffffffffffffffffffffffffffffffff16905090565b5f60025f9054906101000a900473ffffffffffffffffffffffffffffffffffffffff1673ffffffffffffffffffffffffffffffffffffffff163373ffffffffffffffffffffffffffffffffffffffff16146107dd576040517f8f5c579500000000000000000000000000000000000000000000000000000000815260040160405180910390fd5b6107e56114ea565b5f60075f8473ffffffffffffffffffffffffffffffffffffffff1673ffffffffffffffffffffffffffffffffffffffff1681526020019081526020015f2090505f815f015403610838575f915050610884565b5f816001015460055461084b9190611bbd565b90505f810361085e575f92505050610884565b610874825f015482670de0b6b3a7640000611347565b9250600554826001018190555050505b919050565b60025f9054906101000a900473ffffffffffffffffffffffffffffffffffffffff1681565b5f81036108e7576040517f1f52e43300000000000000000000000000000000000000000000000000000000815260040160405180910390fd5b5f73ffffffffffffffffffffffffffffffffffffffff1660025f9054906101000a900473ffffffffffffffffffffffffffffffffffffffff1673ffffffffffffffffffffffffffffffffffffffff160361096d576040517f954302aa00000000000000000000000000000000000000000000000000000000815260040160405180910390fd5b60025f9054906101000a900473ffffffffffffffffffffffffffffffffffffffff1673ffffffffffffffffffffffffffffffffffffffff1663e69ec653836040518263ffffffff1660e01b81526004016109c791906119e6565b602060405180830381865afa1580156109e2573d5f803e3d5ffd5b505050506040513d601f19601f82011682018060405250810190610a069190611c99565b610a3c576040517fd0b5530500000000000000000000000000000000000000000000000000000000815260040160405180910390fd5b610a446114ea565b7f000000000000000000000000000000000000000000000000000000000000000073ffffffffffffffffffffffffffffffffffffffff166323b872dd3330846040518463ffffffff1660e01b8152600401610aa193929190611cc4565b6020604051808303815f875af1158015610abd573d5f803e3d5ffd5b505050506040513d601f19601f82011682018060405250810190610ae19190611c99565b505f60075f8473ffffffffffffffffffffffffffffffffffffffff1673ffffffffffffffffffffffffffffffffffffffff1681526020019081526020015f20905081815f015f828254610b349190611c31565b9250508190555060055481600101819055508160065f828254610b579190611c31565b925050819055508160085f3373ffffffffffffffffffffffffffffffffffffffff1673ffffffffffffffffffffffffffffffffffffffff1681526020019081526020015f205f8573ffffffffffffffffffffffffffffffffffffffff1673ffffffffffffffffffffffffffffffffffffffff1681526020019081526020015f205f828254610be59190611c31565b92505081905550610c3b8360095f3373ffffffffffffffffffffffffffffffffffffffff1673ffffffffffffffffffffffffffffffffffffffff1681526020019081526020015f2061159490919063ffffffff16565b503373ffffffffffffffffffffffffffffffffffffffff168373ffffffffffffffffffffffffffffffffffffffff167f5dac0c1b1112564a045ba943c9d50270893e8e826c49be8e7073adc713ab7bd784604051610c999190611993565b60405180910390a3505050565b6060610ced60095f8473ffffffffffffffffffffffffffffffffffffffff1673ffffffffffffffffffffffffffffffffffffffff1681526020019081526020015f206115c1565b9050919050565b60045481565b5f8103610d33576040517f1f52e43300000000000000000000000000000000000000000000000000000000815260040160405180910390fd5b5f60075f8473ffffffffffffffffffffffffffffffffffffffff1673ffffffffffffffffffffffffffffffffffffffff1681526020019081526020015f20905081815f01541015610db0576040517ff1a31f7300000000000000000000000000000000000000000000000000000000815260040160405180910390fd5b8160085f3373ffffffffffffffffffffffffffffffffffffffff1673ffffffffffffffffffffffffffffffffffffffff1681526020019081526020015f205f8573ffffffffffffffffffffffffffffffffffffffff1673ffffffffffffffffffffffffffffffffffffffff1681526020019081526020015f20541015610e62576040517ff1a31f7300000000000000000000000000000000000000000000000000000000815260040160405180910390fd5b610e6a6114ea565b81815f015f828254610e7c9190611bbd565b9250508190555060055481600101819055508160065f828254610e9f9190611bbd565b925050819055508160085f3373ffffffffffffffffffffffffffffffffffffffff1673ffffffffffffffffffffffffffffffffffffffff1681526020019081526020015f205f8573ffffffffffffffffffffffffffffffffffffffff1673ffffffffffffffffffffffffffffffffffffffff1681526020019081526020015f205f828254610f2d9190611bbd565b925050819055505f60085f3373ffffffffffffffffffffffffffffffffffffffff1673ffffffffffffffffffffffffffffffffffffffff1681526020019081526020015f205f8573ffffffffffffffffffffffffffffffffffffffff1673ffffffffffffffffffffffffffffffffffffffff1681526020019081526020015f205403611004576110028360095f3373ffffffffffffffffffffffffffffffffffffffff1673ffffffffffffffffffffffffffffffffffffffff1681526020019081526020015f206115e090919063ffffffff16565b505b7f000000000000000000000000000000000000000000000000000000000000000073ffffffffffffffffffffffffffffffffffffffff1663a9059cbb33846040518363ffffffff1660e01b815260040161105f929190611cf9565b6020604051808303815f875af115801561107b573d5f803e3d5ffd5b505050506040513d601f19601f8201168201806040525081019061109f9190611c99565b503373ffffffffffffffffffffffffffffffffffffffff168373ffffffffffffffffffffffffffffffffffffffff167fd8654fcc8cf5b36d30b3f5e4688fc78118e6d68de60b9994e09902268b57c3e3846040516110fd9190611993565b60405180910390a3505050565b60035481565b61111861072f565b73ffffffffffffffffffffffffffffffffffffffff163373ffffffffffffffffffffffffffffffffffffffff16141580156111a0575060025f9054906101000a900473ffffffffffffffffffffffffffffffffffffffff1673ffffffffffffffffffffffffffffffffffffffff163373ffffffffffffffffffffffffffffffffffffffff1614155b156111d7576040517f5b767c8000000000000000000000000000000000000000000000000000000000815260040160405180910390fd5b806003819055507fe043e3e44450462f070ef41d0ee43c33ea863ea59eaee8da6f27377b8ba88c358160405161120d9190611993565b60405180910390a150565b5f60015f9054906101000a900473ffffffffffffffffffffffffffffffffffffffff16905090565b60055481565b61124e61142c565b8060015f6101000a81548173ffffffffffffffffffffffffffffffffffffffff021916908373ffffffffffffffffffffffffffffffffffffffff1602179055508073ffffffffffffffffffffffffffffffffffffffff166112ad61072f565b73ffffffffffffffffffffffffffffffffffffffff167f38d16b8cac22d99fc7c124b9cd0de2d3fa1faef420bfe791d8c362d765e2270060405160405180910390a350565b5f805f60075f8573ffffffffffffffffffffffffffffffffffffffff1673ffffffffffffffffffffffffffffffffffffffff1681526020019081526020015f209050805f015481600101549250925050915091565b5f8083850290505f8019858709828110838203039150505f810361137f5783828161137557611374611d20565b5b0492505050611425565b80841161139e5761139d6113985f86146012601161160d565b611626565b5b5f8486880990508281118203915080830392505f855f038616905080860495508084049350600181825f0304019050808302841793505f600287600302189050808702600203810290508087026002038102905080870260020381029050808702600203810290508087026002038102905080870260020381029050808502955050505050505b9392505050565b6114346114e3565b73ffffffffffffffffffffffffffffffffffffffff1661145261072f565b73ffffffffffffffffffffffffffffffffffffffff16146114b1576114756114e3565b6040517f118cdaa70000000000000000000000000000000000000000000000000000000081526004016114a891906119e6565b60405180910390fd5b565b60015f6101000a81549073ffffffffffffffffffffffffffffffffffffffff02191690556114e081611637565b50565b5f33905090565b5f6006540315611592575f600454426115039190611bbd565b90505f81036115125750611592565b5f600354826115219190611bf0565b905061153881670de0b6b3a7640000600654611347565b60055f8282546115489190611c31565b92505081905550426004819055507f22da3973732aa4a277b604da5282200d162428ccee60e8d996fc614e8b3d583e6005546040516115879190611993565b60405180910390a150505b565b5f6115b9835f018373ffffffffffffffffffffffffffffffffffffffff165f1b6116f8565b905092915050565b60605f6115cf835f0161175f565b905060608190508092505050919050565b5f611605835f018373ffffffffffffffffffffffffffffffffffffffff165f1b6117b8565b905092915050565b5f611617846118b4565b82841802821890509392505050565b634e487b715f52806020526024601cfd5b5f805f9054906101000a900473ffffffffffffffffffffffffffffffffffffffff169050815f806101000a81548173ffffffffffffffffffffffffffffffffffffffff021916908373ffffffffffffffffffffffffffffffffffffffff1602179055508173ffffffffffffffffffffffffffffffffffffffff168173ffffffffffffffffffffffffffffffffffffffff167f8be0079c531659141344cd1fd0a4f28419497f9722a3daafe3b4186f6b6457e060405160405180910390a35050565b5f61170383836118bf565b61175557825f0182908060018154018082558091505060019003905f5260205f20015f9091909190915055825f0180549050836001015f8481526020019081526020015f208190555060019050611759565b5f90505b92915050565b6060815f018054806020026020016040519081016040528092919081815260200182805480156117ac57602002820191905f5260205f20905b815481526020019060010190808311611798575b50505050509050919050565b5f80836001015f8481526020019081526020015f205490505f81146118a9575f6001826117e59190611bbd565b90505f6001865f01805490506117fb9190611bbd565b9050808214611861575f865f01828154811061181a57611819611d4d565b5b905f5260205f200154905080875f01848154811061183b5761183a611d4d565b5b905f5260205f20018190555083876001015f8381526020019081526020015f2081905550505b855f0180548061187457611873611d7a565b5b600190038181905f5260205f20015f90559055856001015f8681526020019081526020015f205f9055600193505050506118ae565b5f9150505b92915050565b5f8115159050919050565b5f80836001015f8481526020019081526020015f20541415905092915050565b5f80fd5b5f73ffffffffffffffffffffffffffffffffffffffff82169050919050565b5f61190c826118e3565b9050919050565b61191c81611902565b8114611926575f80fd5b50565b5f8135905061193781611913565b92915050565b5f8060408385031215611953576119526118df565b5b5f61196085828601611929565b925050602061197185828601611929565b9150509250929050565b5f819050919050565b61198d8161197b565b82525050565b5f6020820190506119a65f830184611984565b92915050565b5f602082840312156119c1576119c06118df565b5b5f6119ce84828501611929565b91505092915050565b6119e081611902565b82525050565b5f6020820190506119f95f8301846119d7565b92915050565b611a088161197b565b8114611a12575f80fd5b50565b5f81359050611a23816119ff565b92915050565b5f8060408385031215611a3f57611a3e6118df565b5b5f611a4c85828601611929565b9250506020611a5d85828601611a15565b9150509250929050565b5f81519050919050565b5f82825260208201905092915050565b5f819050602082019050919050565b611a9981611902565b82525050565b5f611aaa8383611a90565b60208301905092915050565b5f602082019050919050565b5f611acc82611a67565b611ad68185611a71565b9350611ae183611a81565b805f5b83811015611b11578151611af88882611a9f565b9750611b0383611ab6565b925050600181019050611ae4565b5085935050505092915050565b5f6020820190508181035f830152611b368184611ac2565b905092915050565b5f60208284031215611b5357611b526118df565b5b5f611b6084828501611a15565b91505092915050565b5f604082019050611b7c5f830185611984565b611b896020830184611984565b9392505050565b7f4e487b71000000000000000000000000000000000000000000000000000000005f52601160045260245ffd5b5f611bc78261197b565b9150611bd28361197b565b9250828203905081811115611bea57611be9611b90565b5b92915050565b5f611bfa8261197b565b9150611c058361197b565b9250828202611c138161197b565b91508282048414831517611c2a57611c29611b90565b5b5092915050565b5f611c3b8261197b565b9150611c468361197b565b9250828201905080821115611c5e57611c5d611b90565b5b92915050565b5f8115159050919050565b611c7881611c64565b8114611c82575f80fd5b50565b5f81519050611c9381611c6f565b92915050565b5f60208284031215611cae57611cad6118df565b5b5f611cbb84828501611c85565b91505092915050565b5f606082019050611cd75f8301866119d7565b611ce460208301856119d7565b611cf16040830184611984565b949350505050565b5f604082019050611d0c5f8301856119d7565b611d196020830184611984565b9392505050565b7f4e487b71000000000000000000000000000000000000000000000000000000005f52601260045260245ffd5b7f4e487b71000000000000000000000000000000000000000000000000000000005f52603260045260245ffd5b7f4e487b71000000000000000000000000000000000000000000000000000000005f52603160045260245ffdfea2646970667358221220ee06c8588c4b378cc7cd825ac3d6fdb13b5db3697da224bc0af511c5fd3903a364736f6c634300081a0033","linkReferences":{}},"methodIdentifiers":{"DCA_TOKEN()":"53ed252f","acceptOwnership()":"79ba5097","accrueReward(address)":"978e08d7","gauge()":"a6f19c84","getUserStake(address,address)":"3710d4c7","getUserStakedTokens(address)":"ae1a01a2","lastMinted()":"bbc19ab0","mintRate()":"ca0dcf16","owner()":"8da5cb5b","pendingOwner()":"e30c3978","previewPending(address)":"47a13cea","renounceOwnership()":"715018a6","rewardIndex()":"e9ee2fa9","setGauge(address)":"55a68ed3","setMintRate(uint256)":"dbe2193f","stake(address,uint256)":"adc9772e","tokenRewardInfos(address)":"fa9ddf09","totalStakedAmount()":"567e98f9","transferOwnership(address)":"f2fde38b","unstake(address,uint256)":"c2a672e0","userStakes(address,address)":"862d2d7c"},"storageLayout":{"storage":[{"astId":39434,"contract":"src/SuperDCAStaking.sol:SuperDCAStaking","label":"_owner","offset":0,"slot":"0","type":"t_address"},{"astId":39582,"contract":"src/SuperDCAStaking.sol:SuperDCAStaking","label":"_pendingOwner","offset":0,"slot":"1","type":"t_address"},{"astId":72841,"contract":"src/SuperDCAStaking.sol:SuperDCAStaking","label":"gauge","offset":0,"slot":"2","type":"t_address"},{"astId":72845,"contract":"src/SuperDCAStaking.sol:SuperDCAStaking","label":"mintRate","offset":0,"slot":"3","type":"t_uint256"},{"astId":72849,"contract":"src/SuperDCAStaking.sol:SuperDCAStaking","label":"lastMinted","offset":0,"slot":"4","type":"t_uint256"},{"astId":72853,"contract":"src/SuperDCAStaking.sol:SuperDCAStaking","label":"rewardIndex","offset":0,"slot":"5","type":"t_uint256"},{"astId":72856,"contract":"src/SuperDCAStaking.sol:SuperDCAStaking","label":"totalStakedAmount","offset":0,"slot":"6","type":"t_uint256"},{"astId":72862,"contract":"src/SuperDCAStaking.sol:SuperDCAStaking","label":"tokenRewardInfoOf","offset":0,"slot":"7","type":"t_mapping(t_address,t_struct(TokenRewardInfo)73599_storage)"},{"astId":72869,"contract":"src/SuperDCAStaking.sol:SuperDCAStaking","label":"userStakes","offset":0,"slot":"8","type":"t_mapping(t_address,t_mapping(t_address,t_uint256))"},{"astId":72875,"contract":"src/SuperDCAStaking.sol:SuperDCAStaking","label":"userTokenSet","offset":0,"slot":"9","type":"t_mapping(t_address,t_struct(AddressSet)46964_storage)"}],"types":{"t_address":{"encoding":"inplace","label":"address","numberOfBytes":"20"},"t_array(t_bytes32)dyn_storage":{"encoding":"dynamic_array","label":"bytes32[]","numberOfBytes":"32","base":"t_bytes32"},"t_bytes32":{"encoding":"inplace","label":"bytes32","numberOfBytes":"32"},"t_mapping(t_address,t_mapping(t_address,t_uint256))":{"encoding":"mapping","key":"t_address","label":"mapping(address => mapping(address => uint256))","numberOfBytes":"32","value":"t_mapping(t_address,t_uint256)"},"t_mapping(t_address,t_struct(AddressSet)46964_storage)":{"encoding":"mapping","key":"t_address","label":"mapping(address => struct EnumerableSet.AddressSet)","numberOfBytes":"32","value":"t_struct(AddressSet)46964_storage"},"t_mapping(t_address,t_struct(TokenRewardInfo)73599_storage)":{"encoding":"mapping","key":"t_address","label":"mapping(address => struct ISuperDCAStaking.TokenRewardInfo)","numberOfBytes":"32","value":"t_struct(TokenRewardInfo)73599_storage"},"t_mapping(t_address,t_uint256)":{"encoding":"mapping","key":"t_address","label":"mapping(address => uint256)","numberOfBytes":"32","value":"t_uint256"},"t_mapping(t_bytes32,t_uint256)":{"encoding":"mapping","key":"t_bytes32","label":"mapping(bytes32 => uint256)","numberOfBytes":"32","value":"t_uint256"},"t_struct(AddressSet)46964_storage":{"encoding":"inplace","label":"struct EnumerableSet.AddressSet","numberOfBytes":"64","members":[{"astId":46963,"contract":"src/SuperDCAStaking.sol:SuperDCAStaking","label":"_inner","offset":0,"slot":"0","type":"t_struct(Set)46649_storage"}]},"t_struct(Set)46649_storage":{"encoding":"inplace","label":"struct EnumerableSet.Set","numberOfBytes":"64","members":[{"astId":46644,"contract":"src/SuperDCAStaking.sol:SuperDCAStaking","label":"_values","offset":0,"slot":"0","type":"t_array(t_bytes32)dyn_storage"},{"astId":46648,"contract":"src/SuperDCAStaking.sol:SuperDCAStaking","label":"_positions","offset":0,"slot":"1","type":"t_mapping(t_bytes32,t_uint256)"}]},"t_struct(TokenRewardInfo)73599_storage":{"encoding":"inplace","label":"struct ISuperDCAStaking.TokenRewardInfo","numberOfBytes":"64","members":[{"astId":73596,"contract":"src/SuperDCAStaking.sol:SuperDCAStaking","label":"stakedAmount","offset":0,"slot":"0","type":"t_uint256"},{"astId":73598,"contract":"src/SuperDCAStaking.sol:SuperDCAStaking","label":"lastRewardIndex","offset":0,"slot":"1","type":"t_uint256"}]},"t_uint256":{"encoding":"inplace","label":"uint256","numberOfBytes":"32"}}},"id":158}