{"abi":[{"type":"constructor","inputs":[{"name":"_name","type":"string","internalType":"string"},{"name":"_symbol","type":"string","internalType":"string"},{"name":"_decimals","type":"uint8","internalType":"uint8"}],"stateMutability":"nonpayable"},{"type":"function","name":"__setShouldRevertOnNextCall","inputs":[{"name":"_shouldRevert","type":"bool","internalType":"bool"}],"outputs":[],"stateMutability":"nonpayable"},{"type":"function","name":"allowance","inputs":[{"name":"","type":"address","internalType":"address"},{"name":"","type":"address","internalType":"address"}],"outputs":[{"name":"","type":"uint256","internalType":"uint256"}],"stateMutability":"view"},{"type":"function","name":"approve","inputs":[{"name":"spender","type":"address","internalType":"address"},{"name":"amount","type":"uint256","internalType":"uint256"}],"outputs":[{"name":"","type":"bool","internalType":"bool"}],"stateMutability":"nonpayable"},{"type":"function","name":"balanceOf","inputs":[{"name":"","type":"address","internalType":"address"}],"outputs":[{"name":"","type":"uint256","internalType":"uint256"}],"stateMutability":"view"},{"type":"function","name":"decimals","inputs":[],"outputs":[{"name":"","type":"uint8","internalType":"uint8"}],"stateMutability":"view"},{"type":"function","name":"lastParam__transfer_amount","inputs":[],"outputs":[{"name":"","type":"uint256","internalType":"uint256"}],"stateMutability":"view"},{"type":"function","name":"lastParam__transfer_to","inputs":[],"outputs":[{"name":"","type":"address","internalType":"address"}],"stateMutability":"view"},{"type":"function","name":"mint","inputs":[{"name":"to","type":"address","internalType":"address"},{"name":"amount","type":"uint256","internalType":"uint256"}],"outputs":[],"stateMutability":"nonpayable"},{"type":"function","name":"name","inputs":[],"outputs":[{"name":"","type":"string","internalType":"string"}],"stateMutability":"view"},{"type":"function","name":"owner","inputs":[],"outputs":[{"name":"","type":"address","internalType":"address"}],"stateMutability":"view"},{"type":"function","name":"shouldRevertOnNextCall","inputs":[],"outputs":[{"name":"","type":"bool","internalType":"bool"}],"stateMutability":"view"},{"type":"function","name":"symbol","inputs":[],"outputs":[{"name":"","type":"string","internalType":"string"}],"stateMutability":"view"},{"type":"function","name":"totalSupply","inputs":[],"outputs":[{"name":"","type":"uint256","internalType":"uint256"}],"stateMutability":"view"},{"type":"function","name":"transfer","inputs":[{"name":"_to","type":"address","internalType":"address"},{"name":"_amount","type":"uint256","internalType":"uint256"}],"outputs":[{"name":"","type":"bool","internalType":"bool"}],"stateMutability":"nonpayable"},{"type":"function","name":"transferFrom","inputs":[{"name":"from","type":"address","internalType":"address"},{"name":"to","type":"address","internalType":"address"},{"name":"amount","type":"uint256","internalType":"uint256"}],"outputs":[{"name":"","type":"bool","internalType":"bool"}],"stateMutability":"nonpayable"},{"type":"function","name":"transferOwnership","inputs":[{"name":"newOwner","type":"address","internalType":"address"}],"outputs":[],"stateMutability":"nonpayable"}],"bytecode":{"object":"0x608060405234801561000f575f80fd5b506040516118ff3803806118ff83398181016040528101906100319190610235565b825f908161003f91906104ca565b50816001908161004f91906104ca565b508060025f6101000a81548160ff021916908360ff1602179055503360045f6101000a81548173ffffffffffffffffffffffffffffffffffffffff021916908373ffffffffffffffffffffffffffffffffffffffff160217905550505050610599565b5f604051905090565b5f80fd5b5f80fd5b5f80fd5b5f80fd5b5f601f19601f8301169050919050565b7f4e487b71000000000000000000000000000000000000000000000000000000005f52604160045260245ffd5b610111826100cb565b810181811067ffffffffffffffff821117156101305761012f6100db565b5b80604052505050565b5f6101426100b2565b905061014e8282610108565b919050565b5f67ffffffffffffffff82111561016d5761016c6100db565b5b610176826100cb565b9050602081019050919050565b8281835e5f83830152505050565b5f6101a361019e84610153565b610139565b9050828152602081018484840111156101bf576101be6100c7565b5b6101ca848285610183565b509392505050565b5f82601f8301126101e6576101e56100c3565b5b81516101f6848260208601610191565b91505092915050565b5f60ff82169050919050565b610214816101ff565b811461021e575f80fd5b50565b5f8151905061022f8161020b565b92915050565b5f805f6060848603121561024c5761024b6100bb565b5b5f84015167ffffffffffffffff811115610269576102686100bf565b5b610275868287016101d2565b935050602084015167ffffffffffffffff811115610296576102956100bf565b5b6102a2868287016101d2565b92505060406102b386828701610221565b9150509250925092565b5f81519050919050565b7f4e487b71000000000000000000000000000000000000000000000000000000005f52602260045260245ffd5b5f600282049050600182168061030b57607f821691505b60208210810361031e5761031d6102c7565b5b50919050565b5f819050815f5260205f209050919050565b5f6020601f8301049050919050565b5f82821b905092915050565b5f600883026103807fffffffffffffffffffffffffffffffffffffffffffffffffffffffffffffffff82610345565b61038a8683610345565b95508019841693508086168417925050509392505050565b5f819050919050565b5f819050919050565b5f6103ce6103c96103c4846103a2565b6103ab565b6103a2565b9050919050565b5f819050919050565b6103e7836103b4565b6103fb6103f3826103d5565b848454610351565b825550505050565b5f90565b61040f610403565b61041a8184846103de565b505050565b5b8181101561043d576104325f82610407565b600181019050610420565b5050565b601f8211156104825761045381610324565b61045c84610336565b8101602085101561046b578190505b61047f61047785610336565b83018261041f565b50505b505050565b5f82821c905092915050565b5f6104a25f1984600802610487565b1980831691505092915050565b5f6104ba8383610493565b9150826002028217905092915050565b6104d3826102bd565b67ffffffffffffffff8111156104ec576104eb6100db565b5b6104f682546102f4565b610501828285610441565b5f60209050601f831160018114610532575f8415610520578287015190505b61052a85826104af565b865550610591565b601f19841661054086610324565b5f5b8281101561056757848901518255600182019150602085019450602081019050610542565b868310156105845784890151610580601f891682610493565b8355505b6001600288020188555050505b505050505050565b611359806105a65f395ff3fe608060405234801561000f575f80fd5b50600436106100fe575f3560e01c806370a0823111610095578063c501562811610064578063c5015628146102ae578063dd62ed3e146102cc578063e2919faf146102fc578063f2fde38b1461031a576100fe565b806370a08231146102125780638da5cb5b1461024257806395d89b4114610260578063a9059cbb1461027e576100fe565b806323b872dd116100d157806323b872dd1461018a578063313ce567146101ba57806340c10f19146101d8578063705e75c2146101f4576100fe565b806306fdde0314610102578063095ea7b31461012057806318160ddd146101505780631dfc984d1461016e575b5f80fd5b61010a610336565b6040516101179190610cdf565b60405180910390f35b61013a60048036038101906101359190610d90565b6103c1565b6040516101479190610de8565b60405180910390f35b610158610449565b6040516101659190610e10565b60405180910390f35b61018860048036038101906101839190610e53565b61044f565b005b6101a4600480360381019061019f9190610e7e565b61046b565b6040516101b19190610de8565b60405180910390f35b6101c2610735565b6040516101cf9190610ee9565b60405180910390f35b6101f260048036038101906101ed9190610d90565b610747565b005b6101fc610845565b6040516102099190610de8565b60405180910390f35b61022c60048036038101906102279190610f02565b610857565b6040516102399190610e10565b60405180910390f35b61024a61086c565b6040516102579190610f3c565b60405180910390f35b610268610891565b6040516102759190610cdf565b60405180910390f35b61029860048036038101906102939190610d90565b61091d565b6040516102a59190610de8565b60405180910390f35b6102b6610ae4565b6040516102c39190610f3c565b60405180910390f35b6102e660048036038101906102e19190610f55565b610b09565b6040516102f39190610e10565b60405180910390f35b610304610b29565b6040516103119190610e10565b60405180910390f35b610334600480360381019061032f9190610f02565b610b2f565b005b5f805461034290610fc0565b80601f016020809104026020016040519081016040528092919081815260200182805461036e90610fc0565b80156103b95780601f10610390576101008083540402835291602001916103b9565b820191905f5260205f20905b81548152906001019060200180831161039c57829003601f168201915b505050505081565b5f8160065f3373ffffffffffffffffffffffffffffffffffffffff1673ffffffffffffffffffffffffffffffffffffffff1681526020019081526020015f205f8573ffffffffffffffffffffffffffffffffffffffff1673ffffffffffffffffffffffffffffffffffffffff1681526020019081526020015f20819055506001905092915050565b60035481565b8060095f6101000a81548160ff02191690831515021790555050565b5f60095f9054906101000a900460ff16156104bb576040517f08c379a00000000000000000000000000000000000000000000000000000000081526004016104b29061103a565b60405180910390fd5b8160055f8673ffffffffffffffffffffffffffffffffffffffff1673ffffffffffffffffffffffffffffffffffffffff1681526020019081526020015f2054101561053b576040517f08c379a0000000000000000000000000000000000000000000000000000000008152600401610532906110c8565b60405180910390fd5b8160065f8673ffffffffffffffffffffffffffffffffffffffff1673ffffffffffffffffffffffffffffffffffffffff1681526020019081526020015f205f3373ffffffffffffffffffffffffffffffffffffffff1673ffffffffffffffffffffffffffffffffffffffff1681526020019081526020015f205410156105f6576040517f08c379a00000000000000000000000000000000000000000000000000000000081526004016105ed90611156565b60405180910390fd5b8160065f8673ffffffffffffffffffffffffffffffffffffffff1673ffffffffffffffffffffffffffffffffffffffff1681526020019081526020015f205f3373ffffffffffffffffffffffffffffffffffffffff1673ffffffffffffffffffffffffffffffffffffffff1681526020019081526020015f205f82825461067d91906111a1565b925050819055508160055f8673ffffffffffffffffffffffffffffffffffffffff1673ffffffffffffffffffffffffffffffffffffffff1681526020019081526020015f205f8282546106d091906111a1565b925050819055508160055f8573ffffffffffffffffffffffffffffffffffffffff1673ffffffffffffffffffffffffffffffffffffffff1681526020019081526020015f205f82825461072391906111d4565b92505081905550600190509392505050565b60025f9054906101000a900460ff1681565b60045f9054906101000a900473ffffffffffffffffffffffffffffffffffffffff1673ffffffffffffffffffffffffffffffffffffffff163373ffffffffffffffffffffffffffffffffffffffff16146107d6576040517f08c379a00000000000000000000000000000000000000000000000000000000081526004016107cd90611277565b60405180910390fd5b8060035f8282546107e791906111d4565b925050819055508060055f8473ffffffffffffffffffffffffffffffffffffffff1673ffffffffffffffffffffffffffffffffffffffff1681526020019081526020015f205f82825461083a91906111d4565b925050819055505050565b60095f9054906101000a900460ff1681565b6005602052805f5260405f205f915090505481565b60045f9054906101000a900473ffffffffffffffffffffffffffffffffffffffff1681565b6001805461089e90610fc0565b80601f01602080910402602001604051908101604052809291908181526020018280546108ca90610fc0565b80156109155780601f106108ec57610100808354040283529160200191610915565b820191905f5260205f20905b8154815290600101906020018083116108f857829003601f168201915b505050505081565b5f60095f9054906101000a900460ff161561096d576040517f08c379a00000000000000000000000000000000000000000000000000000000081526004016109649061103a565b60405180910390fd5b8160055f3373ffffffffffffffffffffffffffffffffffffffff1673ffffffffffffffffffffffffffffffffffffffff1681526020019081526020015f205410156109ed576040517f08c379a00000000000000000000000000000000000000000000000000000000081526004016109e4906110c8565b60405180910390fd5b8160055f3373ffffffffffffffffffffffffffffffffffffffff1673ffffffffffffffffffffffffffffffffffffffff1681526020019081526020015f205f828254610a3991906111a1565b925050819055508160055f8573ffffffffffffffffffffffffffffffffffffffff1673ffffffffffffffffffffffffffffffffffffffff1681526020019081526020015f205f828254610a8c91906111d4565b92505081905550816008819055508260075f6101000a81548173ffffffffffffffffffffffffffffffffffffffff021916908373ffffffffffffffffffffffffffffffffffffffff1602179055506001905092915050565b60075f9054906101000a900473ffffffffffffffffffffffffffffffffffffffff1681565b6006602052815f5260405f20602052805f5260405f205f91509150505481565b60085481565b60045f9054906101000a900473ffffffffffffffffffffffffffffffffffffffff1673ffffffffffffffffffffffffffffffffffffffff163373ffffffffffffffffffffffffffffffffffffffff1614610bbe576040517f08c379a0000000000000000000000000000000000000000000000000000000008152600401610bb590611277565b60405180910390fd5b5f73ffffffffffffffffffffffffffffffffffffffff168173ffffffffffffffffffffffffffffffffffffffff1603610c2c576040517f08c379a0000000000000000000000000000000000000000000000000000000008152600401610c2390611305565b60405180910390fd5b8060045f6101000a81548173ffffffffffffffffffffffffffffffffffffffff021916908373ffffffffffffffffffffffffffffffffffffffff16021790555050565b5f81519050919050565b5f82825260208201905092915050565b8281835e5f83830152505050565b5f601f19601f8301169050919050565b5f610cb182610c6f565b610cbb8185610c79565b9350610ccb818560208601610c89565b610cd481610c97565b840191505092915050565b5f6020820190508181035f830152610cf78184610ca7565b905092915050565b5f80fd5b5f73ffffffffffffffffffffffffffffffffffffffff82169050919050565b5f610d2c82610d03565b9050919050565b610d3c81610d22565b8114610d46575f80fd5b50565b5f81359050610d5781610d33565b92915050565b5f819050919050565b610d6f81610d5d565b8114610d79575f80fd5b50565b5f81359050610d8a81610d66565b92915050565b5f8060408385031215610da657610da5610cff565b5b5f610db385828601610d49565b9250506020610dc485828601610d7c565b9150509250929050565b5f8115159050919050565b610de281610dce565b82525050565b5f602082019050610dfb5f830184610dd9565b92915050565b610e0a81610d5d565b82525050565b5f602082019050610e235f830184610e01565b92915050565b610e3281610dce565b8114610e3c575f80fd5b50565b5f81359050610e4d81610e29565b92915050565b5f60208284031215610e6857610e67610cff565b5b5f610e7584828501610e3f565b91505092915050565b5f805f60608486031215610e9557610e94610cff565b5b5f610ea286828701610d49565b9350506020610eb386828701610d49565b9250506040610ec486828701610d7c565b9150509250925092565b5f60ff82169050919050565b610ee381610ece565b82525050565b5f602082019050610efc5f830184610eda565b92915050565b5f60208284031215610f1757610f16610cff565b5b5f610f2484828501610d49565b91505092915050565b610f3681610d22565b82525050565b5f602082019050610f4f5f830184610f2d565b92915050565b5f8060408385031215610f6b57610f6a610cff565b5b5f610f7885828601610d49565b9250506020610f8985828601610d49565b9150509250929050565b7f4e487b71000000000000000000000000000000000000000000000000000000005f52602260045260245ffd5b5f6002820490506001821680610fd757607f821691505b602082108103610fea57610fe9610f93565b5b50919050565b7f4d6f636b4552433230546f6b656e3a20526576657274205265717565737465645f82015250565b5f611024602083610c79565b915061102f82610ff0565b602082019050919050565b5f6020820190508181035f83015261105181611018565b9050919050565b7f4d6f636b4552433230546f6b656e3a20496e73756666696369656e742062616c5f8201527f616e636500000000000000000000000000000000000000000000000000000000602082015250565b5f6110b2602483610c79565b91506110bd82611058565b604082019050919050565b5f6020820190508181035f8301526110df816110a6565b9050919050565b7f4d6f636b4552433230546f6b656e3a20496e73756666696369656e7420616c6c5f8201527f6f77616e63650000000000000000000000000000000000000000000000000000602082015250565b5f611140602683610c79565b915061114b826110e6565b604082019050919050565b5f6020820190508181035f83015261116d81611134565b9050919050565b7f4e487b71000000000000000000000000000000000000000000000000000000005f52601160045260245ffd5b5f6111ab82610d5d565b91506111b683610d5d565b92508282039050818111156111ce576111cd611174565b5b92915050565b5f6111de82610d5d565b91506111e983610d5d565b925082820190508082111561120157611200611174565b5b92915050565b7f4d6f636b4552433230546f6b656e3a2063616c6c6572206973206e6f742074685f8201527f65206f776e657200000000000000000000000000000000000000000000000000602082015250565b5f611261602783610c79565b915061126c82611207565b604082019050919050565b5f6020820190508181035f83015261128e81611255565b9050919050565b7f4d6f636b4552433230546f6b656e3a206e6577206f776e6572206973207468655f8201527f207a65726f206164647265737300000000000000000000000000000000000000602082015250565b5f6112ef602d83610c79565b91506112fa82611295565b604082019050919050565b5f6020820190508181035f83015261131c816112e3565b905091905056fea264697066735822122074efed53d7d27228a89ac8da294bc7db7f579b8a05b65311ada62eaf5fb7383564736f6c634300081a0033","linkReferences":{}},"methodIdentifiers":{"__setShouldRevertOnNextCall(bool)":"1dfc984d","allowance(address,address)":"dd62ed3e","approve(address,uint256)":"095ea7b3","balanceOf(address)":"70a08231","decimals()":"313ce567","lastParam__transfer_amount()":"e2919faf","lastParam__transfer_to()":"c5015628","mint(address,uint256)":"40c10f19","name()":"06fdde03","owner()":"8da5cb5b","shouldRevertOnNextCall()":"705e75c2","symbol()":"95d89b41","totalSupply()":"18160ddd","transfer(address,uint256)":"a9059cbb","transferFrom(address,address,uint256)":"23b872dd","transferOwnership(address)":"f2fde38b"},"storageLayout":{"storage":[{"astId":74193,"contract":"test/mocks/MockERC20Token.sol:MockERC20Token","label":"name","offset":0,"slot":"0","type":"t_string_storage"},{"astId":74195,"contract":"test/mocks/MockERC20Token.sol:MockERC20Token","label":"symbol","offset":0,"slot":"1","type":"t_string_storage"},{"astId":74197,"contract":"test/mocks/MockERC20Token.sol:MockERC20Token","label":"decimals","offset":0,"slot":"2","type":"t_uint8"},{"astId":74199,"contract":"test/mocks/MockERC20Token.sol:MockERC20Token","label":"totalSupply","offset":0,"slot":"3","type":"t_uint256"},{"astId":74201,"contract":"test/mocks/MockERC20Token.sol:MockERC20Token","label":"owner","offset":0,"slot":"4","type":"t_address"},{"astId":74217,"contract":"test/mocks/MockERC20Token.sol:MockERC20Token","label":"balanceOf","offset":0,"slot":"5","type":"t_mapping(t_address,t_uint256)"},{"astId":74223,"contract":"test/mocks/MockERC20Token.sol:MockERC20Token","label":"allowance","offset":0,"slot":"6","type":"t_mapping(t_address,t_mapping(t_address,t_uint256))"},{"astId":74225,"contract":"test/mocks/MockERC20Token.sol:MockERC20Token","label":"lastParam__transfer_to","offset":0,"slot":"7","type":"t_address"},{"astId":74227,"contract":"test/mocks/MockERC20Token.sol:MockERC20Token","label":"lastParam__transfer_amount","offset":0,"slot":"8","type":"t_uint256"},{"astId":74229,"contract":"test/mocks/MockERC20Token.sol:MockERC20Token","label":"shouldRevertOnNextCall","offset":0,"slot":"9","type":"t_bool"}],"types":{"t_address":{"encoding":"inplace","label":"address","numberOfBytes":"20"},"t_bool":{"encoding":"inplace","label":"bool","numberOfBytes":"1"},"t_mapping(t_address,t_mapping(t_address,t_uint256))":{"encoding":"mapping","key":"t_address","label":"mapping(address => mapping(address => uint256))","numberOfBytes":"32","value":"t_mapping(t_address,t_uint256)"},"t_mapping(t_address,t_uint256)":{"encoding":"mapping","key":"t_address","label":"mapping(address => uint256)","numberOfBytes":"32","value":"t_uint256"},"t_string_storage":{"encoding":"bytes","label":"string","numberOfBytes":"32"},"t_uint256":{"encoding":"inplace","label":"uint256","numberOfBytes":"32"},"t_uint8":{"encoding":"inplace","label":"uint8","numberOfBytes":"1"}}},"id":167}