{"abi":[{"type":"function","name":"nonces","inputs":[{"name":"owner","type":"address","internalType":"address"},{"name":"word","type":"uint256","internalType":"uint256"}],"outputs":[{"name":"bitmap","type":"uint256","internalType":"uint256"}],"stateMutability":"view"},{"type":"function","name":"revokeNonce","inputs":[{"name":"nonce","type":"uint256","internalType":"uint256"}],"outputs":[],"stateMutability":"payable"},{"type":"error","name":"NonceAlreadyUsed","inputs":[]}],"bytecode":{"object":"0x6080604052348015600e575f80fd5b506102bc8061001c5f395ff3fe608060405260043610610028575f3560e01c806305c1ee201461002c578063502e1a1614610048575b5f80fd5b6100466004803603810190610041919061019b565b610084565b005b348015610053575f80fd5b5061006e60048036038101906100699190610220565b610091565b60405161007b919061026d565b60405180910390f35b61008e33826100b0565b50565b5f602052815f5260405f20602052805f5260405f205f91509150505481565b5f600882901c90505f8260ff1690505f816001901b90505f815f808873ffffffffffffffffffffffffffffffffffffffff1673ffffffffffffffffffffffffffffffffffffffff1681526020019081526020015f205f8681526020019081526020015f205f8282541892505081905590505f8282160361015c576040517f1fb09b8000000000000000000000000000000000000000000000000000000000815260040160405180910390fd5b505050505050565b5f80fd5b5f819050919050565b61017a81610168565b8114610184575f80fd5b50565b5f8135905061019581610171565b92915050565b5f602082840312156101b0576101af610164565b5b5f6101bd84828501610187565b91505092915050565b5f73ffffffffffffffffffffffffffffffffffffffff82169050919050565b5f6101ef826101c6565b9050919050565b6101ff816101e5565b8114610209575f80fd5b50565b5f8135905061021a816101f6565b92915050565b5f806040838503121561023657610235610164565b5b5f6102438582860161020c565b925050602061025485828601610187565b9150509250929050565b61026781610168565b82525050565b5f6020820190506102805f83018461025e565b9291505056fea26469706673582212202cf0592e81e773f113b729184dcc20a5b62f37d3c2f245310d8249df787447f564736f6c634300081a0033","linkReferences":{}},"methodIdentifiers":{"nonces(address,uint256)":"502e1a16","revokeNonce(uint256)":"05c1ee20"},"storageLayout":{"storage":[{"astId":68882,"contract":"lib/v4-periphery/src/base/UnorderedNonce.sol:UnorderedNonce","label":"nonces","offset":0,"slot":"0","type":"t_mapping(t_address,t_mapping(t_uint256,t_uint256))"}],"types":{"t_address":{"encoding":"inplace","label":"address","numberOfBytes":"20"},"t_mapping(t_address,t_mapping(t_uint256,t_uint256))":{"encoding":"mapping","key":"t_address","label":"mapping(address => mapping(uint256 => uint256))","numberOfBytes":"32","value":"t_mapping(t_uint256,t_uint256)"},"t_mapping(t_uint256,t_uint256)":{"encoding":"mapping","key":"t_uint256","label":"mapping(uint256 => uint256)","numberOfBytes":"32","value":"t_uint256"},"t_uint256":{"encoding":"inplace","label":"uint256","numberOfBytes":"32"}}},"id":132}