{"abi":[{"type":"function","name":"accrueReward","inputs":[{"name":"","type":"address","internalType":"address"}],"outputs":[{"name":"rewardAmount","type":"uint256","internalType":"uint256"}],"stateMutability":"pure"},{"type":"function","name":"getUserStake","inputs":[{"name":"","type":"address","internalType":"address"},{"name":"","type":"address","internalType":"address"}],"outputs":[{"name":"","type":"uint256","internalType":"uint256"}],"stateMutability":"pure"},{"type":"function","name":"getUserStakedTokens","inputs":[{"name":"","type":"address","internalType":"address"}],"outputs":[{"name":"","type":"address[]","internalType":"address[]"}],"stateMutability":"pure"},{"type":"function","name":"lastMinted","inputs":[],"outputs":[{"name":"","type":"uint256","internalType":"uint256"}],"stateMutability":"pure"},{"type":"function","name":"mintRate","inputs":[],"outputs":[{"name":"","type":"uint256","internalType":"uint256"}],"stateMutability":"pure"},{"type":"function","name":"previewPending","inputs":[{"name":"","type":"address","internalType":"address"}],"outputs":[{"name":"","type":"uint256","internalType":"uint256"}],"stateMutability":"pure"},{"type":"function","name":"rewardIndex","inputs":[],"outputs":[{"name":"","type":"uint256","internalType":"uint256"}],"stateMutability":"pure"},{"type":"function","name":"setGauge","inputs":[{"name":"","type":"address","internalType":"address"}],"outputs":[],"stateMutability":"nonpayable"},{"type":"function","name":"setMintRate","inputs":[{"name":"","type":"uint256","internalType":"uint256"}],"outputs":[],"stateMutability":"nonpayable"},{"type":"function","name":"stake","inputs":[{"name":"","type":"address","internalType":"address"},{"name":"","type":"uint256","internalType":"uint256"}],"outputs":[],"stateMutability":"nonpayable"},{"type":"function","name":"tokenRewardInfos","inputs":[{"name":"","type":"address","internalType":"address"}],"outputs":[{"name":"","type":"uint256","internalType":"uint256"},{"name":"","type":"uint256","internalType":"uint256"}],"stateMutability":"pure"},{"type":"function","name":"totalStakedAmount","inputs":[],"outputs":[{"name":"","type":"uint256","internalType":"uint256"}],"stateMutability":"pure"},{"type":"function","name":"unstake","inputs":[{"name":"","type":"address","internalType":"address"},{"name":"","type":"uint256","internalType":"uint256"}],"outputs":[],"stateMutability":"nonpayable"}],"bytecode":{"object":"0x6080604052348015600e575f80fd5b506105b38061001c5f395ff3fe608060405234801561000f575f80fd5b50600436106100cd575f3560e01c8063ae1a01a21161008a578063ca0dcf1611610064578063ca0dcf1614610221578063dbe2193f1461023f578063e9ee2fa91461025b578063fa9ddf0914610279576100cd565b8063ae1a01a2146101b7578063bbc19ab0146101e7578063c2a672e014610205576100cd565b80633710d4c7146100d157806347a13cea1461010157806355a68ed314610131578063567e98f91461014d578063978e08d71461016b578063adc9772e1461019b575b5f80fd5b6100eb60048036038101906100e69190610352565b6102aa565b6040516100f891906103a8565b60405180910390f35b61011b600480360381019061011691906103c1565b6102b1565b60405161012891906103a8565b60405180910390f35b61014b600480360381019061014691906103c1565b6102b7565b005b6101556102ba565b60405161016291906103a8565b60405180910390f35b610185600480360381019061018091906103c1565b6102be565b60405161019291906103a8565b60405180910390f35b6101b560048036038101906101b09190610416565b6102c4565b005b6101d160048036038101906101cc91906103c1565b6102c8565b6040516101de919061050b565b60405180910390f35b6101ef6102d4565b6040516101fc91906103a8565b60405180910390f35b61021f600480360381019061021a9190610416565b6102d8565b005b6102296102dc565b60405161023691906103a8565b60405180910390f35b6102596004803603810190610254919061052b565b6102e0565b005b6102636102e3565b60405161027091906103a8565b60405180910390f35b610293600480360381019061028e91906103c1565b6102e7565b6040516102a1929190610556565b60405180910390f35b5f92915050565b5f919050565b50565b5f90565b5f919050565b5050565b60608080915050919050565b5f90565b5050565b5f90565b50565b5f90565b5f805f8091509150915091565b5f80fd5b5f73ffffffffffffffffffffffffffffffffffffffff82169050919050565b5f610321826102f8565b9050919050565b61033181610317565b811461033b575f80fd5b50565b5f8135905061034c81610328565b92915050565b5f8060408385031215610368576103676102f4565b5b5f6103758582860161033e565b92505060206103868582860161033e565b9150509250929050565b5f819050919050565b6103a281610390565b82525050565b5f6020820190506103bb5f830184610399565b92915050565b5f602082840312156103d6576103d56102f4565b5b5f6103e38482850161033e565b91505092915050565b6103f581610390565b81146103ff575f80fd5b50565b5f81359050610410816103ec565b92915050565b5f806040838503121561042c5761042b6102f4565b5b5f6104398582860161033e565b925050602061044a85828601610402565b9150509250929050565b5f81519050919050565b5f82825260208201905092915050565b5f819050602082019050919050565b61048681610317565b82525050565b5f610497838361047d565b60208301905092915050565b5f602082019050919050565b5f6104b982610454565b6104c3818561045e565b93506104ce8361046e565b805f5b838110156104fe5781516104e5888261048c565b97506104f0836104a3565b9250506001810190506104d1565b5085935050505092915050565b5f6020820190508181035f83015261052381846104af565b905092915050565b5f602082840312156105405761053f6102f4565b5b5f61054d84828501610402565b91505092915050565b5f6040820190506105695f830185610399565b6105766020830184610399565b939250505056fea264697066735822122034619ae9e83439f658bf590aa3ae5a5cae0f2fd27351f472dae00a35ef942ff964736f6c634300081a0033","linkReferences":{}},"methodIdentifiers":{"accrueReward(address)":"978e08d7","getUserStake(address,address)":"3710d4c7","getUserStakedTokens(address)":"ae1a01a2","lastMinted()":"bbc19ab0","mintRate()":"ca0dcf16","previewPending(address)":"47a13cea","rewardIndex()":"e9ee2fa9","setGauge(address)":"55a68ed3","setMintRate(uint256)":"dbe2193f","stake(address,uint256)":"adc9772e","tokenRewardInfos(address)":"fa9ddf09","totalStakedAmount()":"567e98f9","unstake(address,uint256)":"c2a672e0"},"storageLayout":{"storage":[],"types":{}},"id":199}