{"abi":[{"type":"constructor","inputs":[{"name":"name","type":"string","internalType":"string"},{"name":"symbol","type":"string","internalType":"string"},{"name":"initialOwner","type":"address","internalType":"address"}],"stateMutability":"nonpayable"},{"type":"function","name":"allowance","inputs":[{"name":"owner","type":"address","internalType":"address"},{"name":"spender","type":"address","internalType":"address"}],"outputs":[{"name":"","type":"uint256","internalType":"uint256"}],"stateMutability":"view"},{"type":"function","name":"approve","inputs":[{"name":"spender","type":"address","internalType":"address"},{"name":"value","type":"uint256","internalType":"uint256"}],"outputs":[{"name":"","type":"bool","internalType":"bool"}],"stateMutability":"nonpayable"},{"type":"function","name":"balanceOf","inputs":[{"name":"account","type":"address","internalType":"address"}],"outputs":[{"name":"","type":"uint256","internalType":"uint256"}],"stateMutability":"view"},{"type":"function","name":"burn","inputs":[{"name":"amount","type":"uint256","internalType":"uint256"}],"outputs":[],"stateMutability":"nonpayable"},{"type":"function","name":"burnFrom","inputs":[{"name":"from","type":"address","internalType":"address"},{"name":"amount","type":"uint256","internalType":"uint256"}],"outputs":[],"stateMutability":"nonpayable"},{"type":"function","name":"decimals","inputs":[],"outputs":[{"name":"","type":"uint8","internalType":"uint8"}],"stateMutability":"pure"},{"type":"function","name":"mint","inputs":[{"name":"to","type":"address","internalType":"address"},{"name":"amount","type":"uint256","internalType":"uint256"}],"outputs":[],"stateMutability":"nonpayable"},{"type":"function","name":"mintBatch","inputs":[{"name":"recipients","type":"address[]","internalType":"address[]"},{"name":"amounts","type":"uint256[]","internalType":"uint256[]"}],"outputs":[],"stateMutability":"nonpayable"},{"type":"function","name":"name","inputs":[],"outputs":[{"name":"","type":"string","internalType":"string"}],"stateMutability":"view"},{"type":"function","name":"owner","inputs":[],"outputs":[{"name":"","type":"address","internalType":"address"}],"stateMutability":"view"},{"type":"function","name":"renounceOwnership","inputs":[],"outputs":[],"stateMutability":"nonpayable"},{"type":"function","name":"symbol","inputs":[],"outputs":[{"name":"","type":"string","internalType":"string"}],"stateMutability":"view"},{"type":"function","name":"totalSupply","inputs":[],"outputs":[{"name":"","type":"uint256","internalType":"uint256"}],"stateMutability":"view"},{"type":"function","name":"transfer","inputs":[{"name":"to","type":"address","internalType":"address"},{"name":"value","type":"uint256","internalType":"uint256"}],"outputs":[{"name":"","type":"bool","internalType":"bool"}],"stateMutability":"nonpayable"},{"type":"function","name":"transferFrom","inputs":[{"name":"from","type":"address","internalType":"address"},{"name":"to","type":"address","internalType":"address"},{"name":"value","type":"uint256","internalType":"uint256"}],"outputs":[{"name":"","type":"bool","internalType":"bool"}],"stateMutability":"nonpayable"},{"type":"function","name":"transferOwnership","inputs":[{"name":"newOwner","type":"address","internalType":"address"}],"outputs":[],"stateMutability":"nonpayable"},{"type":"event","name":"Approval","inputs":[{"name":"owner","type":"address","indexed":true,"internalType":"address"},{"name":"spender","type":"address","indexed":true,"internalType":"address"},{"name":"value","type":"uint256","indexed":false,"internalType":"uint256"}],"anonymous":false},{"type":"event","name":"OwnershipTransferred","inputs":[{"name":"previousOwner","type":"address","indexed":true,"internalType":"address"},{"name":"newOwner","type":"address","indexed":true,"internalType":"address"}],"anonymous":false},{"type":"event","name":"Transfer","inputs":[{"name":"from","type":"address","indexed":true,"internalType":"address"},{"name":"to","type":"address","indexed":true,"internalType":"address"},{"name":"value","type":"uint256","indexed":false,"internalType":"uint256"}],"anonymous":false},{"type":"error","name":"ERC20InsufficientAllowance","inputs":[{"name":"spender","type":"address","internalType":"address"},{"name":"allowance","type":"uint256","internalType":"uint256"},{"name":"needed","type":"uint256","internalType":"uint256"}]},{"type":"error","name":"ERC20InsufficientBalance","inputs":[{"name":"sender","type":"address","internalType":"address"},{"name":"balance","type":"uint256","internalType":"uint256"},{"name":"needed","type":"uint256","internalType":"uint256"}]},{"type":"error","name":"ERC20InvalidApprover","inputs":[{"name":"approver","type":"address","internalType":"address"}]},{"type":"error","name":"ERC20InvalidReceiver","inputs":[{"name":"receiver","type":"address","internalType":"address"}]},{"type":"error","name":"ERC20InvalidSender","inputs":[{"name":"sender","type":"address","internalType":"address"}]},{"type":"error","name":"ERC20InvalidSpender","inputs":[{"name":"spender","type":"address","internalType":"address"}]},{"type":"error","name":"OwnableInvalidOwner","inputs":[{"name":"owner","type":"address","internalType":"address"}]},{"type":"error","name":"OwnableUnauthorizedAccount","inputs":[{"name":"account","type":"address","internalType":"address"}]}],"bytecode":{"object":"0x60806040523461038857610e44803803806100198161038c565b9283398101906060818303126103885780516001600160401b03811161038857826100459183016103b1565b60208201519092906001600160401b038111610388576040916100699184016103b1565b9101516001600160a01b038116908190036103885782516001600160401b03811161029957600354600181811c9116801561037e575b602082101461027b57601f811161031b575b506020601f82116001146102b857819293945f926102ad575b50508160011b915f199060031b1c1916176003555b81516001600160401b03811161029957600454600181811c9116801561028f575b602082101461027b57601f8111610218575b50602092601f82116001146101b757928192935f926101ac575b50508160011b915f199060031b1c1916176004555b801561019957600580546001600160a01b03198116831790915560405191906001600160a01b03167f8be0079c531659141344cd1fd0a4f28419497f9722a3daafe3b4186f6b6457e05f80a3610a4190816104038239f35b631e4fbdf760e01b5f525f60045260245ffd5b015190505f8061012c565b601f1982169360045f52805f20915f5b86811061020057508360019596106101e8575b505050811b01600455610141565b01515f1960f88460031b161c191690555f80806101da565b919260206001819286850151815501940192016101c7565b60045f527f8a35acfbc15ff81a39ae7d344fd709f28e8600b4aa8c65c6b64bfe7fe36bd19b601f830160051c81019160208410610271575b601f0160051c01905b8181106102665750610112565b5f8155600101610259565b9091508190610250565b634e487b7160e01b5f52602260045260245ffd5b90607f1690610100565b634e487b7160e01b5f52604160045260245ffd5b015190505f806100ca565b601f1982169060035f52805f20915f5b818110610303575095836001959697106102eb575b505050811b016003556100df565b01515f1960f88460031b161c191690555f80806102dd565b9192602060018192868b0151815501940192016102c8565b60035f527fc2575a0e9e593c00f959f8c92f12db2869c3395a3b0502d05e2516446f71f85b601f830160051c81019160208410610374575b601f0160051c01905b81811061036957506100b1565b5f815560010161035c565b9091508190610353565b90607f169061009f565b5f80fd5b6040519190601f01601f191682016001600160401b0381118382101761029957604052565b81601f82011215610388578051906001600160401b038211610299576103e0601f8301601f191660200161038c565b928284526020838301011161038857815f9260208093018386015e830101529056fe6080806040526004361015610012575f80fd5b5f3560e01c90816306fdde031461061557508063095ea7b31461056d57806318160ddd1461055057806323b872dd14610518578063313ce567146104fd57806340c10f19146104d857806342966c68146104bb57806370a0823114610484578063715018a61461042957806379cc6790146103f75780637c88e3d91461031a5780638da5cb5b146102f257806395d89b41146101d7578063a9059cbb146101a6578063dd62ed3e146101565763f2fde38b146100cc575f80fd5b34610152576020366003190112610152576100e561070e565b6100ed6109e4565b6001600160a01b0316801561013f57600580546001600160a01b0319811683179091556001600160a01b03167f8be0079c531659141344cd1fd0a4f28419497f9722a3daafe3b4186f6b6457e05f80a3005b631e4fbdf760e01b5f525f60045260245ffd5b5f80fd5b346101525760403660031901126101525761016f61070e565b610177610724565b6001600160a01b039182165f908152600160209081526040808320949093168252928352819020549051908152f35b34610152576040366003190112610152576101cc6101c261070e565b602435903361082f565b602060405160018152f35b34610152575f366003190112610152576040515f6004548060011c906001811680156102e8575b6020831081146102d4578285529081156102b85750600114610263575b50819003601f01601f191681019067ffffffffffffffff82118183101761024f5761024b829182604052826106e4565b0390f35b634e487b7160e01b5f52604160045260245ffd5b905060045f527f8a35acfbc15ff81a39ae7d344fd709f28e8600b4aa8c65c6b64bfe7fe36bd19b5f905b8282106102a25750602091508201018261021b565b600181602092548385880101520191019061028d565b90506020925060ff191682840152151560051b8201018261021b565b634e487b7160e01b5f52602260045260245ffd5b91607f16916101fe565b34610152575f366003190112610152576005546040516001600160a01b039091168152602090f35b346101525760403660031901126101525760043567ffffffffffffffff81116101525761034b90369060040161073a565b9060243567ffffffffffffffff81116101525761036c90369060040161073a565b928381036103ba575f5b81811061037f57005b61038a81838661076b565b35906001600160a01b0382168203610152576103b46001926103ad83898861076b565b35906108ec565b01610376565b60405162461bcd60e51b8152602060048201526015602482015274082e4e4c2f240d8cadccee8d040dad2e6dac2e8c6d605b1b6044820152606490fd5b346101525760403660031901126101525761042761041361070e565b6024359061042282338361078f565b610960565b005b34610152575f366003190112610152576104416109e4565b600580546001600160a01b031981169091555f906001600160a01b03167f8be0079c531659141344cd1fd0a4f28419497f9722a3daafe3b4186f6b6457e08280a3005b34610152576020366003190112610152576001600160a01b036104a561070e565b165f525f602052602060405f2054604051908152f35b346101525760203660031901126101525761042760043533610960565b34610152576040366003190112610152576104276104f461070e565b602435906108ec565b34610152575f36600319011261015257602060405160068152f35b34610152576060366003190112610152576101cc61053461070e565b61053c610724565b6044359161054b83338361078f565b61082f565b34610152575f366003190112610152576020600254604051908152f35b346101525760403660031901126101525761058661070e565b602435903315610602576001600160a01b03169081156105ef57335f52600160205260405f20825f526020528060405f20556040519081527f8c5be1e5ebec7d5bd14f71427d1e84f3dd0314c0f7b2291e5b200ac8c7c3b92560203392a3602060405160018152f35b634a1406b160e11b5f525f60045260245ffd5b63e602df0560e01b5f525f60045260245ffd5b34610152575f366003190112610152575f6003548060011c906001811680156106da575b6020831081146102d4578285529081156102b857506001146106855750819003601f01601f191681019067ffffffffffffffff82118183101761024f5761024b829182604052826106e4565b905060035f527fc2575a0e9e593c00f959f8c92f12db2869c3395a3b0502d05e2516446f71f85b5f905b8282106106c45750602091508201018261021b565b60018160209254838588010152019101906106af565b91607f1691610639565b602060409281835280519182918282860152018484015e5f828201840152601f01601f1916010190565b600435906001600160a01b038216820361015257565b602435906001600160a01b038216820361015257565b9181601f840112156101525782359167ffffffffffffffff8311610152576020808501948460051b01011161015257565b919081101561077b5760051b0190565b634e487b7160e01b5f52603260045260245ffd5b6001600160a01b039081165f81815260016020818152604080842095871684529490529290205493929184016107c6575b50505050565b82841061080c578015610602576001600160a01b038216156105ef575f52600160205260405f209060018060a01b03165f5260205260405f20910390555f8080806107c0565b508290637dc7a0d960e11b5f5260018060a01b031660045260245260445260645ffd5b6001600160a01b03169081156108d9576001600160a01b03169182156108c657815f525f60205260405f20548181106108ad57817fddf252ad1be2c89b69c2b068fc378daa952ba7f163c4a11628f55a4df523b3ef92602092855f525f84520360405f2055845f525f825260405f20818154019055604051908152a3565b8263391434e360e21b5f5260045260245260445260645ffd5b63ec442f0560e01b5f525f60045260245ffd5b634b637e8f60e11b5f525f60045260245ffd5b6001600160a01b03169081156108c6576002549080820180921161094c5760207fddf252ad1be2c89b69c2b068fc378daa952ba7f163c4a11628f55a4df523b3ef915f9360025584845283825260408420818154019055604051908152a3565b634e487b7160e01b5f52601160045260245ffd5b9091906001600160a01b031680156108d957805f525f60205260405f20548381106109ca576020845f94957fddf252ad1be2c89b69c2b068fc378daa952ba7f163c4a11628f55a4df523b3ef938587528684520360408620558060025403600255604051908152a3565b915063391434e360e21b5f5260045260245260445260645ffd5b6005546001600160a01b031633036109f857565b63118cdaa760e01b5f523360045260245ffdfea264697066735822122032e608ec551a61685d8ac3bf083324d85669ecccf9317bf100144c52f95e14a564736f6c634300081a0033","linkReferences":{}},"methodIdentifiers":{"allowance(address,address)":"dd62ed3e","approve(address,uint256)":"095ea7b3","balanceOf(address)":"70a08231","burn(uint256)":"42966c68","burnFrom(address,uint256)":"79cc6790","decimals()":"313ce567","mint(address,uint256)":"40c10f19","mintBatch(address[],uint256[])":"7c88e3d9","name()":"06fdde03","owner()":"8da5cb5b","renounceOwnership()":"715018a6","symbol()":"95d89b41","totalSupply()":"18160ddd","transfer(address,uint256)":"a9059cbb","transferFrom(address,address,uint256)":"23b872dd","transferOwnership(address)":"f2fde38b"},"id":76}