{"abi":[{"type":"constructor","inputs":[],"stateMutability":"nonpayable"},{"type":"function","name":"UPGRADE_INTERFACE_VERSION","inputs":[],"outputs":[{"name":"","type":"string","internalType":"string"}],"stateMutability":"view"},{"type":"function","name":"batchLockCollateral","inputs":[{"name":"conditionIds","type":"bytes32[]","internalType":"bytes32[]"},{"name":"users","type":"address[]","internalType":"address[]"},{"name":"amounts","type":"uint256[]","internalType":"uint256[]"}],"outputs":[],"stateMutability":"nonpayable"},{"type":"function","name":"batchUnlockCollateral","inputs":[{"name":"conditionIds","type":"bytes32[]","internalType":"bytes32[]"},{"name":"users","type":"address[]","internalType":"address[]"},{"name":"amounts","type":"uint256[]","internalType":"uint256[]"}],"outputs":[],"stateMutability":"nonpayable"},{"type":"function","name":"collateralToken","inputs":[],"outputs":[{"name":"","type":"address","internalType":"contract IERC20"}],"stateMutability":"view"},{"type":"function","name":"depositCollateral","inputs":[{"name":"amount","type":"uint256","internalType":"uint256"}],"outputs":[],"stateMutability":"nonpayable"},{"type":"function","name":"getAvailableBalance","inputs":[{"name":"user","type":"address","internalType":"address"}],"outputs":[{"name":"","type":"uint256","internalType":"uint256"}],"stateMutability":"view"},{"type":"function","name":"getTotalLocked","inputs":[{"name":"conditionId","type":"bytes32","internalType":"bytes32"}],"outputs":[{"name":"","type":"uint256","internalType":"uint256"}],"stateMutability":"view"},{"type":"function","name":"initialize","inputs":[{"name":"_initialOwner","type":"address","internalType":"address"},{"name":"_collateralToken","type":"address","internalType":"address"},{"name":"_marketController","type":"address","internalType":"address"}],"outputs":[],"stateMutability":"nonpayable"},{"type":"function","name":"lockCollateral","inputs":[{"name":"conditionId","type":"bytes32","internalType":"bytes32"},{"name":"user","type":"address","internalType":"address"},{"name":"amount","type":"uint256","internalType":"uint256"}],"outputs":[],"stateMutability":"nonpayable"},{"type":"function","name":"marketController","inputs":[],"outputs":[{"name":"","type":"address","internalType":"address"}],"stateMutability":"view"},{"type":"function","name":"owner","inputs":[],"outputs":[{"name":"","type":"address","internalType":"address"}],"stateMutability":"view"},{"type":"function","name":"paused","inputs":[],"outputs":[{"name":"","type":"bool","internalType":"bool"}],"stateMutability":"view"},{"type":"function","name":"proxiableUUID","inputs":[],"outputs":[{"name":"","type":"bytes32","internalType":"bytes32"}],"stateMutability":"view"},{"type":"function","name":"renounceOwnership","inputs":[],"outputs":[],"stateMutability":"nonpayable"},{"type":"function","name":"setMarketController","inputs":[{"name":"_contract","type":"address","internalType":"address"}],"outputs":[],"stateMutability":"nonpayable"},{"type":"function","name":"setPaused","inputs":[{"name":"_paused","type":"bool","internalType":"bool"}],"outputs":[],"stateMutability":"nonpayable"},{"type":"function","name":"transferBetweenUsers","inputs":[{"name":"conditionId","type":"bytes32","internalType":"bytes32"},{"name":"from","type":"address","internalType":"address"},{"name":"to","type":"address","internalType":"address"},{"name":"amount","type":"uint256","internalType":"uint256"}],"outputs":[],"stateMutability":"nonpayable"},{"type":"function","name":"transferOwnership","inputs":[{"name":"newOwner","type":"address","internalType":"address"}],"outputs":[],"stateMutability":"nonpayable"},{"type":"function","name":"unlockCollateral","inputs":[{"name":"conditionId","type":"bytes32","internalType":"bytes32"},{"name":"user","type":"address","internalType":"address"},{"name":"amount","type":"uint256","internalType":"uint256"}],"outputs":[],"stateMutability":"nonpayable"},{"type":"function","name":"updateCollateralToken","inputs":[{"name":"_collateralToken","type":"address","internalType":"address"}],"outputs":[],"stateMutability":"nonpayable"},{"type":"function","name":"updateMarketController","inputs":[{"name":"_marketController","type":"address","internalType":"address"}],"outputs":[],"stateMutability":"nonpayable"},{"type":"function","name":"upgradeToAndCall","inputs":[{"name":"newImplementation","type":"address","internalType":"address"},{"name":"data","type":"bytes","internalType":"bytes"}],"outputs":[],"stateMutability":"payable"},{"type":"function","name":"withdrawCollateral","inputs":[{"name":"amount","type":"uint256","internalType":"uint256"}],"outputs":[],"stateMutability":"nonpayable"},{"type":"event","name":"BatchCollateralLocked","inputs":[{"name":"conditionIds","type":"bytes32[]","indexed":false,"internalType":"bytes32[]"},{"name":"users","type":"address[]","indexed":false,"internalType":"address[]"},{"name":"amounts","type":"uint256[]","indexed":false,"internalType":"uint256[]"}],"anonymous":false},{"type":"event","name":"BatchCollateralUnlocked","inputs":[{"name":"conditionIds","type":"bytes32[]","indexed":false,"internalType":"bytes32[]"},{"name":"users","type":"address[]","indexed":false,"internalType":"address[]"},{"name":"amounts","type":"uint256[]","indexed":false,"internalType":"uint256[]"}],"anonymous":false},{"type":"event","name":"CollateralDeposited","inputs":[{"name":"user","type":"address","indexed":true,"internalType":"address"},{"name":"amount","type":"uint256","indexed":false,"internalType":"uint256"}],"anonymous":false},{"type":"event","name":"CollateralLocked","inputs":[{"name":"conditionId","type":"bytes32","indexed":true,"internalType":"bytes32"},{"name":"user","type":"address","indexed":true,"internalType":"address"},{"name":"amount","type":"uint256","indexed":false,"internalType":"uint256"}],"anonymous":false},{"type":"event","name":"CollateralTransferred","inputs":[{"name":"conditionId","type":"bytes32","indexed":true,"internalType":"bytes32"},{"name":"from","type":"address","indexed":true,"internalType":"address"},{"name":"to","type":"address","indexed":true,"internalType":"address"},{"name":"amount","type":"uint256","indexed":false,"internalType":"uint256"}],"anonymous":false},{"type":"event","name":"CollateralUnlocked","inputs":[{"name":"conditionId","type":"bytes32","indexed":true,"internalType":"bytes32"},{"name":"user","type":"address","indexed":true,"internalType":"address"},{"name":"amount","type":"uint256","indexed":false,"internalType":"uint256"}],"anonymous":false},{"type":"event","name":"CollateralWithdrawn","inputs":[{"name":"user","type":"address","indexed":true,"internalType":"address"},{"name":"amount","type":"uint256","indexed":false,"internalType":"uint256"}],"anonymous":false},{"type":"event","name":"Initialized","inputs":[{"name":"version","type":"uint64","indexed":false,"internalType":"uint64"}],"anonymous":false},{"type":"event","name":"OwnershipTransferred","inputs":[{"name":"previousOwner","type":"address","indexed":true,"internalType":"address"},{"name":"newOwner","type":"address","indexed":true,"internalType":"address"}],"anonymous":false},{"type":"event","name":"Upgraded","inputs":[{"name":"implementation","type":"address","indexed":true,"internalType":"address"}],"anonymous":false},{"type":"error","name":"AddressEmptyCode","inputs":[{"name":"target","type":"address","internalType":"address"}]},{"type":"error","name":"AddressInsufficientBalance","inputs":[{"name":"account","type":"address","internalType":"address"}]},{"type":"error","name":"ERC1967InvalidImplementation","inputs":[{"name":"implementation","type":"address","internalType":"address"}]},{"type":"error","name":"ERC1967NonPayable","inputs":[]},{"type":"error","name":"FailedInnerCall","inputs":[]},{"type":"error","name":"InvalidInitialization","inputs":[]},{"type":"error","name":"NotInitializing","inputs":[]},{"type":"error","name":"OwnableInvalidOwner","inputs":[{"name":"owner","type":"address","internalType":"address"}]},{"type":"error","name":"OwnableUnauthorizedAccount","inputs":[{"name":"account","type":"address","internalType":"address"}]},{"type":"error","name":"ReentrancyGuardReentrantCall","inputs":[]},{"type":"error","name":"SafeERC20FailedOperation","inputs":[{"name":"token","type":"address","internalType":"address"}]},{"type":"error","name":"UUPSUnauthorizedCallContext","inputs":[]},{"type":"error","name":"UUPSUnsupportedProxiableUUID","inputs":[{"name":"slot","type":"bytes32","internalType":"bytes32"}]}],"bytecode":{"object":"0x60a080604052346100e857306080527ff0c57e16840df040f15088dc2f81fe391c3923bec73e23a9662efc9c229c6a005460ff8160401c166100d9576002600160401b03196001600160401b03821601610073575b60405161164190816100ed8239608051818181610a3b0152610b0b0152f35b6001600160401b0319166001600160401b039081177ff0c57e16840df040f15088dc2f81fe391c3923bec73e23a9662efc9c229c6a005581527fc7f505b2f371ae2175ee4913f4499e1f2633a7b5936321eed1cdaeb6115181d290602090a15f80610054565b63f92ee8a960e01b5f5260045ffd5b5f80fdfe60806040526004361015610011575f80fd5b5f3560e01c806316c38b3c14610f615780631c285fb114610e4257806329d0610814610df8578063379049b214610c995780634f1ef28614610a8f57806352d1902d14610a295780635c975abb14610a075780636112fe2e14610927578063630823a2146108db5780636c24a76f146108a3578063715018a61461083c5780638da5cb5b14610808578063a3a4f748146107de578063ad3cb1cc14610780578063b2016bd414610759578063b5330b8b146106db578063bad4a01f14610608578063c0c53b8b14610438578063ceec450e14610398578063e9aa81b914610370578063eb020dbc14610201578063f2fde38b146101d65763fdff250514610116575f80fd5b346101d2577fb702a9533409adf9587b79f32aa10d13da6b8d4731ba13a7284938c3433e85b86020610147366110d3565b9391929061016060018060a01b036001541633146110fd565b610168611427565b835f526003825261017f8560405f20541015611264565b835f526003825260405f20610195868254611182565b905560018060a01b031693845f526002825260405f206101b68282546111a3565b9055604051908152a360015f805160206115cc83398151915255005b5f80fd5b346101d25760203660031901126101d2576101ff6101f2610fc5565b6101fa6113f4565b611383565b005b346101d25761020f3661100c565b90929161022760018060a01b036001541633146110fd565b61022f611427565b80851480610367575b610241906111fc565b5f5b85811061025d5760015f805160206115cc83398151915255005b6001906001600160a01b0361027b610276838689611240565b6112a8565b165f52600260205261029e60405f205461029683878a611240565b35111561113f565b6102a9818588611240565b35828060a01b036102be61027684878a611240565b165f5260026020526102d560405f20918254611182565b90556102e2818588611240565b356102ee82898b611240565b355f52600360205261030560405f209182546111a3565b905561031281888a611240565b35610321610276838689611240565b907f38f12634ebefbe7f6767652aae05e220f95e0ca8ef8353c9c9c5ae439a592aec602061035085898c611240565b3593604051948552868060a01b031693a301610243565b50808214610238565b346101d2575f3660031901126101d2576001546040516001600160a01b039091168152602090f35b346101d2577f38f12634ebefbe7f6767652aae05e220f95e0ca8ef8353c9c9c5ae439a592aec60206103c9366110d3565b939192906103e260018060a01b036001541633146110fd565b6103ea611427565b60018060a01b031693845f526002825261040a8160405f2054101561113f565b845f526002825260405f20610420828254611182565b9055835f526003825260405f206101b68282546111a3565b346101d25760603660031901126101d257610451610fc5565b610459610f99565b90610462610faf565b5f805160206115ec8339815191525460ff8160401c16159367ffffffffffffffff821680159081610600575b60011490816105f6575b1590816105ed575b506105de5767ffffffffffffffff1982166001175f805160206115ec8339815191525561050891856105b2575b506001600160a01b0316916104e38315156111b0565b6001600160a01b0316926104f8841515611337565b6105006114d3565b6101fa6114d3565b6105106114d3565b6105186114d3565b6105206114d3565b60015f805160206115cc833981519152556001600160601b0360a01b5f5416175f556001600160601b0360a01b600154161760015561055b57005b68ff0000000000000000195f805160206115ec83398151915254165f805160206115ec833981519152557fc7f505b2f371ae2175ee4913f4499e1f2633a7b5936321eed1cdaeb6115181d2602060405160018152a1005b68ffffffffffffffffff191668010000000000000001175f805160206115ec83398151915255856104cd565b63f92ee8a960e01b5f5260045ffd5b905015866104a0565b303b159150610498565b86915061048e565b346101d25760203660031901126101d257600435610624611427565b61063360ff60045416156112bc565b61063e8115156112fa565b5f546040516323b872dd60e01b602082015233602482015230604482015260648082018490528152610683916001600160a01b031661067e608483611081565b61145f565b335f52600260205260405f2061069a8282546111a3565b90556040519081527fd7243f6f8212d5188fd054141cf6ea89cfc0d91facb8c3afe2f88a135848014260203392a260015f805160206115cc83398151915255005b346101d25760203660031901126101d2576106f4610fc5565b6106fc6113f4565b6001600160a01b03168015610722576001600160601b0360a01b60015416176001555f80f35b60405162461bcd60e51b815260206004820152600f60248201526e496e76616c6964206164647265737360881b6044820152606490fd5b346101d2575f3660031901126101d2575f546040516001600160a01b039091168152602090f35b346101d2575f3660031901126101d257604080519061079f8183611081565b600582526020820191640352e302e360dc1b83528151928391602083525180918160208501528484015e5f828201840152601f01601f19168101030190f35b346101d25760203660031901126101d2576004355f526003602052602060405f2054604051908152f35b346101d2575f3660031901126101d2575f8051602061158c833981519152546040516001600160a01b039091168152602090f35b346101d2575f3660031901126101d2576108546113f4565b5f8051602061158c83398151915280546001600160a01b031981169091555f906001600160a01b03167f8be0079c531659141344cd1fd0a4f28419497f9722a3daafe3b4186f6b6457e08280a3005b346101d25760203660031901126101d2576001600160a01b036108c4610fc5565b165f526002602052602060405f2054604051908152f35b346101d25760203660031901126101d2576108f4610fc5565b6108fc6113f4565b6001600160a01b0316610910811515611337565b6001600160601b0360a01b60015416176001555f80f35b346101d25760203660031901126101d257600435610943611427565b61095260ff60045416156112bc565b61095d8115156112fa565b335f5260026020526109758160405f2054101561113f565b335f52600260205260405f2061098c828254611182565b90555f5460405163a9059cbb60e01b6020820152336024820152604480820184905281526109c8916001600160a01b031661067e606483611081565b6040519081527fc30fcfbcaac9e0deffa719714eaa82396ff506a0d0d0eebe170830177288715d60203392a260015f805160206115cc83398151915255005b346101d2575f3660031901126101d257602060ff600454166040519015158152f35b346101d2575f3660031901126101d2577f00000000000000000000000000000000000000000000000000000000000000006001600160a01b03163003610a805760206040515f805160206115ac8339815191528152f35b63703e46dd60e11b5f5260045ffd5b60403660031901126101d257610aa3610fc5565b6024359067ffffffffffffffff82116101d257366023830112156101d257816004013590610ad0826110b7565b91610ade6040519384611081565b808352602083019336602483830101116101d257815f926024602093018737840101526001600160a01b037f000000000000000000000000000000000000000000000000000000000000000016308114908115610c77575b50610a8057610b436113f4565b6040516352d1902d60e01b81526001600160a01b0382169390602081600481885afa5f9181610c43575b50610b855784634c9c8ce360e01b5f5260045260245ffd5b805f805160206115ac833981519152869203610c315750823b15610c1f575f805160206115ac83398151915280546001600160a01b031916821790557fbc7cd75a20ee27fd9adebab32041f755214dbc6bffa90cc0225b39da2e5c2d3b5f80a2825115610c06575f80916101ff945190845af4610c006114fe565b9161152d565b50505034610c1057005b63b398979f60e01b5f5260045ffd5b634c9c8ce360e01b5f5260045260245ffd5b632a87526960e21b5f5260045260245ffd5b9091506020813d602011610c6f575b81610c5f60209383611081565b810103126101d257519086610b6d565b3d9150610c52565b5f805160206115ac833981519152546001600160a01b03161415905084610b36565b346101d257610ca73661100c565b909291610cbf60018060a01b036001541633146110fd565b610cc7611427565b80851480610def575b610cd9906111fc565b5f5b858110610cf55760015f805160206115cc83398151915255005b80610d03600192888a611240565b355f526003602052610d2660405f2054610d1e83878a611240565b351115611264565b610d31818588611240565b35610d3d82898b611240565b355f526003602052610d5460405f20918254611182565b9055610d61818588611240565b35828060a01b03610d7661027684878a611240565b165f526002602052610d8d60405f209182546111a3565b9055610d9a81888a611240565b35610da9610276838689611240565b907fb702a9533409adf9587b79f32aa10d13da6b8d4731ba13a7284938c3433e85b86020610dd885898c611240565b3593604051948552868060a01b031693a301610cdb565b50808214610cd0565b346101d25760203660031901126101d257610e11610fc5565b610e196113f4565b6001600160a01b0316610e2d8115156111b0565b6001600160601b0360a01b5f5416175f555f80f35b346101d25760803660031901126101d257610e5b610f99565b610e63610faf565b60643591610e7c60018060a01b036001541633146110fd565b610e84611427565b60018060a01b031690815f526002602052610ea58360405f2054101561113f565b6001600160a01b0316918215610f2857815f52600260205260405f20610ecc828254611182565b9055825f52600260205260405f20610ee58282546111a3565b90556040519081527f360ec164483ad38cd13e8573def96fb44c4573e1e2a4e398bf025eb3443ec4c3602060043592a460015f805160206115cc83398151915255005b60405162461bcd60e51b8152602060048201526011602482015270125b9d985b1a59081c9958da5c1a595b9d607a1b6044820152606490fd5b346101d25760203660031901126101d2576004358015158091036101d257610f876113f4565b60ff8019600454169116176004555f80f35b602435906001600160a01b03821682036101d257565b604435906001600160a01b03821682036101d257565b600435906001600160a01b03821682036101d257565b9181601f840112156101d25782359167ffffffffffffffff83116101d2576020808501948460051b0101116101d257565b60606003198201126101d25760043567ffffffffffffffff81116101d2578161103791600401610fdb565b9290929160243567ffffffffffffffff81116101d2578161105a91600401610fdb565b929092916044359067ffffffffffffffff82116101d25761107d91600401610fdb565b9091565b90601f8019910116810190811067ffffffffffffffff8211176110a357604052565b634e487b7160e01b5f52604160045260245ffd5b67ffffffffffffffff81116110a357601f01601f191660200190565b60609060031901126101d257600435906024356001600160a01b03811681036101d2579060443590565b1561110457565b60405162461bcd60e51b81526020600482015260136024820152722ab730baba3437b934bd32b21031b0b63632b960691b6044820152606490fd5b1561114657565b60405162461bcd60e51b8152602060048201526014602482015273496e73756666696369656e742062616c616e636560601b6044820152606490fd5b9190820391821161118f57565b634e487b7160e01b5f52601160045260245ffd5b9190820180921161118f57565b156111b757565b60405162461bcd60e51b815260206004820152601860248201527f496e76616c696420636f6c6c61746572616c20746f6b656e00000000000000006044820152606490fd5b1561120357565b60405162461bcd60e51b8152602060048201526015602482015274082e4e4c2f240d8cadccee8d040dad2e6dac2e8c6d605b1b6044820152606490fd5b91908110156112505760051b0190565b634e487b7160e01b5f52603260045260245ffd5b1561126b57565b60405162461bcd60e51b8152602060048201526015602482015274125b9d985b1a59081d5b9b1bd8dac8185b5bdd5b9d605a1b6044820152606490fd5b356001600160a01b03811681036101d25790565b156112c357565b60405162461bcd60e51b815260206004820152600f60248201526e10dbdb9d1c9858dd081c185d5cd959608a1b6044820152606490fd5b1561130157565b60405162461bcd60e51b815260206004820152600e60248201526d125b9d985b1a5908185b5bdd5b9d60921b6044820152606490fd5b1561133e57565b60405162461bcd60e51b815260206004820152601960248201527f496e76616c6964206d61726b657420636f6e74726f6c6c6572000000000000006044820152606490fd5b6001600160a01b031680156113e1575f8051602061158c83398151915280546001600160a01b0319811683179091556001600160a01b03167f8be0079c531659141344cd1fd0a4f28419497f9722a3daafe3b4186f6b6457e05f80a3565b631e4fbdf760e01b5f525f60045260245ffd5b5f8051602061158c833981519152546001600160a01b0316330361141457565b63118cdaa760e01b5f523360045260245ffd5b60025f805160206115cc83398151915254146114505760025f805160206115cc83398151915255565b633ee5aeb560e01b5f5260045ffd5b5f806114879260018060a01b03169360208151910182865af16114806114fe565b908361152d565b80519081151591826114af575b505061149d5750565b635274afe760e01b5f5260045260245ffd5b81925090602091810103126101d257602001518015908115036101d2575f80611494565b60ff5f805160206115ec8339815191525460401c16156114ef57565b631afcd79f60e31b5f5260045ffd5b3d15611528573d9061150f826110b7565b9161151d6040519384611081565b82523d5f602084013e565b606090565b90611551575080511561154257805190602001fd5b630a12f52160e11b5f5260045ffd5b81511580611582575b611562575090565b639996b31560e01b5f9081526001600160a01b0391909116600452602490fd5b50803b1561155a56fe9016d09d72d40fdae2fd8ceac6b6234c7706214fd39c1cd1e609a0528c199300360894a13ba1a3210667c828492db98dca3e2076cc3735a920a3ca505d382bbc9b779b17422d0df92223018b32b4d1fa46e071723d6817e2486d003becc55f00f0c57e16840df040f15088dc2f81fe391c3923bec73e23a9662efc9c229c6a00a26469706673582212201a34bc6f5d3ba15510154c8ebc83d1443e1860b90ad9c188b7473a6b5cea89e064736f6c634300081a0033","linkReferences":{}},"methodIdentifiers":{"UPGRADE_INTERFACE_VERSION()":"ad3cb1cc","batchLockCollateral(bytes32[],address[],uint256[])":"eb020dbc","batchUnlockCollateral(bytes32[],address[],uint256[])":"379049b2","collateralToken()":"b2016bd4","depositCollateral(uint256)":"bad4a01f","getAvailableBalance(address)":"6c24a76f","getTotalLocked(bytes32)":"a3a4f748","initialize(address,address,address)":"c0c53b8b","lockCollateral(bytes32,address,uint256)":"ceec450e","marketController()":"e9aa81b9","owner()":"8da5cb5b","paused()":"5c975abb","proxiableUUID()":"52d1902d","renounceOwnership()":"715018a6","setMarketController(address)":"b5330b8b","setPaused(bool)":"16c38b3c","transferBetweenUsers(bytes32,address,address,uint256)":"1c285fb1","transferOwnership(address)":"f2fde38b","unlockCollateral(bytes32,address,uint256)":"fdff2505","updateCollateralToken(address)":"29d06108","updateMarketController(address)":"630823a2","upgradeToAndCall(address,bytes)":"4f1ef286","withdrawCollateral(uint256)":"6112fe2e"},"id":73}